:020000040800F2
:1000000000500020094400084D4400084D440008F9
:100010004D4400084D4400084D4400080000000015
:100020000000000000000000000000004D44000837
:100030004D440008000000004D440008650200081F
:100040004D4400084D4400084D4400084D0100088F
:100050004D4400084D4400084D4400084D4400083C
:100060004D4400084D4400084D4400084D4400082C
:100070004D4400084D440008390200084D44000872
:100080004D4400084D4400084D4400084D4400080C
:100090004D4400084D4400084D4400084D440008FC
:1000A0004D4400084D4400084D4400084D440008EC
:1000B0004D4400084D4400084D4400084D440008DC
:1000C0004D4400084D4400084D4400084D440008CC
:1000D0004D440008110200084D440008B101000819
:1000E0004D4400084D4400084D4400080000000045
:1000F0000000000000000000000000000000000000
:0C01000000000000000000005FF808F1A3
:10010C0010B5054C237833B9044B13B10448AFF345
:10011C0000800123237010BD50010020000000005E
:10012C00D84C000808B5034B1BB103490348AFF387
:10013C00008008BD0000000054010020D84C0008CD
:10014C0008B5012004F032F900B908BD012004F013
:10015C003DF904F013F90F4A13780133DBB2137035
:10016C000D4B1B7813F0010F07D00C4B1B88B3F50C
:10017C00616F08D20133094A1380074A137843F0A0
:10018C0040031370E1E7054B00221A80044B012257
:10019C001A70F2E7B4010020B001002072010020B7
:1001AC006206002008B5144B002283F8202083F847
:1001BC002C209A6240F22551104803F059FF48B99F
:1001CC000D4B012283F8202040F227710B4803F0DD
:1001DC004FFF08BD094803F040FF094A92F8FF3071
:1001EC00D0540133DBB282F8FF30FD2BE8D9134633
:1001FC00002283F8FF20E3E7CC01002000480040F8
:10020C006404002008B5074B1B8813F0100F00D1B5
:10021C0008BD044B9B88044B012283F8402002F05C
:10022C0049FFF5E700380140CC01002008B502F089
:10023C001BFF02F029FF064B002283F8002183F8F4
:10024C00FF20044A536843F48053536008BD00BF39
:10025C005803002000000240264B1A6801321A6035
:10026C001B68002B35D0002318E0234A02EB011247
:10027C009068214A02EB011290609068526890429B
:10028C0005D30A011C48825CF2B9002000E0002072
:10029C00194A02EB011108730133DBB2052B15D897
:1002AC0019461A011448825C002ADED000EB0312B6
:1002BC00906852689042D8D20F4A02EB03129068B1
:1002CC000C4A12681044D4E70120E1E7094B0022E4
:1002DC001A60094B93F82C3053B1074B002283F86A
:1002EC002C209A6283F82020044B012283F80121F0
:1002FC00704700BF30030020CC01002064040020B4
:10030C000F4B1A786FF345121A70A8B90D4B9868F9
:10031C00C0B203F500639A68120102F44072024302
:10032C00094B5B89DBB20A2B00D90A23013B074935
:10033C0051F8230010407047054A32F810007047FE
:10034C00B001002000080140B8010020F04C00086A
:10035C0034030020124B1A786FF345121A700346BF
:10036C0028B9104B5889C0B20A2816D870470D4AC4
:10037C00528992B200EB800041008A420BDD094A9F
:10038C005089C0B2C3EB4312C3EB82035A00D2B202
:10039C001044C0B2E8E7002070470A20E6E700BF2F
:1003AC00B0010020B801002010B582B00023ADF8D8
:1003BC00043072B68DF807302EE09DF80730394ABC
:1003CC0032F81340013CA4B29DF807109DF8073099
:1003DC0032F8111003F18A02334B03EB42035980BC
:1003EC00BDF80400E1B202F023FFBDF80430013384
:1003FC009BB2ADF80430BDF80400210A02F018FFDE
:10040C00BDF8043001339BB2ADF804309DF80730D1
:10041C000133DBB28DF807309DF80720234B5B8945
:10042C009BB29A42C9D3224C21784FF4807002F0CF
:10043C00FFFE2188090A40F2011002F0F9FEA178B2
:10044C004FF4817002F0F4FE6188090A40F2031047
:10045C0002F0EEFE21794FF4827002F0E9FEA188E1
:10046C00090A40F2051002F0E3FEA1794FF4837003
:10047C0002F0DEFEE188090A40F2071002F0D8FE15
:10048C000C4C21784FF4407002F0D2FE2188090AFE
:10049C0040F2013002F0CCFE02F082FE62B602B0F5
:1004AC0010BD00BF6805002080060020B8010020A8
:1004BC00500300205A04002010B582B00023ADF880
:1004CC00043072B68DF807303BE0BDF8040002F042
:1004DC000FFE9DF80730474C24F81300BDF804308C
:1004EC0001339BB2ADF80430BDF8040002F000FEFD
:1004FC009DF80730DBB234F8132042EA002024F8D0
:10050C001300BDF8043001339BB2ADF804309DF8F4
:10051C000730DBB234F81320013224F813209DF895
:10052C0007209DF8073034F8121003F18A02324B81
:10053C0003EB420359809DF807300133DBB28DF891
:10054C0007309DF807202D4B5B899BB29A42BCD398
:10055C004FF4807002F0CCFD294C208040F2011049
:10056C0002F0C6FD238843EA002020804FF48170FE
:10057C0002F0BEFD608040F2031002F0B9FD63880A
:10058C0043EA002060804FF4827002F0B1FDA0803D
:10059C0040F2051002F0ACFDA38843EA0020A080D5
:1005AC004FF4837002F0A4FDE08040F2071002F0DB
:1005BC009FFDE38843EA0020E080124B1B8813B1B7
:1005CC0062B602B010BD4FF4407002F091FD0D4CBC
:1005DC00208040F2013002F08BFD238843EA00209A
:1005EC0080B22080B0F5407FEAD24FF44072228076
:1005FC00E6E700BF6805002080060020B801002057
:10060C00500300205A04002030B583B005460C4638
:10061C0000238DF8073003F1804303F584334FF446
:10062C0000421A6100BF00BF4021104803F019FDC1
:10063C000028F9D09DF80730DBB2E95C0B4803F0D9
:10064C0008FD9DF807300133DBB28DF80730A3426B
:10065C00EAD34021054803F004FD0028F9D0044BEF
:10066C004FF400425A6103B030BD00BF0048004057
:10067C000008014000B58BB0554B1B78042B13D8E8
:10068C00DFE803F0031C68875200524B1B78524A78
:10069C00127893420BD04E4A022111704F4A00211E
:1006AC00117001334B4A13700BB05DF804FB484BCF
:1006BC0001221A70474B00221A70F5E700210191B4
:1006CC00474B009302AB02220A2002F0E3FEFF2804
:1006DC0005D00028E8D03E4B04221A70E4E7BDF8A0
:1006EC000820404B1A80BDF80A303F490B803F4927
:1006FC00A1F8FC303E4B9B899BB29A420AD93C4BE9
:10070C009A8164239BB2394AA2F80031304B0422FF
:10071C001A70DEE7642303FB02F3354A928992B226
:10072C00B3FBF2F3DBB2EDE7324B32225A6101221A
:10073C001A741B7F002BB7D02E4B00221A779A61AC
:10074C001A74264B1B781BB90022214B1A70ABE78D
:10075C000322FAE71F4B187800210191204B0093DC
:10076C0002AB022202F096FEFF2805D000289BD097
:10077C00174B04221A7097E7164B1B78BDF808101C
:10078C001D4A22F81310BDF80A101C4A22F8131047
:10079C00ECE70023ADF80830194B1B7813F0010F70
:1007AC0002D00123ADF808300A4B187800210191D2
:1007BC000B4B009302AB012202F01EFF00283FF40A
:1007CC0073AF064B00221A70014B04221A706BE7B0
:1007DC00700100206D0100205C0400206C010020E1
:1007EC00640400207E0600206004002080060020A7
:1007FC00B8010020CC010020640600203403002046
:10080C00B001002010B5414B1B78A22B04D0AC2BAF
:10081C006ED0A12B39D010BD3D4B1B7813F0010FBE
:10082C0018D03C4B40225A613B494FF480604861E0
:10083C005A613A4AB2F8FA309BB223F002039BB2E7
:10084C00A2F8FA30324A137803F0FE0343F0400367
:10085C001370E0E72F4B40221A612F494FF4806050
:10086C0008611A612D4AB2F8FA3043F00203A2F87B
:10087C00FA30274A137843F041031370284A13883F
:10088C0001331380FFF790FDC5E7214B1B7813F064
:10089C00020F18D0204B4FF480525A614FF4006174
:1008AC0059615A611D4AB2F8FA309BB223F0010328
:1008BC009BB2A2F8FA30164A137803F0FD0343F00A
:1008CC0040031370A7E7144B4FF480521A614FF496
:1008DC00006119611A61114AB2F8FA3043F0010350
:1008EC00A2F8FA300A4A137843F04203137092E7E5
:1008FC000C4C0123237001F0AFFB054A137843F035
:10090C00800313700023237085E700BF5E04002072
:10091C00B001002000100140000C014080060020B6
:10092C00500300206F010020804B93F84C3003B92A
:10093C00704710B57D4B002283F84C209A6483F8E5
:10094C00402083F84C209A64794C012384F80131BF
:10095C00784B5B68DB4384F8FF30774B1A78774928
:10096C00204602F005FF94F80001002800F0A0805A
:10097C00023002F05DFB6E4B002283F80121704BBC
:10098C005A8892B26D4B1B889BB29A4204D06B4B27
:10099C001B889BB26A4A5380684B5B889BB233B10D
:1009AC00664A53889BB266498B8000235380634B05
:1009BC001B899BB233B1614A13899BB26049CB80CE
:1009CC00002313815D4B5B899BB233B15B4A538926
:1009DC009BB25B490B8100235381584B9B899BB283
:1009EC0033B1564A93899BB255494B81002393816D
:1009FC00524BDB899BB233B1504AD3899BB25049DD
:100A0C008B810023D3814D4BB3F8F8319BB24FF659
:100A1C00FF7293421ED0494BB3F8F8319BB2002BB6
:100A2C0049D1484B4FF400625A614FF480525A61DD
:100A3C00424AB2F8FA309BB223F001039BB2A2F8FF
:100A4C00FA30414B19786FF3410119704FF6FF736F
:100A5C00A2F8F831394BB3F8FA319BB24FF6FF726A
:100A6C00934261D0354BB3F8FA319BB2002B41D095
:100A7C00324BB3F8FA319BB2B3F57F4F54D1314BB3
:100A8C004FF480621A6103F5806340221A612B4B8C
:100A9C00B3F8FA2042F00202A3F8FA202A490A78A5
:100AAC0042F001020A704FF6FF72A3F8FA213BE004
:100ABC0002F0EAFA5FE7214BB3F8F8319BB2B3F5D9
:100ACC007F4FC7D11F4B4FF400621A614FF4805215
:100ADC001A611A4BB3F8FA2042F00102A3F8FA207B
:100AEC0019490A7842F002020A704FF6FF72A3F815
:100AFC00F821AFE7134B4FF480625A6103F5806322
:100B0C0040225A610D4AB2F8FA309BB223F002032C
:100B1C009BB2A2F8FA300C4B19786FF300011970E4
:100B2C004FF6FF73A2F8FA3110BD00BFCC010020C4
:100B3C005803002058000240610600208006002067
:100B4C00B8010020000C0140B001002010B50024B9
:100B5C00864B1C8001E00134E4B2854B1B78A34228
:100B6C0019D32046FFF7CCFB804A1388184380B278
:100B7C001080002CEFD1C043C0F309007D4BB3F8BB
:100B8C00082102F47C42A3F80821B3F80821104391
:100B9C00A3F80801DFE7784B1B7813F0010F00F086
:100BAC00E180724A1288002A7ED013F0080F07D118
:100BBC00724B80221A61704A137843F04803137009
:100BCC006F4B9B7C13F0010F5FD06D4B9A8992B2E7
:100BDC006C4B19888A4272D2694B998164236A4A98
:100BEC001370642B02D9134664221A70664B1A7860
:100BFC0091B2634B1B899BB299426AD25E4B1B78B4
:100C0C0013F0040F06D15C4A43F0440313705B4BA2
:100C1C0080221A615D4B1B785D4A13709BB2584A57
:100C2C00D28892B2934266D9534B1B7813F0100FB3
:100C3C0006D1514A43F010031370504B80221A61B5
:100C4C004E4B40225A6153494FF4806048615A61BF
:100C5C00484AB2F8FA309BB223F002039BB2A2F8D6
:100C6C00FA304FF480534B614FF4006048614B6194
:100C7C00B2F8FA309BB223F001039BB2A2F8FA301F
:100C8C003D4A137843F0400313703B4B1B78C3F37E
:100C9C00C002C3F380010A43C3F3001313435DD1B5
:100CAC00364B80225A6160E013F0080F88D0324A2C
:100CBC00137803F0F70343F04003137080E76423C9
:100CCC0003FB01F32E4A928992B2B3FBF2F3DBB22F
:100CDC0085E7294B1B7813F0040F9BD0284B1B89FD
:100CEC0005339A4296DD244A137803F0FB0343F054
:100CFC00400313708EE7204A127812F0100FC4D004
:100D0C001F4A128A92B29342BFD21B4A137803F045
:100D1C00EF0343F040031370184B402119611D4839
:100D2C004FF48064046119611249B1F8FA3043F050
:100D3C000203A1F8FA30137813F0020FA5D04FF488
:100D4C00805202614FF4006101610261094AB2F8FC
:100D5C00FA3043F00103A2F8FA3096E7074B8022F1
:100D6C001A6102E0054B80225A6110BDB2010020CD
:100D7C005C04002080060020B0010020001001401F
:100D8C00B80100207E0600205D04002060040020D5
:100D9C005C060020000C014008B5194B1B7813F0C1
:100DAC00C00F22D0174B9B7C13F0010F14D0164BA5
:100DBC001A78164B1A70134B9A8992B2144B1988E5
:100DCC008A4213D20F4B99816423124A1370642BFD
:100DDC0002D9134664221A7000F0E6FF084A137811
:100DEC0003F07F036FF38613137008BD642303FBBA
:100DFC0001F3044A928992B2B3FBF2F3DBB2E4E75B
:100E0C00B0010020B8010020600400205C06002026
:100E1C007E0600205D04002010B53C4CA2883C4BA3
:100E2C001A70608801F09CFFA37813F0380F08D07B
:100E3C00A378C3F3C203012B2FD023469B78022245
:100E4C0000E00422334B5A64334A0423A2F8F230F4
:100E5C002E49088880B2A2F8F400488880B2A2F823
:100E6C00F6002B480078A2F8F800C88880B2A2F8E7
:100E7C00FE00088980B2A2F80201488980B2A2F86B
:100E8C000401898989B2A2F80611B2F8F81089B266
:100E9C0051800121A2F8FE110AE00322D2E703F1EE
:100EAC00FC011D4A02EB4102012191800B44DBB293
:100EBC00782BF4D9184B3F22A3F8EE22FF22A3F88B
:100ECC00F0226422A3F8F622A3F8F8227022A3F8E9
:100EDC00FA2240F6FF72A3F8FC22002308E003F18B
:100EEC00FC010D4A4FF6FF7022F811000133DBB202
:100EFC00012BF4D9094CFF21204602F007F82046BB
:100F0C0001F0CAFF02F0C0F810BD00BFB80100200C
:100F1C0061060020CC010020800600205803002030
:100F2C002DE9F04383B002F0A9FF9B4A136843F00C
:100F3C0010031360022003F057FA984A136843F425
:100F4C0080331360954B1B6813F4003FFAD0944B1D
:100F5C001A786FF307121A705A78042161F302029F
:100F6C005A709A78072161F385029A709A7842F048
:100F7C0001029A70894A136843F080731360874B9F
:100F8C001B6813F0007FFAD0854A1378022161F3B5
:100F9C0001031370DFF844820023A8F8003001F03D
:100FAC0041FE01F0B3FD01F07BFE7E4C4FF0800959
:100FBC00C4F810907C4D4FF480572F614026266169
:100FCC004FF480636B616661784AB2F8FA309BB279
:100FDC0023F002039BB2A2F8FA304FF400636B616A
:100FEC006F61B2F8FA309BB223F001039BB2A2F806
:100FFC00FA3002F065F902F0DBF902F028FA98F801
:10100C00003043EA090388F80030C4F814906F618B
:10101C006661674802F09CFD60BB654B00221A803C
:10102C0001219980997862F300019970997862F3A3
:10103C0041019970598862F382015980997862F361
:10104C00C50199703721D980282119810521598131
:10105C004FF440719981DA8114221A829A7C42F001
:10106C0001029A749A7C42F002029A749A7C42F0C1
:10107C0004029A744E4B5B899BB24E4AA2FB03232B
:10108C00DB084D4A137001F073FFFFF715FAFFF7F9
:10109C00C3FE4A4B4FF400425A614FF480725A61BE
:1010AC0001F0F2FF464B474A5A609A6006211960DC
:1010BC001A6842F001021A60434B5962C8225A6303
:1010CC00012283F8302062B60AE01C461846FFF76E
:1010DC009BFA002384F8003109E03C4B1B78F3B9F0
:1010EC00FFF7C8FA3A4B93F800110029EDD101F043
:1010FC0089FCFFF787FBFFF717FC334B93F83C3069
:10110C00002BEAD0304B002283F83C209A63FFF787
:10111C001DFDFFF741FE264802F062FDDDE70024CD
:10112C002A4B1C7024E0BDF806009DF8051001390F
:10113C00284A52F8212002EA5002ADF80620013369
:10114C00DBB29DF80520D2B29A420FD9BDF8062029
:10115C0012F0010FE7D104EB84014A001A441E4837
:10116C0030F81210013120F81210DCE70134E4B22F
:10117C00114B1B78A3420BD32046FFF7C1F8ADF8F7
:10118C0006002046FFF7E6F88DF805000023D8E7A7
:10119C00FFF70AF9A4E700BF00200240001002404C
:1011AC000410024000100140000C01408006002099
:1011BC00B8010020CDCCCCCC5C0400200008014050
:1011CC0010E000E03F190100CC0100206206002075
:1011DC0064040020F04C000868050020B0010020D9
:1011EC00094B1A786FF382021A701A786FF3C302E4
:1011FC001A701A786FF304121A701A786FF345127A
:10120C001A700520704700BFB00100204FF44073E6
:10121C00034A9381034AA2F806310320704700BFAA
:10122C00B80100208006002010B588B02E4B079323
:10123C002E4A13786FF34513137002F008F902F07D
:10124C0006F90021084602F0E7F8294B9B7C294C53
:10125C0003F001032278284901A803F017F901A82B
:10126C0002F00EF90121002002F0D6F8234B0022E7
:10127C001A702378002B34D1214B00221A70204B8A
:10128C001B78DBB20A2B05D801F0BCFB1D4B1B787D
:10129C00AC2BF4D1052008B010BD079B9BB1174BAC
:1012AC0000221A700134E4B2124B1B78A342E3D330
:1012BC00124B1B78002BF0D1079B013B0793079B2C
:1012CC00002BF5D1E9E722460F4901A803F0DEF81F
:1012DC0001A802F0D5F8054A137843F020031370E7
:1012EC00DDE70124E0E700BFFFFF0100B0010020B3
:1012FC00B80100205C040020384D00086E0100206D
:10130C00B40100205E040020504D000830B587B0B9
:10131C002B4D6C89A4B22B4BA3FB0434C4F3C70430
:10132C0002F095F802F093F80021084602F074F8E8
:10133C00254802F0A5F80121002002F06DF86A8919
:10134C002249684603F0A2F8684602F099F8224652
:10135C001F49684603F09AF80221002002F05CF85D
:10136C00684602F08DF80321002002F055F8AB7CA2
:10137C0013F0010F07D0174802F082F8164B002229
:10138C001A70012409E0154802F07AF8F6E701F02A
:10139C0039FB134B1B78AC2B0FD00F4B1B78DBB2EC
:1013AC000A2B0AD814F0020F01D004F0FD0414F03B
:1013BC00010FECD004F0FE04E9E7032007B030BDC8
:1013CC00B8010020CDCCCCCC284E0008404E0008F3
:1013DC00504E0008644E0008B4010020784E0008FE
:1013EC005E04002010B586B002F031F802F02FF840
:1013FC000021084602F010F8524C228852496846E7
:10140C0003F044F8684602F03BF80121002002F09A
:10141C0003F862884D49684603F038F8684602F0D4
:10142C002FF80221002001F0F7FFA28848496846F6
:10143C0003F02CF8684602F023F80321002001F099
:10144C00EBFFE2884349684603F020F8684602F057
:10145C0017F8414B00221A7007243F4B1B78DBB264
:10146C000A2B6CD814F0020F04D03B4B00221A70DC
:10147C0004F0FD0401F0C6FA384B1B78943B282B82
:10148C00EBD801A252F823F03915000867140008B4
:10149C0067140008671400083F150008671400085B
:1014AC006714000867140008671400086714000824
:1014BC006714000867140008671400086714000814
:1014CC006714000867140008671400086714000804
:1014DC0067140008671400086714000867140008F4
:1014EC0067140008671400084B15000867140008FF
:1014FC0067140008671400086714000867140008D4
:10150C0067140008671400086714000867140008C3
:10151C0067140008671400086714000867140008B3
:10152C0067140008671400084515000844F002040D
:10153C0093E744F0020490E744F002048DE70420A2
:10154C0006B010BD50030020644F0008744F000813
:10155C00884F00089C4F0008B40100205E04002056
:10156C002DE9F04186B001F072FF01F070FF00210F
:10157C00084601F051FF334801F082FF01210020A1
:10158C0001F04AFF0025304B1D704FF007084AE070
:10159C0007EB87035A00013222442C49684602F0BB
:1015AC0075FF684601F06CFF0135EDB2072D1CD0BC
:1015BC000E2D1FD0C6F34F060134E4B2092C1ED8F1
:1015CC0016F0010FF2D0142DF0D8062DE0D00D2D11
:1015DC00DED0142DDCD007EB87035A0001322244F5
:1015EC001B49684602F052FFDBE70221002001F0A4
:1015FC0013FFDDE70321002001F00EFFDAE70137CE
:10160C00FFB2144B1B78BB4205D33846FEF778FE6D
:10161C0006460024D2E708F0FD0801F0F3F90E4B62
:10162C001B78AC2B09D0084B1B78DBB20A2B04D8E7
:10163C0018F0020FF1D00027E3E7052006B0BDE853
:10164C00F08100BF184D0008B4010020284D00089F
:10165C00304D00085C0400205E0400202DE9F043AE
:10166C0087B000238DF81730B44B5E89F6B20A2E82
:10167C0000D9002601F0EBFE01F0E9FE002108463E
:10168C0001F0CAFEAE4801F0FBFE0121002001F082
:10169C00C3FEAC4C204601F0F3FE0221002001F009
:1016AC00BBFE204601F0ECFE0321002001F0B4FE4D
:1016BC00204601F0E5FE0024A34B1C700725A24B2D
:1016CC001B78DBB20A2B00F2358115F0020F5BD1CF
:1016DC0001F098F99D4B1B78943B282BEFD801A275
:1016EC0052F823F0AF180008CB160008CB160008F0
:1016FC00CB160008DF180008CB160008CB16000824
:10170C00CB160008CB160008CB160008CB16000829
:10171C00CB160008CB160008CB160008CB16000819
:10172C00CB160008CB160008CB160008CB16000809
:10173C00CB160008CB160008CB160008CB160008F9
:10174C00CB16000841190008CB160008CB16000870
:10175C00CB160008CB160008CB160008CB160008D9
:10176C00CB160008CB160008CB160008CB160008C9
:10177C00CB160008CB160008CB160008CB160008B9
:10178C00CB160008171900089DF81700FEF7E2FDAC
:10179C00064600210F2001F03FFE9DF817206C49F2
:1017AC00684602F073FE684601F06AFE01210020D3
:1017BC0001F032FE9DF8173003EB83035A00A0466C
:1017CC0022449DF8173003EB830359002144614BED
:1017DC0033F8113001326049684602F057FE684612
:1017EC0001F04EFE0221002001F016FE631CB146F2
:1017FC00B34229DB6F46DFF868C1BCE80F000FC7A6
:10180C009CE8030047F8040B3970684601F038FE79
:10181C000321002001F000FE08F10203994529DCA8
:10182C006F46DFF83CC1BCE80F000FC79CE8030013
:10183C0047F8040B3970684601F022FE05F0FD05EF
:10184C00414B00221A7043E79DF8173003EB8303DA
:10185C005A0022449DF8171001EB81014B002344E0
:10186C0001333C4931F8133002323B49684602F0EF
:10187C000DFECAE79DF8173003EB83035A00424470
:10188C009DF8173003EB83035900884408F10208D4
:10189C00304B33F8183003322F49684602F0F6FD0E
:1018AC00C9E724B1013CE4B245F0020507E79DF815
:1018BC001730002BF8D09DF81730013BDBB28DF8B8
:1018CC0017309DF81700FEF745FD0646C41EE4B21E
:1018DC00EAE7F31E9C4204DA0134E4B245F0020557
:1018EC00EDE69DF81730DBB21C4A12789342F5D224
:1018FC009DF817300133DBB28DF817309DF81700C7
:10190C00FEF728FD06460024E8E79DF81730DBB209
:10191C00124A1278934209D29DF817300133DBB288
:10192C008DF8173045F002050024C8E600238DF829
:10193C001730F7E7022007B0BDE8F083B8010020AC
:10194C00EC4F0008FC4F0008B40100205E0400209E
:10195C0004500008680500200C5000085C040020AE
:10196C002050000808B5002305E00A4A002122F89F
:10197C0013100133DBB299B2074A528992B29142E9
:10198C00F3D3064A538801339BB25380FEF70CFD08
:10199C00062008BD68050020B80100205003002077
:1019AC0070B586B06D4B5E89F6B201F050FD01F05A
:1019BC004EFD0021084601F02FFD694801F060FD45
:1019CC000121002001F028FD664801F059FD02219B
:1019DC00002001F021FD644801F052FD032100209C
:1019EC0001F01AFD614801F04BFD614B00221A70A9
:1019FC00012402255E4B1B78DBB20A2B00F2AA8075
:101A0C0015F0020F5CD100F0FDFF5A4B1B78943B94
:101A1C00282BEFD801A252F823F000BFF11A0008CE
:101A2C00011A0008011A0008011A00081B1B000803
:101A3C00011A0008011A0008011A0008011A00080E
:101A4C00011A0008011A0008011A0008011A0008FE
:101A5C00011A0008011A0008011A0008031B0008EB
:101A6C00011A0008011A0008011A00082D1B0008B1
:101A7C00011A0008011A0008011A0008611B00086D
:101A8C00011A0008011A0008011A0008011A0008BE
:101A9C00011A0008011A0008011A0008011A0008AE
:101AAC00011A0008011A0008011A0008011A00089E
:101ABC00011A0008011A0008011A0008491B000845
:101ACC000121092001F0A8FC22462B49684602F0AE
:101ADC00DDFC684601F0D4FC254B00221A7005F0A1
:101AEC00FD0590E7012C04D9013CE4B245F0020558
:101AFC0080E70124FAE70A2C04D90A3CE4B245F049
:101B0C00020577E7012CFAD9013CE4B2F7E7B442BD
:101B1C0004D20134E4B245F002056BE73446FAE72F
:101B2C00A6F10A039C4204DA0A34E4B245F0020539
:101B3C0060E7B442FAD20134E4B2F7E7013C0F4B50
:101B4C00002223F814200E4A938801339BB2938011
:101B5C00FEF72AFC062006B070BD00BFB8010020BD
:101B6C0098500008A8500008B4500008C85000084D
:101B7C00B40100205E040020284D000868050020F8
:101B8C005003002070B588B0054600248DF81F4026
:101B9C00ADF81C400123ADF81A308DF81E4001F051
:101BAC0056FC01F054FC2146204601F035FC794BE3
:101BBC0001AE0FCB07C6337001A801F061FC764B68
:101BCC001C700724744B1B78DBB20A2B00F2DA80F2
:101BDC0014F0020F5CD100F015FF704B1B78943B96
:101BEC00282BEFD801A252F823F000BFCD1C00081F
:101BFC00D11B0008D11B0008D11B0008E91C0008F0
:101C0C00D11B0008D11B0008D11B0008D11B0008F8
:101C1C00D11B0008D11B0008D11B0008D11B0008E8
:101C2C00D11B0008D11B0008D11B0008D11B0008D8
:101C3C00D11B0008D11B0008D11B0008D11B0008C8
:101C4C00D11B0008D11B0008D11B0008911D0008F6
:101C5C00D11B0008D11B0008D11B0008D11B0008A8
:101C6C00D11B0008D11B0008D11B0008D11B000898
:101C7C00D11B0008D11B0008D11B0008D11B000888
:101C8C00D11B0008D11B0008D11B0008011D000846
:101C9C000020414B1870012101F0BEFBBDF81C3037
:101CAC00BDF81A209DF81F1001FB02323C4901A817
:101CBC0002F0ECFB01A801F0E3FB04F0FD048AE761
:101CCC009DF81F30DBB2082B05D89DF81F3001336F
:101CDC00DBB28DF81F3044F0020473E79DF81F301F
:101CEC002BB19DF81F30013BDBB28DF81F3044F057
:101CFC00020467E79DF81F10BDF81A30BDF81C20D0
:101D0C0001FB03239BB2ADF81C30BDF81A3003EB7A
:101D1C0083035A0092B2ADF81A209DF81E3001339D
:101D2C00DBB28DF81E3000238DF81F309DF81E306D
:101D3C00DBB2042B02D044F0020443E7BDF81C30A4
:101D4C009BB240F2574293420FD0BDF81C309BB26D
:101D5C00D02B1AD000238DF81E30ADF81C30012288
:101D6C00ADF81A208DF81F30E5E7042DEDD10D4BA1
:101D7C00002119805980DA88013292B2DA80998078
:101D8C00FEF712FB284608B070BD032DE2D10825E2
:101D9C00F8E700BFB04F0008B40100205E0400203B
:101DAC00C04F00085003002010B586B0954B1B782F
:101DBC00DB0957D1934B1B7813F0080F74D1914B5F
:101DCC001B7813F0080F76D00221072001F024FBBA
:101DDC0001A801F055FB8B4B1B7813F0040F71D14C
:101DEC00884B1B7813F0040F6FD001A801F048FB4F
:101DFC00844B1B7813F0100F6AD1824B1B7813F0B5
:101E0C00100F6CD001A801F03BFB7F4B9B7C13F0B7
:101E1C00010F6BD17B4B1B7813F0010F40F0CF807F
:101E2C00784B1B7813F0010F00F0D38003210520B1
:101E3C0001F0F2FA01A801F023FB724B1B7813F0AE
:101E4C00020F40F0D0806F4B1B7813F0020F00F0A4
:101E5C00D18003210D2001F0DFFA01A801F010FB65
:101E6C0006B010BD01F0F3FA0021052001F0D4FA00
:101E7C00654CE3899BB2654A52F8230001F000FBE4
:101E8C000121002001F0C8FA6289614901A802F021
:101E9C00FDFA01A801F0F4FA0221002001F0BCFACD
:101EAC005C4801F0EDFA85E75B4B93E80300019089
:101EBC00ADF8081083E7594B93E803000190ADF897
:101ECC00081081E7564B01938AE7564B01938CE738
:101EDC00554B93E803000190ADF808108DE74F4B7C
:101EEC0093E803000190ADF808108BE70321002064
:101EFC0001F092FA444B9B7C13F0020F16D1424B2B
:101F0C009B7C13F0040F26D13E4B1B7813F0010F72
:101F1C0041D13C4B1B7813F0010F46D00321052017
:101F2C0001F07AFA01A801F0ABFA86E70321002050
:101F3C0001F072FA3D4B1A78092A07D83C4901A8DE
:101F4C0002F0A4FA01A801F09BFAD8E7394901A8DC
:101F5C0002F09CFAF6E70321052001F05DFA364BFE
:101F6C001A78092A09D9354BB3F8FA30632A0AD9F9
:101F7C00334901A802F08AFA09E00022314901A88C
:101F8C0002F084FA03E02E4901A802F07FFA01A8BE
:101F9C0001F076FA51E72C4B93E803000190ADF871
:101FAC000810090C8DF80A10B3E7284B93E80300CE
:101FBC000190ADF80810090C8DF80A10AEE7224B11
:101FCC0093E803000190ADF80810090C8DF80A1085
:101FDC0026E71E4B93E803000190ADF80810090C9E
:101FEC008DF80A1022E701AB194A92E8030083E846
:101FFC00030028E701AB174A92E8030083E80300CB
:10200C0027E700BFB0010020B801002054000020D9
:10201C00C84E0008D44E0008DC4E0008E44E000800
:10202C0020D3D40020202000EC4E00085C060020B9
:10203C00F44E0008FC4E00085D04002080060020D1
:10204C00104F0008044F00081C4F0008244F0008D4
:10205C002C4F0008344F00082DE9F04182B00024C9
:10206C008DF8054001F0F3F9904B1C700725012603
:10207C0046E001F0ECF90027032F1DD88C4B53F8E8
:10208C00262004EB44034FEA830852F808308BB146
:10209C008DF806403946002001F0BEF9844B53F808
:1020AC0026300134E4B253F8080001F0E9F90137A5
:1020BC00FFB2E1E7013CE4B205F0FD0529E09DF833
:1020CC000710132001F0A8F97A4801F0D9F99DF80E
:1020DC000510132001F0A0F9774801F0D1F905F0B3
:1020EC00FE05724B00221A7016E09DF805302BB1DC
:1020FC009DF80530013BDBB28DF8053045F001054C
:10210C006A4B1B78DBB20A2B00F2CD8015F0020F64
:10211C00AFD115F0010FD2D100F074FC9DF8053051
:10212C00DBB28DF80730654B1B78943B282BE7D836
:10213C0001A252F823F000BFF72000080D2100087F
:10214C000D2100080D210008E92100080D210008CF
:10215C000D2100080D2100080B2200080D2100089C
:10216C000D2100080D2100080D2100080D2100088B
:10217C000D2100080D2100080D2100080D2100087B
:10218C000D2100080D2100080D2100080D2100086B
:10219C000D2100080D2100087D2200080D210008EA
:1021AC000D2100080D2100080D2100080D2100084B
:1021BC000D2100080D2100080D2100080D2100083B
:1021CC000D2100080D2100080D2100080D2100082B
:1021DC000D2100080D210008112200089DF8052092
:1021EC00D2B29DF80630DBB29A4205D29DF805308A
:1021FC000133DBB28DF8053045F0010580E705F0C1
:10220C00FB057DE715F0040F2FD1294B53F8261051
:10221C009DF8053003EB43039A000A4413795BB134
:10222C009DF8053003EB43039A0011440E7900240A
:10223C008DF80540032563E79DF8053003EB430358
:10224C009A000A449368002B3FF45AAF9DF805306E
:10225C0003EB43039A0011448B68304698470646BB
:10226C0000248DF8054007254AE705F0FB0547E7F4
:10227C0015F0040F7FF444AF0D4B53F826109DF866
:10228C00053003EB43039A000A4453795BB19DF884
:10229C00053003EB43039A0011444E7900248DF86A
:1022AC00054007252CE702B0BDE8F081B401002001
:1022BC0028000020E84E00083C4F00085E04002077
:1022CC002DE9F04389B081460E4690461F46109D7D
:1022DC000B88DBB28DF807300221002001F09CF84E
:1022EC00724801F0CDF80321002001F095F87048F8
:1022FC0001F0C6F86F4B00221A7007246D4B1B7847
:10230C00DBB20A2B00F2CE8014F0020F5CD100F08D
:10231C0079FB694B1B78943B282BEFD801A252F820
:10232C0023F000BF0B240008092300080923000830
:10233C00092300085B24000809230008092300086E
:10234C0009230008092300080923000809230008B1
:10235C0009230008092300080923000809230008A1
:10236C000923000825240008092300080923000874
:10237C000923000875240008092300080923000814
:10238C0009230008B12400080923000809230008C8
:10239C000923000809230008092300080923000861
:1023AC000923000809230008092300080923000851
:1023BC000923000809230008092300080923000841
:1023CC0009230008AB24000800203A4B18700121A7
:1023DC0001F022F82B6843B19DF8073055F8230023
:1023EC0001F04EF804F0FD0491E79DF80720334905
:1023FC0002A802F04BF802A801F042F8F2E79DF8AF
:10240C000730BB4205D29DF807300133DBB28DF8A3
:10241C00073044F0020471E79DF80730DBB2A7F1F6
:10242C000902934208DA9DF807300A33DBB28DF8C3
:10243C00073044F0020461E79DF80730BB42F8D244
:10244C009DF807300133DBB28DF80730F1E79DF8CA
:10245C000730434505D99DF80730013BDBB28DF8B9
:10246C00073044F0020449E79DF80730DBB208F16D
:10247C000A02934208DD9DF807300A3BDBB28DF867
:10248C00073044F0020439E79DF807304345F8D98A
:10249C009DF80730013BDBB28DF80730F1E79DF872
:1024AC0007303380484609B0BDE8F0831851000866
:1024BC00C8500008B40100205E040020C04F000882
:1024CC0030B589B0054600F0C2FF00F0C0FF002116
:1024DC00084600F0A1FF02AB0B4A07CA83E80700CD
:1024EC00184600F0CDFF094C094B009363230022E2
:1024FC0021462846FFF7E4FE083C23899BB2054A97
:10250C00A2F8023109B030BDEC510008C001002026
:10251C00740100208006002070B588B0064600F0DB
:10252C0096FF00F094FF0021084600F075FF02AC06
:10253C000C4D0FCD0FC42B68237002A800F0A0FF28
:10254C00094C0A4B00937023012221463046FFF7B9
:10255C00B7FE0A3C63899BB2054AA2F8043108B065
:10256C0070BD00BF50510008C20100207401002052
:10257C008006002010B582B0044600F068FF00F021
:10258C0066FF0021084600F047FF064800F078FF80
:10259C00054B00931A23002204492046FFF790FEB6
:1025AC0002B010BD6451000854000020C601002088
:1025BC0030B583B0054600F04AFF00F048FF00211B
:1025CC00084600F029FF0A4800F05AFF094C0A4B54
:1025DC0000936323012221462846FFF771FE063C37
:1025EC00E3889BB2054AA2F8FE3003B030BD00BFB1
:1025FC00B4510008BE0100207401002080060020A8
:10260C0010B582B0044600F022FF00F020FF00213C
:10261C00084600F001FF064800F032FF054B00931E
:10262C006323012204492046FFF74AFE02B010BD85
:10263C00C851000874010020C801002030B585B0D5
:10264C00054600F004FF00F002FF0021084600F0F0
:10265C00E3FE144800F014FF134CA37C03F00103B9
:10266C0004A921F8023D114B0093012300222846B6
:10267C00FFF726FEBDF80E20003218BF0122A37C06
:10268C0062F30003A374A37C13F0010F07D1A27CA7
:10269C006FF34102A274A27C6FF38202A27405B0A4
:1026AC0030BD00BF7C510008B80100202000002084
:1026BC0030B585B0054600F0CAFE00F0C8FE00211A
:1026CC00084600F0A9FE124800F0DAFE114CA37C7B
:1026DC00C3F3400304A921F8023D0F4B00930123DF
:1026EC0000222846FFF7ECFDBDF80E20003218BF83
:1026FC000122A37C62F34103A374A37C13F0020FA9
:10270C0003D0A37C43F00103A37405B030BD00BF1C
:10271C00A0510008B80100202000002030B585B081
:10272C00054600F094FE00F092FE0021084600F0F1
:10273C0073FE124800F0A4FE114CA37CC3F380037B
:10274C0004A921F8023D0F4B0093012300222846D7
:10275C00FFF7B6FDBDF80E20003218BF0122A37C96
:10276C0062F38203A374A37C13F0040F03D0A37C45
:10277C0043F00103A37405B030BD00BFE051000865
:10278C00B80100202000002030B585B0054600F0CF
:10279C005EFE00F05CFE0021084600F03DFE0B489A
:1027AC0000F06EFE0A4CA38804A921F8023D094BE7
:1027BC000093FF2301222846FFF782FDBDF80E305F
:1027CC00A380054AA2F8F83005B030BD2C510008A2
:1027DC00B8010020740100208006002030B585B0BF
:1027EC00054600F034FE00F032FE0021084600F0F1
:1027FC0013FE144800F044FE134CA378C3F3C20339
:10280C0004A921F8023D114B00930723002228460E
:10281C00FFF756FDBDF80E10A27861F3C502A27049
:10282C000B4AB2F8F6309BB223F038039BB2A2F8F5
:10283C00F630B2F8F63043EA81039BB2A2F8F630D8
:10284C0005B030BD3C510008B8010020000000204C
:10285C008006002030B585B0054600F0F8FD00F08C
:10286C00F6FD0021084600F0D7FD154800F008FEE3
:10287C00144CA37803F0010304A921F8023D124B78
:10288C000093012300222846FFF71AFDBDF80E1015
:10289C000A1C18BF0122A37862F30003A3700B4A31
:1028AC00B2F8F6309BB223F001039BB2A2F8F630DB
:1028BC00B2F8F6301943A2F8F61005B030BD00BFDF
:1028CC006C510008B8010020200000208006002078
:1028DC0030B585B0054600F0BAFD00F0B8FD00211A
:1028EC00084600F099FD164800F0CAFD154CA37877
:1028FC00C3F3400304A921F8023D134B00930123B9
:10290C0000222846FFF7DCFCBDF80E100B1C18BF8C
:10291C000123A27863F34102A2700C4AB2F8F6309C
:10292C009BB223F002039BB2A2F8F630B2F8F63059
:10293C0043EA41039BB2A2F8F63005B030BD00BFAC
:10294C006C510008B8010020C00000208006002057
:10295C0030B585B0054600F07AFD00F078FD002119
:10296C00084600F059FD164800F08AFD154C6388A6
:10297C00C3F38003013304A921F8023D124B0093E9
:10298C00022301222846FFF79BFCBDF80E104A1EBD
:10299C00638862F3820363800C4AB2F8F6309BB210
:1029AC0023F004039BB2A2F8F630B2F8F6300139EA
:1029BC0043EA81039BB2A2F8F63005B030BD00BFEC
:1029CC008C510008B8010020740100208006002002
:1029DC0010B50446FFF7D8FE2046FFF7FFFE204651
:1029EC00FFF738FF064B9B7813F0010F04D12046FC
:1029FC00FFF7AEFF204610BD2046FFF769FFF6E754
:102A0C00B80100203D4B187800F07F00187010E0E2
:102A1C0001339BB240F6FE729342F9D9384A93685F
:102A2C0003F003039268920902F00C0213439942DB
:102A3C000AD0334B996801F003019B689B0903F0A2
:102A4C000C0319430023E5E700F07003102B19D099
:102A5C0009D9202B36D0302B0FD179B361F06F010F
:102A6C00264B197009E043B939B161F06F01234B62
:102A7C001970244B4FF47A721A80204B1A78224B1F
:102A8C001A70704779B100F00F008142F5D11D4BDF
:102A9C001B887BB960F05F00184B1870194B4FF412
:102AAC00FA621A80E9E700F00F0363F04F03134A50
:102ABC001370E2E7013B134A1380DEE70F4B002251
:102ACC001A70DAE751B100F00F008842D5D10D4BE6
:102ADC001B8853B1013B0B4A1380CEE700F00F0368
:102AEC0063F04F03054A1370C7E760F05F00034BB8
:102AFC001870044B4FF4FA621A80BEE7780100207C
:102B0C00000C01407A0100205E0400202DE9F04306
:102B1C0083B001213D2001F0CBFB01213C4801F0A9
:102B2C0019FBF023ADF8043010258DF80750012463
:102B3C008DF80640374F01A9384601F0BBFA08233F
:102B4C00ADF804308DF807508DF8064001A93846D1
:102B5C0001F0B0FA0426ADF804608DF807508DF83A
:102B6C0006400DEB06012C4801F0A4FA4FF48053FB
:102B7C00ADF804308DF807508DF80640DFF8A080D2
:102B8C000DEB0601404601F095FA40F20333ADF827
:102B9C0004308DF807604FF002098DF806900DEBAC
:102BAC000601384601F086FA4FF4E053ADF80430D4
:102BBC008DF807508DF806400DEB0601384601F0F4
:102BCC0079FAC023ADF804308DF807508DF8064023
:102BDC000DEB0601404601F06DFAFF23ADF8043011
:102BEC008DF807608DF806900DEB06010B4801F08F
:102BFC0061FA3023ADF804308DF807608DF806903B
:102C0C000DEB0601404601F055FA03B0BDE8F08328
:102C1C0000023000000C014000140140000801408B
:102C2C000010014010B582B04FF4C06001F048F9BB
:102C3C0003238DF8043001248DF8054000238DF812
:102C4C0006308DF8074001A801F044F921464FF0F9
:102C5C00C05001F03BFB204601F0C0FB204601F0C8
:102C6C00B5FA612001F040FB0028FAD04FF4007057
:102C7C0001F0B2FA012001F0B7FA01F087FB01F084
:102C8C007DFB0121084601F049FB01F077FB49F679
:102C9C003F4001F063FB01F071FB02B010BD00007E
:102CAC0030B587B001214FF4802001F00FFB0121DA
:102CBC00264801F04FFA4FF40063ADF804300423BA
:102CCC008DF80730224D0DEB0301284601F0F2F987
:102CDC004FF48063ADF8043003248DF806401823BC
:102CEC008DF8073001A9284601F0E4F94FF40043B0
:102CFC00ADF804308DF8064010238DF8073001A98B
:102D0C00144801F0D7F94FF4165302930023ADF891
:102D1C000C30ADF80E30ADF81030ADF814300C238B
:102D2C00ADF812300C4C02A9204601F005F90B4B02
:102D3C0080225A60012240F22551204601F06DF9A3
:102D4C000121204601F05CF907B030BD10001400E1
:102D5C0000100140000801400048004000E100E084
:102D6C004A4B9A6942F004029A619A6942F0010254
:102D7C009A619A6942F480429A61A3F584335A6845
:102D8C0022F0F0025A605A6842F0B0025A605A6857
:102D9C0022F470625A605A6842F480625A60C0B27F
:102DAC0010F0010F0DD03A4A938943F4806393815C
:102DBC0010F0020F25D093899BB223F400739BB2C1
:102DCC009381334A138A9BB223F440539BB21382F0
:102DDC0010F0040F03D0138A43F40053138210F045
:102DEC00380017D0082842D0102843D0182844D0D7
:102DFC00202845D0282846D0302808D040F271220F
:102E0C000AE0234A938943F400739381D9E740F293
:102E1C00A93201E041F64C521D4B1A819A8992B2AB
:102E2C0022F4805292B29A819A8942F400529A8189
:102E3C009A8942F008029A819A8942F004029A8196
:102E4C009A8942F010029A81124B402283F8252372
:102E5C0020225A6003F1C04303F51C535A6822F038
:102E6C000F025A605A6842F003025A60704741F2EE
:102E7C008832D1E740F6A662CEE740F6C412CBE723
:102E8C0040F25372C8E740F2E242C5E7001002403C
:102E9C000038014000E100E0194A938A43F08003B6
:102EAC00938202F55842536943F001035361154B69
:102EBC00A2F55742FC3A9A60D86000221A601A6850
:102ECC0022F020021A601A6842F010021A601A6886
:102EDC0022F440721A601A6822F040021A601A68D2
:102EEC0022F440621A601A6842F080021A601A6872
:102EFC0042F002021A60044B4FF480421A60704791
:102F0C00003801404400024000E100E0164A938A78
:102F1C0043F04003938202F55842536943F0010396
:102F2C005361124BA2F55742FC3A9A60D860596033
:102F3C0000221A601A6822F010021A601A6822F431
:102F4C0040721A601A6822F040021A601A6822F461
:102F5C0040621A601A6842F080021A601A6842F0E5
:102F6C0020021A60704700BF003801405800024030
:102F7C0030B583B001214FF4804001F0A7F94FF434
:102F8C006043ADF8043003238DF8063018238DF818
:102F9C00073001A9234801F08DF84FF40065ADF816
:102FAC00045010238DF8073001238DF806301E4C89
:102FBC0001A9204601F07EF825611C4B1A8842F0CD
:102FCC0010021A801A8892B222F0020292B21A806F
:102FDC001A8892B222F0010292B21A801A8892B226
:102FEC0022F4006292B21A801A8892B222F0800205
:102FFC0092B21A801A8842F400721A801A8842F42B
:10300C0080721A809A8892B222F0040292B29A804C
:10301C001A8842F004021A801A8842F040021A8080
:10302C0003B030BD000C01400008014000380040E6
:10303C000B4B4FF480721A6100BF00BF03F578434D
:10304C0044331A6822F001021A60586005494A6834
:10305C0042F400524A601A6842F001021A6070474A
:10306C000008014000000240054A136823F00103E8
:10307C001360044B4FF480725A6100BF00BF70475D
:10308C004400024000080140084B1A6822F001027B
:10309C001A60FF225A6006494A6842F400324A60BC
:1030AC001A6842F001021A60704700BF58000240D3
:1030BC0000000240024A136823F0010313607047BA
:1030CC0058000240034B9881024B1B8913F0020FEE
:1030DC00FAD0704700380040044B1B8913F0010FE5
:1030EC00FAD0024B9889C0B2704700BF003800403C
:1030FC0010B582B00446194B4FF400625A6100BF00
:10310C0000BF00BF00BF00BF430903F008038DF8E8
:10311C0007309DF8070040F00300FFF7D3FFE0B243
:10312C00FFF7D0FFFFF7D8FF8DF807000020FFF75F
:10313C00C9FFFFF7D1FF8DF80700094B1B8913F06E
:10314C00800FFAD1FFF7C8FF8DF80700034B4FF43F
:10315C0000621A619DF8070002B010BD0008014022
:10316C000038004008B50C4B4FF400625A6100BFA8
:10317C0000BF00BF00BF00BF0620FFF7A3FF074B37
:10318C001B8913F0800FFAD1FFF7A6FF024B4FF407
:10319C0000621A6108BD00BF000801400038004001
:1031AC0008B50C4B4FF400625A6100BF00BF00BF62
:1031BC0000BF00BF0420FFF785FF074B1B8913F0EE
:1031CC00800FFAD1FFF788FF024B4FF400621A61AF
:1031DC0008BD00BF000801400038004000B583B0B6
:1031EC00114B4FF400625A6100BF00BF00BF00BF1B
:1031FC0000BF0520FFF766FF0020FFF763FFFFF716
:10320C006BFF0A4B1B8913F0800FFAD1FFF764FF99
:10321C008DF80700044B4FF400621A619DF807000B
:10322C0003B05DF804FB00BF00080140003800400B
:10323C0030B583B004460D46FFF7D0FF10F0010FF8
:10324C00FAD1FFF78FFFFFF7C9FF10F0010FFAD18A
:10325C00194B4FF400625A6100BF00BF00BF00BFA2
:10326C0000BF630903F008038DF807309DF80700D1
:10327C0040F00200FFF726FFE0B2FFF723FFFFF755
:10328C002BFF2846FFF71EFFFFF726FF0B4B1B8972
:10329C0013F0800FFAD1FFF71FFF8DF80700064BD4
:1032AC004FF400621A61FFF799FF10F0010FFAD189
:1032BC00002003B030BD00BF0008014000380040C2
:1032CC00064AD36943F00403D361054B41F63F72C0
:1032DC001A851A8842F008021A80704700100240C2
:1032EC0000080040094B988500229A8401221A801C
:1032FC00064B1B8A13F0010FFAD0044A138A9BB2B7
:10330C0023F001039BB21382704700BF00080040FA
:10331C0010B5114AD36823F00403D3600F4CE36853
:10332C0023F0F0030001C0B20343E360E36823F031
:10333C000803E3600520FFF7D5FFE36843F00803BB
:10334C00E3600520FFF7CEFFE36823F00803E3609A
:10335C000520FFF7C7FF10BD00140140000C014011
:10336C0010B504460120FFF7BDFF064AD36823F4CD
:10337C008053D3602009FFF7CBFF2046FFF7C8FF2F
:10338C0010BD00BF0010014010B504460120FFF72E
:10339C00A9FF064AD36843F48053D3602009FFF792
:1033AC00B7FF2046FFF7B4FF10BD00BF001001406F
:1033BC0008B5C820FFF796FF164AD36823F480534C
:1033CC00D3600320FFF7A4FF3220FFF78BFF03200D
:1033DC00FFF79EFF0A20FFF785FF0320FFF798FFFA
:1033EC000A20FFF77FFF0220FFF792FF0A20FFF76A
:1033FC0079FF2820FFF7B4FF0C20FFF7B1FF012065
:10340C00FFF7AEFF0620FFF7ABFF8020FFF7A8FF0A
:10341C0008BD00BF0010014008B5032915D8DFE82E
:10342C0001F002080C10C0B240F08000FFF798FFCA
:10343C0008BDC0B24030C0B2F6E7C0B21430C0B262
:10344C00F2E7C0B25430C0B2EEE7C0B2ECE708B558
:10345C000120FFF785FF0220FFF782FF08BD000067
:10346C00BF2803D94030C0B2014B185C704700BF75
:10347C005455000808B5FFF7F3FFFFF785FF08BDAB
:10348C0010B5044602E00134FFF7F4FF2078002861
:10349C00F9D110BD2DE9F84F82468946164698465B
:1034AC000A9C9DF82C700025514B1B78042BFBD8E3
:1034BC00DFE803F003284C657D0084F800A00323AB
:1034CC0063704FEA1923A37084F80390330A2371B5
:1034DC0066710621204600F01DFBA071000AE07108
:1034EC00082384F80031002384F8013184F8FF307C
:1034FC0040493A018B18C820586001238B543C4A30
:10350C001370D1E73B4B03EB07131B7B8BB994F880
:10351C00013163B1002384F80131354A0221117065
:10352C00344839014218435413739360BCE70020AC
:10353C0046E030483A01811800230B738B608354AA
:10354C000B738B602A4A1370FE2039E07500EDB2C4
:10355C000535EDB294F8FF30AB4202D06A1C9342B1
:10356C0006D1002384F8FF30214B03221A709BE70D
:10357C00002384F8FF301E4A1370FD2020E06B1EE0
:10358C00E35CA91E14F801B00BEB032B1FFA8BFBA9
:10359C00C9B2204600F0BEFA584503D1144B0422A0
:1035AC001A7081E7124B00221A70FD2008E0607837
:1035BC0010F0800F1AD00E4B00221A7000F0010090
:1035CC00BDE8F88F5A000332A15C9A1C14F8122043
:1035DC0002EB012228F813200133DBB29AB2B2427B
:1035EC00F0D3034B00221A70FF20E9E70023F5E724
:1035FC007C010020CC0100202DE9F84F8246894641
:10360C0017461D460A9C9DF82C804FF0000B564B1C
:10361C001B78042BFBD8DFE803F003466C7F970084
:10362C0084F800A0102363704FEA1923A37084F868
:10363C0003903B0A2371FEB266717600F6B2A67156
:10364C0000230CE05A0035F813100732090AA15474
:10365C0035F813101A1D04F812100133DBB29AB2AC
:10366C00BA42EFD306F1070B5FFA8BFB59462046A3
:10367C0000F050FA04F80B000BF10103000AE054BF
:10368C00093684F80061002384F8013184F8FF3096
:10369C0036494FEA08128B18C820586001238B5406
:1036AC00314A1370B3E74246304B03EB08131B7BD4
:1036BC0093B994F801316BB1002384F801312A4A93
:1036CC000221117029484FEA081142184354137310
:1036DC0093609CE7002040E02448120181180023ED
:1036EC000B738B6083540B738B601F4A1370FE201B
:1036FC0033E094F8FFB0BBF1080F06D1002384F837
:10370C00FF30194B03221A7081E7002384F8FF3035
:10371C00154A1370FD2020E00BF1FF33E35CABF195
:10372C000201665C06EB0326B6B2C9B2204600F075
:10373C00F1F9B04203D10C4B04221A7067E70A4B23
:10374C0000221A70FD2008E0607810F0800F06D07F
:10375C00054B00221A7000F00100BDE8F88F024BF7
:10376C0000221A70FF20F8E77D010020CC01002018
:10377C002DE9F043BFB004460F469146002398460E
:10378C001E461D466FE194F80131002B00F0A1811B
:10379C00012368E194F8FF30072B00F29C81002391
:1037AC0084F8013184F8FF300D235CE123784B451C
:1037BC0000F09381002B00F09281002384F80131FA
:1037CC0084F8FF300D234EE16378032B00F08981E0
:1037DC00102B00F08881052B00F0458107234FF05A
:1037EC00010840E1A278E57805EB0225ADB222791B
:1037FC00667906EB0226B6B2AA1992B2013A92B2D7
:10380C00617810290FD0032940F02D8194F8FF30F6
:10381C00083BDBB2012B1AD9002384F8013184F860
:10382C00FF300D231FE194F8FF1073000933994208
:10383C0006D0002384F8013184F8FF300D2312E107
:10384C00782A40F2528107234FF002080BE1822ABA
:10385C0040F24D8107234FF0020804E1A378E5788C
:10386C0045EA0325012D03D907234FF00208FAE09E
:10387C0094F8FF30083BDBB2012B40F23A81002375
:10388C0084F8013184F8FF300D23ECE06378102BC1
:10389C003AD0052B42D00723E5E0002101339BB23F
:1038AC009E4234D95A00D01D14F800E0181D14F8AB
:1038BC00100040EA0E200DF1F80E724422F8F40CC0
:1038CC000029EAD00EEB430232F8F41C89B2EA1854
:1038DC0002F1FC0007EB4000808881420ED30EEB16
:1038EC00430C3CF8F41C89B202F5BA7207EB4202A5
:1038FC00D288914204D92AB10021CFE70021CDE72B
:10390C000121CBE70121C9E701210023C8E70029E8
:10391C0040F0F18007234FF00308A4E0227963798B
:10392C0043EA0223ADF80230BDF802309BB2002B03
:10393C0000F0E380BDF802309BB2B3F57F4F00F08E
:10394C00DE8007234FF003088DE094F8FF10023956
:10395C00C9B2204600F0DEF8C2B2C0F3072094F8DA
:10396C00FF30991E615C914206D0002384F801312E
:10397C0084F8FF300D2376E0013BE35C8342F4D105
:10398C00B8F1000F40F0BD806378032B00F0BB80D2
:10399C00102B00F0BA80052B01D00D2363E00B2314
:1039AC0061E023782BB984F8013184F8FF300D23C2
:1039BC0059E0637863F07F03637084F8028003231B
:1039CC0084F800310C234EE023782BB984F80131B4
:1039DC0084F8FF300D2346E07300A37000230EE043
:1039EC00EA18783207EB4202508859000331000A7A
:1039FC00605451889A1C04F8121001339BB29E42F9
:103A0C00EED8A378033384F800310C232BE0E918AB
:103A1C003EAA02EB430232F8F42C92B227F81120A2
:103A2C0001339BB29E42F2D823783BB984F8013122
:103A3C0084F8FF300D2316E00023F3E7062384F807
:103A4C0000310C230FE0BDF802309BB205F1FC02F3
:103A5C0027F81230082384F80031002384F8013150
:103A6C0084F8FF300D230D2B51D00C2BFBD801A269
:103A7C0052F823F093370008A1370008B937000833
:103A8C00D5370008F1370008693800089938000864
:103A9C0057390008AF390008D5390008453A0008F5
:103AAC00533A0008B53A000894F80011204600F08B
:103ABC0031F894F80031E0545A1C000AA054023337
:103ACC0084F80031002384F8013184F8FF300D2391
:103ADC00C9E70D23C7E70223C5E70323C3E7032385
:103AEC00C1E70423BFE70423BDE70623BBE7072395
:103AFC00B9E70623B7E70723B5E70723B3E707239F
:103B0C00B1E70823AFE70923ADE70A23ABE73FB0E2
:103B1C00BDE8F08330B44FF6FF730DE05B08013263
:103B2C00072A07DC13F0010FF8D04AF2010181EAF1
:103B3C005303F4E7214628464A1ED4B221B1451C52
:103B4C00027853400022EBE7184630BC7047000067
:103B5C00002306E01F4A4FF6FF7122F813100133C1
:103B6C009BB2092BF6D91C4B1B68B3F1FF3F2ED02F
:103B7C0030B400231C46FF2B1CD89A0002F10062C3
:103B8C0002F5F842528892B2092A0CD8124931F83F
:103B9C00231089B20F4D25F81210944238BF1446E9
:103BAC0001339BB2E7E70D4A1380092C02D00020A9
:103BBC0030BC7047002306E0064A32F8132020F888
:103BCC00132001339BB2092BF6D90120F0E700201A
:103BDC00704700BF80010020007C00089401002089
:103BEC009D4B1B78062B00F21F81DFE813F00700BA
:103BFC00200067007A00A800E5000101974B1B88A4
:103C0C00974A32F8132092B230F813108A4205D03A
:103C1C00944B1980904B01221A70704701339BB260
:103C2C000A2B02D08D4A138070470023FAE78E4B83
:103C3C001B889BB2B3F5807F17D08B4B1B889BB234
:103C4C008A4A32F823309BB24FF6FF72934213D05C
:103C5C00854B1B889B0003F1006303F5F843844AF2
:103C6C0013607D4B03221A7070477F4B00221A8021
:103C7C00794B05221A7070477E4B1B6913F0800F2D
:103C8C0005D07C4B7C4A5A6002F188325A60794BE1
:103C9C0000221A611A6942F001021A61724B1B88E8
:103CAC009B0003F1006303F5F843714A13606D4AFE
:103CBC0012881A80684B02221A7070476D4BDB68B1
:103CCC0013F0200F00F0B0806A4BDA6842F020024B
:103CDC00DA601A6942F080021A615F4B03221A7093
:103CEC007047614B1B889B0003F1006303F5F8439D
:103CFC005B889BB24FF6FF72934203D0564B052262
:103D0C001A7070475B4B1B6913F0800F05D0594B31
:103D1C00594A5A6002F188325A60564B00221A6195
:103D2C001A6942F001021A61514A1368991C116018
:103D3C004A4A12885A80484B04221A7070474D4BDD
:103D4C00DB6813F0200F1ED04A4AD36843F02003DF
:103D5C00D360454B1B889B0003F1006303F5F843CC
:103D6C005B889BB23D4A128893421AD03E4A138814
:103D7C0001339BB213803F4A136943F080031361F4
:103D8C00354B00221A703B4BDB6813F0040F4BD001
:103D9C00384AD36843F00403D3602F4B05221A70C2
:103DAC007047314B1B889BB2304931F823309BB2A2
:103DBC002B4921F81230D9E72E4B1B6913F0800FD9
:103DCC0005D02C4B2C4A5A6002F188325A60294B90
:103DDC0000221A611A6942F002021A61234A5A61DE
:103DEC001A6942F040021A611B4B06221A70704786
:103DFC00204BDB6813F0200F16D01E4AD36843F01B
:103E0C002003D36000234FF0FF3205E0174951F82F
:103E1C0023100A4001339BB2FF2BF7D9B2F1FF3FBD
:103E2C0003D00D4B05221A707047124A136943F0E8
:103E3C0080031361002306E0094A4FF6FF7122F854
:103E4C00131001339BB2092BF6D90023024A1370CD
:103E5C00054A1380704700BF96010020980100208E
:103E6C0080010020A001002094010020007C0008AB
:103E7C009C01002000200240230167450C4B1A686E
:103E8C00136843F0010313600A4B1B681A686FF345
:103E9C009F221A60084B1A68536843F00103536061
:103EAC00064B1B681A686FF3DF321A60704700BF4D
:103EBC00D0000020D4000020CC000020C80000203E
:103ECC0040F0BF6040F40030014BD860704700BF39
:103EDC0000ED00E0C37853B9037803F01F015B09D0
:103EEC0001228A402033124941F82320704710B434
:103EFC00104BDA68D243C2F30222C2F104040F233E
:103F0C0023FA02F24178A140837813400B431B0142
:103F1C000278DBB206490A4482F80033037803F0D6
:103F2C001F005B090122824041F8232010BC70471E
:103F3C0000E100E000ED00E030B587B004460D462E
:103F4C00038A9BB2CA8823F44053134303828389A8
:103F5C009BB2898828896A8901430A4323F4B053A8
:103F6C0023F00C031343A381A38A9BB2AA8923F4E5
:103F7C0040731343A38201A800F03CF91E4B9C42F2
:103F8C0024D0039BA28912F4004F21D103EB8303AD
:103F9C0003EB830329688900B3FBF1F1174BA3FBF7
:103FAC00012358090501642300FB1313A28912F4A1
:103FBC00004F16D11B013233104AA2FB0323C3F36B
:103FCC0043132B439BB2238107B030BD049BD9E72D
:103FDC0003EB830303EB830329684900B3FBF1F183
:103FEC00DCE7DA003232054BA3FB0232C2F3421299
:103FFC0042EA0503E6E700BF003801401F85EB519C
:10400C0031B983899BB223F400539BB283817047EF
:10401C00838943F400538381704710B4C1F3421475
:10402C0001F01F01012303FA01F19C4209D0022C7B
:10403C0009D014304AB9036823EA0101016010BCAD
:10404C0070470C30F6E71030F4E703681943016051
:10405C00F5E7C1F30801818070478088C0F3080040
:10406C0070470388194201D1002070470120704726
:10407C0010B4C1F3421201F01F040123A340012A22
:10408C000DD0022A0ED0828A1340090A012202FAAC
:10409C0001F10288114043B151B9002006E0828938
:1040AC001340F2E7028A1340EFE7002010BC704780
:1040BC000120FBE7F0B4CB7803F00F02154613F0A8
:1040CC00100F01D08D7815430B78E3B106680023EF
:1040DC0001E042610133072B14D801229A400C886D
:1040EC0032EA0404F6D19C000F27A74026EA070603
:1040FC0005FA04F42643CC78282CEAD0482CE9D1D4
:10410C000261E7E706600B88FF2B20D94668002385
:10411C0003E0426116E002610133072B16D803F16C
:10412C0008040122A2400C8832EA0404F4D19C0059
:10413C000F27A74026EA070605FA04F42643CC7895
:10414C00282CE6D0CC78482CE6D1E4E74660F0BCCD
:10415C007047000030B4002814DB1B4B5B68C0F3C5
:10416C00034582B200F44014B4F5401F0DD010F496
:10417C00801F1CD0032404FA05F523EA050343F041
:10418C00706309E0104BDB69E9E723F070630E4DB7
:10419C006C6824F070646C6019B1410D09018A409F
:1041AC00134300280CDB084A536030BC7047440DA5
:1041BC00240102FA04F423EA040343F07063EBE7EE
:1041CC00014AD361F1E700BF00000140014B1860C8
:1041DC00704700BF80044242024A136A18431062BF
:1041EC00704700BF00100240014B1860704700BFC1
:1041FC003C04424210B4294B5B6803F00C03042BC3
:10420C002BD0082B2CD013B1254B036001E0244B91
:10421C00036022494B68C3F30313224CE35CDAB20C
:10422C000368D34043604A68C2F30222A25CD2B254
:10423C0023FA02F282604A68C2F3C222A25CD2B2B2
:10424C00D340C3604A68C2F3813217498A5CD2B248
:10425C00B3FBF2F3036110BC7047114B0360D8E75A
:10426C000E4A53685268C3F38343023312F4803FFF
:10427C0009D00A4A526812F4003F09D00B4A02FBDB
:10428C0003F30360C5E7094A02FB03F30360C0E7CD
:10429C00034A02FB03F30360BBE700BF00100240BC
:1042AC0000127A00DC000020D800002000093D003C
:1042BC0029B9054A936923EA000090617047024AC4
:1042CC0093691843906170470010024029B9054A60
:1042DC00D36923EA0000D0617047024AD3691843BE
:1042EC00D0617047001002404309012B0CD0022B07
:1042FC000DD0094B5B6A00F01F0023FA00F010F0A0
:10430C00010F07D100207047034B1B68F3E7024BEA
:10431C001B6AF0E7012070470010024029B9054ADA
:10432C00138823EA000010807047024B1A88104350
:10433C001880704700280040024A938843F010030D
:10434C009380704700280040034A93889BB223F067
:10435C0010039BB2938070470028004010B50446B0
:10436C00FFF7EAFFC4F30342034B1A81A4B29C810A
:10437C00FFF7EAFF10BD00BF00280040024B9B88EE
:10438C0013F0200FFAD0704700280040064A93889B
:10439C009BB223F008039BB29380034B9B8813F0D2
:1043AC00080FFAD0704700BF00280040064A9188D9
:1043BC00C3B20B401288104202D01BB900207047C8
:1043CC00002070470120704700280040024A938863
:1043DC0023EA00009080704700280040014B1860D1
:1043EC00704700BF20000E42034A136803F03803E5
:1043FC0018431060704700BF00200240002103E00A
:10440C000A4B5B584350043109480A4B42189A42F4
:10441C00F6D3094A02E0002342F8043B074B9A42C8
:10442C00F9D300F00FF8FCF77BFD7047D05500086E
:10443C00000000205001002050010020640A0020E0
:10444C00FEE7000070B500250C4E0D4CA41BA4100B
:10445C00A54209D100F03AFC00250A4E0A4CA41BD7
:10446C00A410A54205D170BD56F8253098470135EA
:10447C00EEE756F8253098470135F2E7C8550008A5
:10448C00C8550008C8550008CC5500080EB46FF08C
:10449C00004100B59CB01DAB0290069007910491B1
:1044AC000848094953F8042B0591006802A90193A7
:1044BC0000F066F80022029B1A701CB05DF804EB49
:1044CC0003B07047EC0000200802FFFF2DE9F04715
:1044DC008E6882469E420C469046994637D88A8909
:1044EC0012F4906F31D00223256809696F1A65693F
:1044FC0005EB450595FBF3F509F101033B449D42A2
:10450C0038BF1D46530530D5294600F037FB06460B
:10451C0050B90C234FF0FF30CAF80030A38943F098
:10452C004003A381BDE8F0873A46216900F0B6FA52
:10453C00A38923F4906343F08003A38126613E4456
:10454C0026604E466561ED1BA5604E4500D94E4672
:10455C0032464146206800F0ACFAA36800209B1B51
:10456C00A36023681E442660DCE72A4600F060FB4B
:10457C0006460028E2D12169504600F0B3FAC8E79C
:10458C002DE9F04F1D468B899DB01F0680460C46C9
:10459C0016460FD50B696BB9402100F0EFFA20607D
:1045AC00206128B90C23C8F800304FF0FF30C8E068
:1045BC00402363610023099320238DF82930302395
:1045CC004FF0010B8DF82A30039537463D4615F810
:1045DC00013B0BB1252B3ED1B7EB060A0BD0534652
:1045EC00324621464046FFF771FF013000F0A480AF
:1045FC00099B534409933B78002B00F09D800023CA
:10460C004FF0FF32CDE90523049307938DF8533017
:10461C001A932F46052217F8011B504800F030FA68
:10462C00049BD0B9D90644BF20228DF853201A0719
:10463C0044BF2B228DF853202A782A2A15D02F46D6
:10464C0000200A25079A394611F8013B303B092B0B
:10465C004DD9B8B10FE02F46B8E7404A3D46801A15
:10466C000BFA00F018430490D3E7039A111D12685B
:10467C000391002A01DB079204E0524243F002034B
:10468C00079204933B782E2B0CD17B782A2B33D1B9
:10469C00039B02371A1D1B680392002BB8BF4FF007
:1046AC00FF3305932E4D03223978284600F0E8F9A4
:1046BC0038B14023401B03FA00F0049B013703433D
:1046CC0004933978062227487E1C8DF8281000F0B8
:1046DC00D7F9002838D0244B13BB039B073323F0A6
:1046EC00070308330393099B4B4409936DE705FBC0
:1046FC00023201200F46A6E700230A25194601378E
:10470C000593384610F8012B303A092A03D9002BAF
:10471C00C8D00591C6E705FB012101230746F0E748
:10472C0003AB00932246114B04A94046AFF3008023
:10473C00B0F1FF3F8146D6D1A3895B063FF535AF7B
:10474C0009981DB0BDE8F08F03AB00932246074BD0
:10475C0004A9404600F082F8EAE700BF945500082F
:10476C009A5500089E55000800000000D944000826
:10477C002DE9F04791461F468A680B69064693421D
:10478C00B8BF1346C9F8003091F843200C46DDF849
:10479C00208012B10133C9F800302368990642BF5A
:1047AC00D9F800300233C9F80030256815F0060539
:1047BC0007D104F1190AE368D9F800209B1AAB421F
:1047CC0029DC94F843302268003318BF0123920689
:1047DC002ED404F1430239463046C047013021D073
:1047EC002368E56803F00603042B18BF0025D9F8ED
:1047FC0000204FF0000908BFAD1AA368226908BF5A
:10480C0025EAE5759342C4BF9B1AED181A344D4541
:10481C001AD1002008E00123524639463046C047E1
:10482C00013003D14FF0FF30BDE8F0870135C2E70E
:10483C003020E11881F843005A1C94F845102244AA
:10484C00023382F84310C4E701232246394630462E
:10485C00C0470130E6D009F10109D8E72DE9F04352
:10486C0001F1430C0C46097E85B06E2917460646AD
:10487C0098460C9A00F0B38022D8632936D00AD817
:10488C00002900F0B980582900F0838004F142051A
:10489C0084F8421032E0642901D06929F6D12068ED
:1048AC001368050603F104012AD51B681160002B5F
:1048BC0003DA2D225B4284F843206F480A2239E048
:1048CC00732900F09D8008D86F2920D07029DDD184
:1048DC00236843F02003236003E0752917D078295F
:1048EC00D4D17823654884F8453055E0136804F139
:1048FC004205191D1B68116084F8423001238CE0BD
:10490C001B6810F0400F116018BF1BB2CFE7136883
:10491C002568181D1060280601D51B6802E0680682
:10492C00FBD51B886F2914BF0A220822524800218C
:10493C0084F843106568002DA560C0F2958021684D
:10494C0021F004012160002B3DD1002D40F08E8020
:10495C006546082A0BD12368DB0708D523696268F2
:10496C009A42DEBF302305F8013C05F1FF35ACEB74
:10497C0005032361CDF800803B4603AA214630464F
:10498C00FFF7F6FE01304DD14FF0FF3005B0BDE81A
:10499C00F083394884F84510136821681D1D1B6885
:1049AC0015600A060BD5CA0744BF41F020012160EF
:1049BC001BB9226822F0200222601022B7E74D06B4
:1049CC0048BF9BB2EFE76546B3FBF2F102FB113334
:1049DC00C35C05F8013D0B460029F5D1B9E7136816
:1049EC002568181D6169106028061B6801D51960BF
:1049FC0002E06A06FBD51980002365462361B9E7FE
:104A0C001368191D11601D6862680021284600F0AA
:104A1C0037F808B1401B606063682361002384F899
:104A2C004330A7E723692A4639463046C047013050
:104A3C00AAD023689B0713D4E068039B9842B8BFA5
:104A4C001846A3E701234A4639463046C047013091
:104A5C009AD00135E368039A9B1AAB42F2DCEBE780
:104A6C00002504F11909F5E7002BACD1037804F10A
:104A7C00420584F842306CE7A5550008B65500088D
:104A8C0010B5C9B202449042034601D1002303E0A1
:104A9C001C7801308C42F6D1184610BD10B5431E5F
:104AAC000A44914200D110BD11F8014B03F8014F9B
:104ABC00F7E7884210B501EB020307D8421E994272
:104ACC000AD011F8014B02F8014FF8E78342F5D9EF
:104ADC008118D21AD34200D110BD13F8014D01F840
:104AEC00014DF7E738B50546002943D051F8043C91
:104AFC000C1F002BB8BFE41800F0D0F81E4A136846
:104B0C00104633B9636014602846BDE8384000F0A5
:104B1C00C6B8A3420BD921686218934201BF1A6828
:104B2C005B685218226063600460EDE713465A68B4
:104B3C000AB1A242FAD919685818A0420BD12068C0
:104B4C000144581882421960DED110685268014441
:104B5C0019605A60D8E702D90C232B60D4E720687F
:104B6C0021188A4201BF11685268091821606260DD
:104B7C005C60C9E738BD00BFA401002070B5CD1C36
:104B8C0025F0030508350C2D38BF0C25002D0646E5
:104B9C0001DBA94203D90C233360002070BD00F067
:104BAC007DF8214A1468214691B9204C23681BB921
:104BBC00304600F063F820602946304600F05EF87D
:104BCC00431C24D10C233046336000F068F8E4E732
:104BDC000B685B1B18D40B2B0FD90B60CC18CD506A
:104BEC00304600F05CF804F10B00231D20F00700A8
:104BFC00C31AD3D05A42E250D0E74B688C4216BF4E
:104C0C00636013600C46EBE70C464968CCE7C41CA8
:104C1C0024F00304A04205D0211A304600F02EF8EF
:104C2C000130CFD02560DBE7A4010020A8010020D3
:104C3C00F8B5074614460E4621B9BDE8F8401146B2
:104C4C00FFF79CBF22B9FFF74DFF25462846F8BD5C
:104C5C0000F026F8A0420FD221463846FFF78EFF0F
:104C6C0005460028F2D031462246FFF717FF3146A1
:104C7C003846FFF737FFE9E73546E7E738B5002355
:104C8C00054C05460846236000F012F8431C02D17F
:104C9C00236803B12B6038BD600A00207047704751
:104CAC0051F8043C181F002BBCBF0B58C0187047A0
:104CBC00044A05491368002B08BF0B4618441060C2
:104CCC0018467047AC010020680A0020F8B500BFF8
:104CDC00F8BC08BC9E467047F8B500BFF8BC08BCD1
:044CEC009E46704729
:104CF0000100000003000000070000000F0000009A
:104D00001F0000003F0000007F000000FF000000C7
:104D1000FF010000FF030000CDE5F0E0E1EEF7E861
:104D2000E520EBE0ECEFFB002530326400000000F2
:104D3000253032642000000052533438353A204583
:104D400058502E2564205546542E2564000000003E
:104D5000616464722E25237800000000184D00085D
:104D6000000100006D1500087C52000800010000E1
:104D7000351200089052000800010000ED110008F3
:104D80000000000000000000000000005452000875
:104D90000003000025250008605200080003000001
:104DA0001912000874520008000300008125000851
:104DB0005052000809080000000000000000000038
:104DC0000000000000000000285200080008000059
:104DD000BD2500083C520008000800000D26000810
:104DE000505200080A080000000000000000000007
:104DF0000000000000000000F8510008000800005A
:104E0000492600080852000800080000BD260008D6
:104E10001C520008000800002927000800000000BC
:104E20000000000000000000CAEEEDF4E8E3F3F03B
:104E3000E0F6E8FF20F1E8F1F2E5ECFB000000000D
:104E4000C2F1E5E3EE20EBE0ECEF3A202564000050
:104E5000CFEBE0F220F0E0F1F8E8F0E5EDE8FF3A22
:104E600020256400CFEBE0F2E020D3D420E820D26C
:104E7000E5ECEF3A202B0000CFEBE0F2E020D3D4BA
:104E800020E820D2E5ECEF3A202D0000C0520008C7
:104E90000001000019130008D452000800010000AE
:104EA000CD240008E052000800010000911B00081A
:104EB000F052000800010000DD2900080000000099
:104EC0000000000000000000CBE0ECEF203A256479
:104ED00000000000C0E2E0F0E8FF3A00CBC0CCCF19
:104EE000DB000000202020202000000020D2E5EC84
:104EF000EF000000743D256420000000743D25642F
:104F000000000000D3D43D256425252020000000AA
:104F1000D3D43D256425252000000000D3D420C231
:104F2000CACB0000D3D420C2DBCA0000D3C7C32041
:104F3000C2CACB00D3C7C320C2DBCA007E000000B8
:104F4000A052000800010000F1130008B052000850
:104F500000010000911B000800000000000000009C
:104F600000000000C2EAEBFEF7E5EDE8E93A202593
:104F700030336400D1E1F0EEF1EEE220EFEEEBED44
:104F8000FBF53A2530336400D1E1F0EEF1EEE2209A
:104F9000EEE4E8ED2E3A202530336400D1E1F0EE66
:104FA000F1EEE220EBEEE3E03A202025303364001E
:104FB000C2E2E5E4E8F2E520EAEEE43A00000000AF
:104FC00020202530346400004C530008000100000C
:104FD0006916000858530008060100000000000090
:104FE000000000000000000000000000CDE0F0E044
:104FF000E1EEF2EAE020CFEBE0F2E000CBE0ECEF14
:10500000E02000002020253032640000CBE0ECEFEF
:10501000E020253032642020202530356420200017
:105020002020202020202020202020202020202080
:10503000202020200000000000530008000600008F
:1050400000000000145300080606000000000000E5
:105050001C53000800060000711900080000000041
:1050600000000000000000002453000800020000BF
:10507000000000003053000807020000000000009C
:105080003C53000800020000AD19000800000000B9
:105090000000000000000000C2E2E5E4E8F2E520C4
:1050A000EDEEECE5F0000000CBE0ECEFE0204E2070
:1050B00000000000CDE0E6E0F2E8E52020207E20C0
:1050C000D1E1F0EEF1000000D3E4E5F0E6E0EDE838
:1050D000E5207E20CEF2ECE5EDE00000685300080C
:1050E00005000000000000007053000802000000EE
:1050F000000000007C5300080300000000000000D6
:105100008C530008040000000000000000000000B4
:105110000000000000000000CDE0E6E0F2E8E5203D
:1051200020207E20D1EEF5F0E0ED2E00C0E4F0E589
:10513000F120E220F1E5F2E83A000000D1EAEEF0D9
:10514000EEF1F2FC2028E1EEE4FB293A0000000039
:10515000CAEEEBE8F7E5F1F2E2EE20EBE0ECEF3A35
:1051600000000000CCEEE4E5EBFC3A00CAEEEDF204
:10517000F0EEEBFC20F7E5F2ED2E3A00CFEBE0F29B
:10518000E020E4E0F2F7E8EAEEE23A00CAEEEB2DC6
:10519000E2EE20F1F2EEEF20E1E8F23A000000004A
:1051A000C4E0F2F7E8EA20F2E5ECEFE5F0E0F2F334
:1051B000F0FB3A00CCE0EAF120F2E5ECEFE5F0E0BC
:1051C000F2F3F0E03A00000054E5ECEFE5F0E0F235
:1051D000F3F0E020E2EEF1F1F2E0ED3A0000000041
:1051E000C4E0F2F7E8EA20D3D43A0000D2F0E5E2D6
:1051F000EEE3E020D3D43A00CFEBE0F2E020E4E0AD
:10520000F2F7E8EAEEE20000C4E0F2F7E8EA20F2A2
:10521000E5ECEFE5F0E0F2F3F0FB0000C4E0F2F7BC
:10522000E8EA20D3D4000000CCE0EAF120F2E5EC7B
:10523000EFE5F0E0F2F3F0E000000000D2E5ECEF83
:10524000E5F0E0F2F3F0E020E2EEF1F1F200000030
:10525000C5F9E500CAEEEB2DE2EE20EBE0ECEF0045
:10526000D1E1F0EEF120ECE0EAF1E8ECF3ECE02043
:10527000D3D40000CCEEE4E5EBFC0000CEF8E8E18E
:10528000EAE820EBE8EDE8E8205253343835000036
:10529000D1E1F0EEF1E8F2FC20E0E2E0F0E8E80035
:1052A000CFF0EEF1ECEEF2F0E5F2FC20EBEEE300F5
:1052B000D1E1F0EEF1E8F2FC20EBEEE300000000BB
:1052C000CFF0EEF1ECEEF2F020EAEEEDF42E2DE868
:1052D000E8000000CDE0F1F2F0EEE9EAE8000000BD
:1052E000CDE0F1F2F0EEE9EAE820EAEEEDF42E008E
:1052F000CDE0F1F2F0EEE9EAE820F1E5F2E80000B5
:10530000D1E1F0EEF1E8F2FC20E2F1E520EBE0EC97
:10531000EFFB000020CDE5F20000000020C4E020FB
:1053200000000000D1E1F0EEF1E8F2FC0000000026
:1053300020C2F1E520EBE0ECEFFB000020CBE0EC3D
:10534000EFF32020EDEEECE5F0200000CFF0EEF1E1
:10535000ECEEF2F000000000D1E1F0EEF120EDE023
:10536000F0E0E1EEF2EAE800C0E2E0F0E8E8000098
:10537000CDE0F0E0E1EEF2EAE0000000CAEEEDF48C
:10538000E8E3F3F0E0F6E8FF00000000CBEEE320F6
:10539000F0E0E1EEF2FB0000EDE5F7E5F2EDEEF115
:1053A000F2FC0000F7E5F2EDEEF1F2FC2020000047
:1053B00039363030202000003134343030200000C5
:1053C000313932303020000032383830302000009F
:1053D000333834303020000035373630302000008C
:1053E000373638303020000031313532303000006F
:1053F000EEF2F1F3F2F1F2E2F3E5F2200000000048
:10540000EFF0E8F1F3F2F1F2E2F3E5F20000000070
:10541000D3CEC22DCFC22D3120202000D3CEC22D1D
:10542000CFC22D3520202000D3CEC22DCFC22D31AA
:1054300030202000D3CEC22DCFC22D313520200008
:10544000D3CEC22DCFC22D3330202000D3CEC22DDB
:10545000CFC22D3530202000D3CEC22DCFC22D316A
:1054600030302000D3CEC22DCFC22D3135302000B8
:10547000D3CEC22DCFC22D3230302000D3CEC22D9C
:10548000CFC22D3330302000D3CEC22DCFC22D3528
:1054900030302000D3CEC22DCFC22D373030200087
:1054A000D3CEC22DCFC22D3130303000D3CEC22D5D
:1054B000CFC22D3135303000D3CEC22DD1C22D35E3
:1054C00020202000D3CEC22DD1C22D31302020008B
:1054D000D3CEC22DD1C22D3135202000D3CEC22D46
:1054E000D1C22D3330202000D3CEC22DD1C22D35D4
:1054F00030202000D3CEC22DD1C22D31303020003B
:10550000D3CEC22DD1C22D3135302000D3CEC22D05
:10551000D1C22D3230302000D3CEC22DD1C22D3396
:1055200030302000D3CEC22DD1C22D3530302000F6
:10553000D3CEC22DD1C22D3730302000D3CEC22DD4
:10554000D1C22D3130303000D3CEC22DD1C22D3159
:105550003530300041A042A1E045A3A4A5A64BA749
:105560004D484FA8504354A9AA58E1ABACE2ADAEA8
:10557000ADAFB0B161B2B3B4E365B6B7B8B9BABB59
:10558000BCBD6FBE7063BF79E478E5C0C1E6C2C33D
:10559000C4C5C6C7232D302B2000686C4C0065663F
:1055A0006745464700303132333435363738394174
:1055B000424344454600303132333435363738398A
:0855C00061626364656600008E
:0455C80031010008A5
:0455CC000D010008C5
:1055D000B0530008B8530008C0530008C85300086F
:1055E000D0530008D8530008E0530008E8530008DF
:1055F000F05300080054000800000000DC500008D0
:10560000C84F00088C4E0008404F00085C4D000851
:1056100068500008385000088C4D0008C84D00083C
:10562000F84D0008105400081C54000828540008C5
:1056300034540008405400084C54000858540008E2
:1056400064540008705400087C5400088854000812
:1056500094540008A0540008AC540008B854000842
:10566000C4540008D0540008DC540008E854000872
:10567000F4540008005500080C550008185500089F
:1056800024550008305500083C55000848550008CE
:1056900098530008A453000858000240000002403C
:1056A000001002400038014002040608000000001B
:1056B000010203040102030406070809F0000020A8
:1056C00000000000000000000000000000000000DA
:1056D00000000000000000000000000000000000CA
:1056E00000000000000000000000000000000000BA
:1056F00000000000000000000000000000000000AA
:105700000000000000000000000000000000000099
:105710000000000000000000000000000000000089
:0400000508004409A2
:00000001FF
