:020000040800F2
:100000000050002061450008A5450008A5450008EE
:10001000A5450008A5450008A5450008000000000A
:10002000000000000000000000000000A5450008DE
:10003000A545000800000000A5450008D102000801
:10004000A5450008A5450008A5450008B901000818
:10005000A5450008A5450008A5450008A5450008D8
:10006000A5450008A5450008A5450008A5450008C8
:10007000A5450008A5450008A5020008A5450008FB
:10008000A5450008A5450008A5450008A5450008A8
:10009000A5450008A5450008A5450008A545000898
:1000A000A5450008A5450008A5450008A545000888
:1000B000A5450008A5450008A5450008A545000878
:1000C000A5450008A5450008A5450008A545000868
:1000D000A54500087D020008A54500081D0200088E
:1000E000A5450008A5450008A5450008000000003A
:1000F0000000000000000000000000000000000000
:0C01000000000000000000005FF808F1A3
:10010C0008B50548054B1B1A062B00D808BD044B37
:10011C00002BFBD09847F9E7500100205301002039
:10012C000000000008B50748074B1B1A9B1003EB97
:10013C00D373591000D108BD044A002AFBD0904754
:10014C00F9E700BF50010020500100200000000022
:10015C0010B5064C237843B9FFF7D2FF044B13B10B
:10016C000448AFF300800123237010BD5001002020
:10017C0000000000204E000808B5074B1BB10748D3
:10018C000749AFF300800748036813B1064B03B16E
:10019C009847BDE80840C5E700000000204E000865
:1001AC0054010020500100200000000008B501207F
:1001BC0004F0A6F910B3012004F0B2F904F086F9AA
:1001CC000F4B1A780132D2B21A700E4B1B7813F007
:1001DC00010F0ED00C4B1B88B3F5616F03D20133AA
:1001EC00094A138005E00022074B1A800122074BB5
:1001FC001A70044B1A7842F040021A7008BD00BF06
:10020C00B0010020AC0100206E0100205E06002031
:10021C0038B5144B002283F8202083F82C209A62E6
:10022C00114840F2255103F0B9FF88B10F4C94F8F6
:10023C00FF500D4803F0A6FF605594F8FF300133D2
:10024C00DBB284F8FF30FD2B02D9002284F8FF20AA
:10025C000122044B83F82020034840F2277103F05D
:10026C009DFF38BDC80100200048004060040020FC
:10027C0008B5074B1B8803F010039BB23BB1044B32
:10028C009B880122034B83F8402002F097FF08BDA6
:10029C0000380140C801002008B502F069FF02F0E7
:1002AC0077FF064B002283F8002183F8FF20044BD4
:1002BC005A6842F480525A6008BD00BF54030020B3
:1002CC0000000240F0B42A4B1A6801321A601B6815
:1002DC0073BB37E019461801105C10F0FF0F0BD000
:1002EC0002EB031084684068844205D202EB0310D1
:1002FC0084683868044402E002EB0110846802EB65
:10030C000110846084684068844206D30801105C44
:10031C0010F0FF0F03D1284602E0284600E03046DB
:10032C0000F0010002EB011108730133DBB204E0B1
:10033C000023104A0E4F1D460126052BCAD9002258
:10034C000B4B1A600B4B93F82C3003F0FF0223B1CC
:10035C00084B002183F82C1099623AB10022054B0E
:10036C0083F820200122044B83F80121F0BC704754
:10037C002C030020C8010020600400200F4B1A78C9
:10038C006FF345121A70A0B90D4B9B68DBB20D4A86
:10039C00906800F0300043EA00100B4B5B89DBB235
:1003AC000A2B00D90A23013B084A52F82330184083
:1003BC007047074A32F81000704700BFAC010020AC
:1003CC000008014000100140B4010020384E000824
:1003DC0030030020114B1A786FF345121A70034644
:1003EC0018B90F4B5889C0B213E00D4A518989B224
:1003FC0000EB8002520091420ADD094A5089C3EB9E
:10040C004312C3EB82035A00104400F0FF0000E0DB
:10041C0000200A2800D90A20704700BFAC01002038
:10042C00B4010020F0B583B00023ADF8043072B6EF
:10043C008DF807303B4E3C4D3C4F2DE09DF807307E
:10044C0035F81340013CA4B29DF807309DF8072005
:10045C0035F812208A3307EB43035A80BDF80400A9
:10046C0080B2E1B202F074FFBDF8043001339BB2EC
:10047C00ADF80430BDF8040080B2210A02F068FF28
:10048C00BDF8043001339BB2ADF804309DF8073051
:10049C000133DBB28DF807309DF80720D2B2738997
:1004AC009BB29A42CAD3224C4FF48070217802F04E
:1004BC004FFF218840F20110090A02F049FF4FF466
:1004CC008170A17802F044FF618840F20310090AA0
:1004DC0002F03EFF4FF48270217902F039FFA188BF
:1004EC0040F20510090A02F033FF4FF48370A17932
:1004FC0002F02EFFE18840F20710090A02F028FFF3
:10050C000C4C4FF44070217802F022FF218840F20D
:10051C000130090A02F01CFF02F0CEFE62B603B0F5
:10052C00F0BD00BFB4010020640500207C06002053
:10053C004C030020560400202DE9F04182B000232A
:10054C00ADF8043072B68DF807304C4E4C4C4D4F14
:10055C003BE09DF80750EDB2BDF8040080B202F00C
:10056C004DFE24F81500BDF8043001339BB2ADF8F4
:10057C0004309DF80750EDB234F81580BDF8040036
:10058C0080B202F03BFE48EA002024F81500BDF8CA
:10059C00043001339BB2ADF804309DF80730DBB268
:1005AC0034F81320013224F813209DF807309DF8FD
:1005BC00072034F812208A3307EB43035A809DF846
:1005CC0007300133DBB28DF807309DF80720D2B22B
:1005DC0073899BB29A42BCD34FF4807002F00EFE2A
:1005EC000546294C208040F2011002F007FE45EA36
:1005FC00002020804FF4817002F000FE05466080E0
:10060C0040F2031002F0FAFD45EA002060804FF43E
:10061C00827002F0F3FD0546A08040F2051002F056
:10062C00EDFD45EA0020A0804FF4837002F0E6FD5A
:10063C000546E08040F2071002F0E0FD45EA00209C
:10064C00E080124B1B88A3B94FF4407002F0D6FD2A
:10065C000E4C208040F2013002F0D0FD238843EA9A
:10066C00002083B22380B3F5407F02D24FF4407256
:10067C00228062B602B0BDE8F08100BFB401002058
:10068C00640500207C0600204C030020560400204A
:10069C00F0B583B007460E4600238DF807304FF4B3
:1006AC00004203F1804303F584331A6100BF00BF9D
:1006BC00124C40252046294603F068FD0028F9D04D
:1006CC009DF80730DBB22046F95C03F057FD9DF82E
:1006DC0007300133DBB28DF80730B342EAD3074D54
:1006EC0040242846214603F051FD0028F9D04FF450
:1006FC000042034B5A6103B0F0BD00BF00480040FC
:10070C000008014000B58BB0554B1B78042B00F250
:10071C00A480DFE803F0031A69864E00514B1B7866
:10072C00514A1278934206D101224D4B1A70002285
:10073C004C4B1A7091E00221494A117000214B4A2E
:10074C0011700133474A137087E0494B0093002125
:10075C0001910A20022202AB02F02AFFFF2822D1CB
:10076C00BDF80830434A1380BDF80A2042490A807C
:10077C004249A1F8FC20424A928992B2934203D991
:10078C00404A1380642208E0642202FB03F33C4AD3
:10079C00928992B2B3FBF2F2D2B2384BA3F8002199
:1007AC0004222F4B1A70002857D004222C4B1A709D
:1007BC0053E0354B32225A6101221A741B7F03F02D
:1007CC00FF021BB1304B002119779961002A44D0EC
:1007DC0000222D4B1A74254B1B780BB1032200E021
:1007EC0000221F4B1A7038E01E4B1878204B0093D8
:1007FC0000210191022202AB02F0DAFEFF280BD19C
:10080C00184B1B78BDF80810204A22F81310BDF8BD
:10081C000A101F4A22F81310F8B10422104B1A7058
:10082C001BE00023ADF808301A4B1B7813F0010FB6
:10083C0002D00123ADF808300A4B18780C4B00930A
:10084C0000210191012202AB02F06EFF28B10022BF
:10085C00064B1A700422024B1A700BB05DF804FBA5
:10086C007301002072010020580400206C0100204C
:10087C00600400207A0600205C0400207C06002026
:10088C00B401002056040020C8010020600600209E
:10089C0030030020AC01002010B5424B1B78A22B7A
:1008AC0004D0AC2B70D0A12B7AD139E03E4B1B7805
:1008BC0013F0010F18D03D4B40225A614FF4806069
:1008CC003B4948615A613B4AB2F8FA3023F00203C3
:1008DC001B041B0CA2F8FA30334B1A7802F0FE0200
:1008EC0042F040021A7010BD304B40221A614FF496
:1008FC0080602F4908611A612E4BB3F8FA2092B22E
:10090C0042F00202A3F8FA20274B1A7842F0410277
:10091C001A70294B1A8801321A80FFF783FD10BD1B
:10092C00214B1B7813F0020F18D0214B4FF480523F
:10093C005A614FF4006159615A611E4AB2F8FA309B
:10094C0023F001031B041B0CA2F8FA30164B1A7887
:10095C0002F0FD0242F040021A7010BD144B4FF42D
:10096C0080521A614FF4006119611A61114BB3F88E
:10097C00FA2092B242F00102A3F8FA200A4B1A783C
:10098C0042F042021A7010BD0C4C0123237001F08E
:10099C00B5FB054B1A7842F080021A7000232370C5
:1009AC0010BD00BF5A040020AC0100200010014013
:1009BC00000C01407C0600204C030020700100203C
:1009CC0010B5824B93F84C3003F0FF0223B17F4BF0
:1009DC00002183F84C109964002A00F0F5807B4BC1
:1009EC00002283F8402083F84C209A64784C012331
:1009FC0084F80131774B5B68DB4384F8FF30204689
:100A0C007549764B1A7802F051FF94F8000118B131
:100A1C00023002F091FB01E002F0BAFB00226C4BB9
:100A2C0083F801216E4B5A8892B26B4B1B889BB298
:100A3C009A4204D0684B1A8892B2694B5A80664B22
:100A4C005B889BB233B1644B598889B2644A9180FC
:100A5C0000225A80604B1B899BB233B15E4B1989C3
:100A6C0089B25F4AD18000221A815B4B5B899BB2B1
:100A7C0033B1594B598989B2594A118100225A8193
:100A8C00554B9B899BB233B1534B998989B2544ACC
:100A9C00518100229A81504BDB899BB233B14E4B72
:100AAC00D98989B24E4A91810022DA814A4BB3F836
:100ABC00F82192B24FF6FF739A423DD0464BB3F8F1
:100ACC00F8319BB2CBB9474B4FF400625A614FF4EB
:100ADC0080525A61404AB2F8FA3023F001031B04E9
:100AEC001B0CA2F8FA30404B19786FF341011970C6
:100AFC004FF6FF73A2F8F8311EE0374BB3F8F8311C
:100B0C009BB2B3F57F4F17D1364B4FF400621A618D
:100B1C004FF480521A61304BB3F8FA2092B242F083
:100B2C000102A3F8FA20304A117841F00201117049
:100B3C004FF6FF72A3F8F821274BB3F8FA2192B2C3
:100B4C004FF6FF739A423FD0234BB3F8FA319BB266
:100B5C00D3B94FF48062234B5A61402203F5806372
:100B6C005A611D4AB2F8FA3023F002031B041B0C25
:100B7C00A2F8FA301C4B19786FF3000119704FF67C
:100B8C00FF73A2F8FA3110BD134BB3F8FA319BB2D4
:100B9C00B3F57F4F18D14FF48062124B1A6140228B
:100BAC0003F580631A610C4BB3F8FA2092B242F051
:100BBC000202A3F8FA200C4A117841F001011170DD
:100BCC004FF6FF72A3F8FA2110BD00BFC801002038
:100BDC0054030020580002407C0600205D060020D3
:100BEC00B4010020000C0140AC010020F8B5002439
:100BFC00894B1C80894F1E46894D18E02046FFF713
:100C0C00BDFB3388184380B2308074B9C043C0F345
:100C1C000900B5F8083103F47C43A5F80831B5F8A0
:100C2C0008319BB21843A5F808010134E4B23B78B3
:100C3C009C42E3D97B4B1B7813F0010F00F0E8804A
:100C4C00754B1B886BB1774B1B7813F0080F14D1C5
:100C5C008022754B1A61734B1A7842F048021A7055
:100C6C000BE0704B1B7813F0080F06D06D4B1A7805
:100C7C0002F0F70242F040021A706C4B9B7C13F0AE
:100C8C00010F00F0B280694B9A8992B2684B1B88B5
:100C9C009A4203D2674A1380642308E0642202FB61
:100CAC0003F3624A928992B2B3FBF2F3DBB2624A6B
:100CBC001370642B02D964225F4B1A705E4B1B7845
:100CCC005A4A128992B293420DD2564B1B7813F0AA
:100CDC00040F1AD1534B1A7842F044021A70802236
:100CEC00514B1A6111E04F4A127812F0040F0CD0DC
:100CFC004E4A128992B20532934206DD494B1A785C
:100D0C0002F0FB0242F040021A704C4B1B784C4A2A
:100D1C001370464AD28892B2934232D9414B1B7817
:100D2C0013F0100F07D13F4B1A7842F050021A7093
:100D3C0080223D4B1A613C4B40225A6141494FF491
:100D4C00806048615A61364AB2F8FA3023F00203E7
:100D5C001B041B0CA2F8FA304FF480534B614FF478
:100D6C00006048614B61B2F8FA3023F001031B04B8
:100D7C001B0CA2F8FA302B4B1A7842F040021A7076
:100D8C0033E0284A127812F0100F2ED0274A128A1C
:100D9C0092B2934229D2234B1A7802F0EF0242F01E
:100DAC0040021A70204A402111614FF4806425489A
:100DBC00046111611A4AB2F8FA1089B241F00201C9
:100DCC00A2F8FA101B7813F0020F0ED04FF48052D9
:100DDC0002614FF4006101610261114BB3F8FA201A
:100DEC0092B242F00102A3F8FA200E4B1B78C3F327
:100DFC00C001C3F380020A43C3F300131A4303D1A7
:100E0C008022094B5A61F8BD8022074B1A61F8BD4C
:100E1C008022054B5A61F8BDAE0100205804002019
:100E2C007C060020AC01002000100140B401002021
:100E3C007A06002056040020590400205C0400208F
:100E4C0058060020000C014008B5194B1B7813F014
:100E5C00C00F2CD0174B9B7C13F0010F1ED0164BE0
:100E6C001A78164B1A70134B9A8992B2144B1B8832
:100E7C009A4203D2134A1380642308E0642202FBD3
:100E8C0003F30C4A928992B2B3FBF2F3DBB20E4A33
:100E9C001370642B02D964220B4B1A7000F0ECFF18
:100EAC00034B1A7802F07F026FF386121A7008BD9A
:100EBC00AC010020B40100205C0400205806002086
:100ECC007A060020560400205904002010B53B4C33
:100EDC00A2883B4B1A70608801F0B6FFA37813F020
:100EEC00380F0AD0A378C3F3C203012B03D02346D7
:100EFC009B78022202E0032200E00422314B5A6468
:100F0C00314A0423A2F8F2302C49088880B2A2F8A6
:100F1C00F400488880B2A2F8F60029480078A2F8BC
:100F2C00F800C88880B2A2F8FE00088980B2A2F846
:100F3C000201488980B2A2F80401898989B2A2F819
:100F4C000611B2F8F81089B251800121A2F8FE11F5
:100F5C00104605E000EB4302A2F8FC110133DBB2B2
:100F6C00782BF7D9184B3F22A3F8EE22FF22A3F8D7
:100F7C00F0226422A3F8F622A3F8F8227022A3F838
:100F8C00FA2240F6FF72A3F8FC2200230E484FF61B
:100F9C00FF7105E003F1FC0220F812100133DBB203
:100FAC00012BF7D9094C2046FF2102F02DF82046E1
:100FBC0001F0F0FF02F0ECF810BD00BFB40100200E
:100FCC005D060020C80100207C0600205403002090
:100FDC002DE9F04383B002F0E1FF9C4B1A6842F01C
:100FEC0010021A60022003F0ABFA994A136843F41A
:100FFC008033136013461A6812F4003FFBD0954BF4
:10100C001A7802F00F021A705A7822F0070242F096
:10101C0004025A709A7822F03C0242F01C029A7038
:10102C009A7842F001029A70894A136843F08073EF
:10103C00136013461A6812F0007FFBD0854B1A78A8
:10104C0022F0030242F002021A70DFF844820023FD
:10105C00A8F8003001F05AFE01F0CCFD01F094FE2E
:10106C007D4C4FF08009C4F810907C4D4FF48057A4
:10107C002F61402626614FF480636B616661784A6C
:10108C00B2F8FA3023F002031B041B0CA2F8FA305E
:10109C004FF400636B616F61B2F8FA3023F0010317
:1010AC001B041B0CA2F8FA3002F09CF902F012FAA5
:1010BC0002F05CFA98F8003043EA090388F8003033
:1010CC00C4F814906F616661664802F0CDFD60BB98
:1010DC00644B00221A8001219980997821F001013A
:1010EC009970997821F002019970598862F3820104
:1010FC005980997821F0380199703721D9802821AD
:10110C001981052159814FF440719981DA8114229A
:10111C001A829A7C42F001029A749A7C42F0020282
:10112C009A749A7C42F004029A744E4B5A8992B289
:10113C004D4BA3FB0212D2084C4B1A7001F096FFD8
:10114C00FFF7FAF9FFF7C2FE494B4FF400425A6120
:10115C004FF480725A6102F01BF8464B464A5A60B3
:10116C009A6006221A60196841F001011960434B1C
:10117C005A62C8225A63012283F8302062B6404D6D
:10118C00404CFFF7BFFA404B93F8001131B11E46AB
:10119C001846FFF77DFA002386F8003101F0A2FC17
:1011AC00FFF77AFBFFF70CFC344B93F83C3003F061
:1011BC00FF0223B1314B002183F83C10996332B10B
:1011CC00FFF714FDFFF740FE264802F093FD2F4B6E
:1011DC001B78002BD5D000262C4B1E70234FB0460D
:1011EC002EE03046FFF7CAF8ADF806003046FFF7A0
:1011FC00F1F88DF80500434606EB8600400018E038
:10120C00BDF8062012F0010F05D1C21835F81210E6
:10121C00013125F81210BDF806209DF80510013992
:10122C0054F82110C2F34E020A40ADF806200133E7
:10123C00DBB29DF80520D2B29342E1D30136F6B26F
:10124C003B789E42CDD9FFF7EDF89AE7002002409B
:10125C00001002400410024000100140000C01403C
:10126C007C060020B4010020CDCCCCCC580400204E
:10127C000008014010E000E03F190100C801002007
:10128C0064050020384E0008600400205E06002033
:10129C00AC010020094B1A786FF382021A701A788D
:1012AC006FF3C3021A701A786FF304121A701A785B
:1012BC006FF345121A700520704700BFAC01002077
:1012CC004FF44073034A9381034AA2F8063103207A
:1012DC00704700BFB40100207C06002070B588B0B8
:1012EC002C4B07932C4B1A786FF345121A7002F0A3
:1012FC003DF902F03BF90020014602F01FF9274BA3
:10130C009B7C274C01A82749227803F0010303F0AA
:10131C006BF901A802F042F90020012102F00EF94C
:10132C000022214B1A702378EBB922E0079B013B7A
:10133C000793079B1BB1237813F0FF0FF6D0079B85
:10134C0063B901A819492A4603F04EF901A802F025
:10135C0025F9114B1A7842F020021A7000232370E1
:10136C000135EDB202E001250D4E0F4C33789D4254
:10137C00E1D900220E4B1A701C460E4D2378DBB2BD
:10138C000A2B04D801F0AEFB2B78AC2BF6D1052040
:10139C0008B070BDFFFF0100AC010020B4010020BB
:1013AC0058040020B04F000871010020C84F0008FD
:1013BC00B00100205A040020F0B587B0274C658995
:1013CC00ADB2274BA3FB0525C5F3C70502F0CEF83C
:1013DC0002F0CCF80020014602F0B0F8214802F0EF
:1013EC00DDF80020012102F0A9F8628968461E4947
:1013FC0092B203F0F9F8684602F0D0F868461B493F
:10140C002A4603F0F1F80020022102F097F8684612
:10141C0002F0C4F80020032102F090F8A37C13F032
:10142C00010F03D0124802F0B9F802E0114802F0A3
:10143C00B5F80022104B1A7001241D4617460F4EAA
:10144C002B78DBB20A2B06D804B13C4601F04AFBE0
:10145C003378AC2BF4D1032007B0F0BDB4010020DD
:10146C00CDCCCCCCD44F0008EC4F0008FC4F00087E
:10147C001050000824500008B00100205A0400202D
:10148C00F0B587B002F072F802F070F80020014657
:10149C0002F054F8504C22886846504992B203F03E
:1014AC00A3F8684602F07AF80020012102F046F811
:1014BC00628868464A4992B203F096F8684602F090
:1014CC006DF80020022102F039F8A28868464549DF
:1014DC0092B203F089F8684602F060F8002003210C
:1014EC0002F02CF8E28868463F4992B203F07CF88F
:1014FC00684602F053F800223C4B1A7007241D4634
:10150C0017463B4E00E007242B78DBB20A2B5FD842
:10151C0014F0020F01D02F70052401F0E3FA337898
:10152C00943B282BF0D801A252F823F01315000895
:10153C0015150008151500081515000813150008D9
:10154C0015150008151500081515000815150008C7
:10155C0015150008151500081515000815150008B7
:10156C0015150008151500081515000815150008A7
:10157C001515000815150008151500081515000897
:10158C00151500081515000815150008DD150008BF
:10159C001515000815150008151500081515000877
:1015AC001515000815150008151500081515000867
:1015BC001515000815150008151500081515000857
:1015CC001515000815150008151500081315000849
:1015DC00042007B0F0BD00BF4C03002038500008B9
:1015EC00485000085C50000870500008B001002002
:1015FC005A0400202DE9F04F87B001F0B7FF01F03D
:10160C00B5FF0020014601F099FF344801F0C6FFF8
:10161C000020012101F092FF0024314B1C700725A2
:10162C00DFF8C4A0DFF8C4B0DFF8C4902C4A1378FC
:10163C00DBB20A2B4DD815F0020F3ED143E03846F1
:10164C00FEF79CFE0646002507EB87084FEA480884
:10165C002EE016F0010F1BD0142C19D8062C03D039
:10166C000D2C01D0142C07D108F101026846494613
:10167C002A4402F0B9FF06E008F101026846594617
:10168C002A4402F0B1FF684601F088FF0134E4B24D
:10169C00072C03D10020022101F050FF0E2C03D1A6
:1016AC000020032101F04AFFC6F34F060135EDB2CD
:1016BC00092DCED90137FFB200E000279AF800308F
:1016CC009F42BCD9052501F00DFA064B1B78AC2BBB
:1016DC00ACD1052007B0BDE8F08F00BF84500008E6
:1016EC00B00100205A040020580400209C5000082F
:1016FC00945000082DE9F04786B000238DF8173080
:10170C00B84B5E89F6B20A2E00D9002601F02EFFE6
:10171C0001F02CFF0020014601F010FFB24801F04F
:10172C003DFF0020012101F009FFB04C204601F0E3
:10173C0035FF0020022101F001FF204601F02EFFB1
:10174C000020032101F0FAFE204601F027FF0024BF
:10175C00A74B1C7007251F46DFF8AC8202E007255B
:10176C0000E007253B78DBB20A2B00F2378115F03D
:10177C00020F00F089809DF81700FEF72BFE06463D
:10178C000F20002101F0DAFE9DF8172068469949D8
:10179C0002F02AFF684601F001FF0020012101F050
:1017AC00CDFE9DF8172002EB82025200A146224486
:1017BC009DF8173003EB83035B00234468468E4986
:1017CC0001328E4D35F8133002F00EFF684601F0F1
:1017DC00E5FE0020022101F0B1FE631CB246B342CB
:1017EC0015DA9DF8173003EB83035B00E2189DF8C4
:1017FC00173003EB83035B00234403F1010E6846AF
:10180C007D49023235F81E3002F0EEFE09E06D46DD
:10181C00C646BEE80F000FC59EE8030045F8040B52
:10182C002970684601F0BAFE0020032101F086FE03
:10183C0009F102039A4517DD9DF8173003EB83037A
:10184C005B0009EB03029DF8173003EB83035B008D
:10185C00994409F10209684667490332674D35F826
:10186C00193002F0C1FE09E06D46C646BEE80F0015
:10187C000FC59EE8030045F8040B2970684601F07B
:10188C008DFE00233B70052501F02CF95C4B1B7879
:10189C00943B282B3FF666AF01A252F823F000BF11
:1018AC00511900087117000871170008711700080A
:1018BC0085190008711700087117000871170008C6
:1018CC0071170008711700087117000871170008CC
:1018DC0071170008711700087117000871170008BC
:1018EC0071170008711700087117000871170008AC
:1018FC00711700087117000871170008711700089C
:10190C00E919000871170008711700087117000811
:10191C00711700087117000871170008711700087B
:10192C00711700087117000871170008711700086B
:10193C00711700087117000871170008711700085B
:10194C00BF1900081CB1013CE4B207250AE79DF859
:10195C00173013F0FF0F3FF402AF9DF81730013B27
:10196C00DBB28DF817309DF81700FEF733FD0646F5
:10197C00C41EE4B20725F5E6F31E9C4203DA0134DB
:10198C00E4B20725EEE69DF81720D2B21D4B1B786A
:10199C009A42BFF4E6AE9DF817300133DBB28DF8F6
:1019AC0017309DF81700FEF715FD06460024072595
:1019BC00D8E69DF81720D2B2124B1B789A4208D267
:1019CC009DF817300133DBB28DF817300024072552
:1019DC00C8E600248DF817400725C3E6022006B0A0
:1019EC00BDE8F087B4010020A4500008B4500008F2
:1019FC00B0010020BC500008C45000086405002051
:101A0C005A04002058040020D850000810B50023B8
:101A1C000A490B4C184603E024F813000133DBB2DF
:101A2C004A8992B29342F7D3064B5A88013292B24A
:101A3C005A80FEF7F7FC062010BD00BFB401002051
:101A4C00640500204C0300202DE9F04387B0704B57
:101A5C00B3F80A805FFA88F801F088FD01F086FD82
:101A6C000020014601F06AFD6A4801F097FD002054
:101A7C00012101F063FD684801F090FD0020022176
:101A8C0001F05CFD654801F089FD0020032101F0A7
:101A9C0055FD634801F082FD0022624B1A7001244F
:101AAC0002251E46DFF88C915F4F08E001240225C9
:101ABC0005E0022503E04446022500E002253378C8
:101ACC00DBB20A2B00F29F806DB10920012101F0DD
:101ADC0035FD68464946224602F086FD684601F00F
:101AEC005DFD0025357000F0FDFF3B78943B282B05
:101AFC00E5D801A252F823F0A91B0008CB1A000864
:101B0C00CB1A0008CB1A0008CF1B0008CB1A000810
:101B1C00CB1A0008CB1A0008CB1A0008CB1A000805
:101B2C00CB1A0008CB1A0008CB1A0008CB1A0008F5
:101B3C00CB1A0008CB1A0008B51B0008CB1A0008FA
:101B4C00CB1A0008CB1A0008DD1B0008CB1A0008C2
:101B5C00CB1A0008CB1A0008131C0008CB1A00087B
:101B6C00CB1A0008CB1A0008CB1A0008CB1A0008B5
:101B7C00CB1A0008CB1A0008CB1A0008CB1A0008A5
:101B8C00CB1A0008CB1A0008CB1A0008CB1A000895
:101B9C00CB1A0008CB1A0008FB1B0008012C85D9B6
:101BAC00013CE4B202258AE70A2C03D90A3CE4B2D0
:101BBC00022584E7012C7FF67CAF013CE4B20225C0
:101BCC007DE74445BFF477AF0134E4B2022576E7F4
:101BDC00A8F10A039C4203DA0A34E4B202256EE748
:101BEC004445BFF46BAF0134E4B2022567E7013C16
:101BFC0000220E4B23F814200D4B9A88013292B21E
:101C0C009A80FEF70FFC062007B0BDE8F08300BFFA
:101C1C00B4010020F0500008005100080C510008DD
:101C2C0020510008B00100205A0400206405002057
:101C3C004C030020945000082DE9F04188B08046F8
:101C4C0000248DF81F40ADF81C400123ADF81A306C
:101C5C008DF81E4001F08AFC01F088FC20462146DC
:101C6C0001F06CFC7F4B01AD0FCB07C52B7001A8AD
:101C7C0001F094FC7C4B1C7007241D467B4F7C4E62
:101C8C0004E0072402E0072400E007242B78DBB2F1
:101C9C000A2B00F2DF8014F0020F16D000202870FF
:101CAC00012101F04BFCBDF81C309BB2BDF81A2091
:101CBC0092B29DF81F4001A8394604FB023202F093
:101CCC0093FC01A801F06AFC052400F00BFF3378AB
:101CDC00943B282BDAD801A252F823F08D1D000872
:101CEC00991C0008991C0008991C0008A91D0008E3
:101CFC00991C0008991C0008991C0008991C0008E4
:101D0C00991C0008991C0008991C0008991C0008D3
:101D1C00991C0008991C0008991C0008991C0008C3
:101D2C00991C0008991C0008991C0008991C0008B3
:101D3C00991C0008991C0008991C0008651E0008D5
:101D4C00991C0008991C0008991C0008991C000893
:101D5C00991C0008991C0008991C0008991C000883
:101D6C00991C0008991C0008991C0008991C000873
:101D7C00991C0008991C0008991C0008C51D000836
:101D8C009DF81F30DBB2082B3FF67BAF9DF81F3060
:101D9C000133DBB28DF81F30072477E79DF81F3035
:101DAC0013F0FF0F3FF46FAF9DF81F30013BDBB218
:101DBC008DF81F30072469E79DF81F10BDF81A3005
:101DCC00BDF81C2001FB03239BB2ADF81C30BDF801
:101DDC001A2092B202EB820253009BB2ADF81A3079
:101DEC009DF81E300133DBB28DF81E3000238DF8C8
:101DFC001F309DF81E30DBB2042B7FF446AFBDF8CC
:101E0C001C2092B240F257439A420FD1B8F1040F02
:101E1C000CD1184B00221A805A80D988013189B212
:101E2C00D9809A80FEF7FEFA404618E0BDF81C30C7
:101E3C009BB2D02B02D1B8F1030F0FD000238DF839
:101E4C001E30ADF81C300122ADF81A208DF81F3071
:101E5C0007241BE7404602E0404600E0082008B09B
:101E6C00BDE8F08134510008B00100204451000855
:101E7C005A0400204C03002010B586B08B4B1B7805
:101E8C00DB0921D001F072FB0520002101F056FB8B
:101E9C00874CE28992B2874B53F8220001F07EFB0B
:101EAC000020012101F04AFB628901A8824992B20B
:101EBC0002F09AFB01A801F071FB0020022101F055
:101ECC003DFB7E4801F06AFB784B1B7813F0080F42
:101EDC0005D07B4B93E803000190ADF80810734BD1
:101EEC001B7813F0080F05D1764B93E80300019093
:101EFC00ADF808100720022101F020FB01A801F029
:101F0C004DFB6A4B1B7813F0040F01D06E4B019301
:101F1C00664B1B7813F0040F01D16C4B019301A895
:101F2C0001F03CFB614B1B7813F0100F05D0684B94
:101F3C0093E803000190ADF808105C4B1B7813F08C
:101F4C00100F05D15F4B93E803000190ADF808101A
:101F5C0001A801F023FB564B9B7C13F0010F62D0C0
:101F6C000020032101F0EAFA514B9B7C13F0020F85
:101F7C0013D00020032101F0E1FA564B1A78092AFC
:101F8C0004D801A8544902F02FFB03E001A85349DF
:101F9C0002F02AFB01A801F001FB454B9B7C13F0DE
:101FAC00040F1CD00520032101F0C8FA4C4B1A7801
:101FBC00092A05D801A84B49002202F015FB0AE0BA
:101FCC00632A04D801A8484902F00EFB03E001A8DB
:101FDC00454902F009FB01A801F0E0FA46E0334B59
:101FEC001B7813F0010F08D0404B93E803000190CD
:101FFC00ADF80810090C8DF80A102C4B1B7813F057
:10200C00010F08D13A4B93E803000190ADF808108A
:10201C00090C8DF80A100520032101F08FFA01A894
:10202C0001F0BCFA22E0214B1B7813F0010F08D011
:10203C002E4B93E803000190ADF80810090C8DF8B5
:10204C000A101A4B1B7813F0010F08D1284B93E898
:10205C0003000190ADF80810090C8DF80A1005204A
:10206C00032101F06BFA01A801F098FA0F4B1B78D1
:10207C0013F0020F05D001AB1E4A92E8030083E86F
:10208C0003000A4B1B7813F0020F05D101AB1A4A5F
:10209C0092E8030083E803000D20032101F04EFABF
:1020AC0001A801F07BFA06B010BD00BFAC01002006
:1020BC00B4010020000000204C51000858510008C9
:1020CC00605100086851000820D3D4002020200063
:1020DC007051000858060020785100088051000803
:1020EC00590400208851000894510008A0510008A0
:1020FC00A8510008B0510008B85100082DE9F04F64
:10210C0083B000248DF8054001F030FA914B1C701F
:10211C0007264FF001099A46DFF848829AF80030FA
:10212C00DBB20A2B00F2128116F0020F22D001F062
:10213C001DFA0027CB4619E058F8293004EB44056A
:10214C00AD005B597BB18DF806400020394601F09B
:10215C00F5F958F82B300134E4B2585901F01EFA55
:10216C000137FFB202E0013CE4B201E0032FE3D9F6
:10217C0006F0FD0616F0010F14D09DF80710132081
:10218C0001F0DCF9744801F009FA9DF805101320F0
:10219C0001F0D4F9714801F001FA06F0FE060023B3
:1021AC008AF8003000F09EFC9DF80530DBB28DF80B
:1021BC0007306B4B1B78943B282BAFD801A252F8FD
:1021CC0023F000BF752200082921000829210008EE
:1021DC002921000891220008292100082921000842
:1021EC0029210008B1220008292100082921000812
:1021FC00292100082921000829210008292100088B
:10220C00292100082921000829210008292100087A
:10221C00292100082921000829210008292100086A
:10222C00292100082323000829210008292100085E
:10223C00292100082921000829210008292100084A
:10224C00292100082921000829210008292100083A
:10225C00292100082921000829210008292100082A
:10226C0029210008B72200089DF8053013F0FF0F54
:10227C0005D09DF80530013BDBB28DF8053046F0FA
:10228C0001064BE79DF805209DF80630D2B29A4224
:10229C0005D29DF805300133DBB28DF8053046F0E0
:1022AC0001063BE706F0FB0638E716F0040F2FD1CA
:1022BC0058F829209DF8053003EB43039B00134489
:1022CC001B7963B19DF8053003EB43039B0013446A
:1022DC0093F8049000248DF8054003261EE79DF822
:1022EC00053003EB43039B0013449B68002B3FF426
:1022FC0015AF9DF8053003EB43039B0013449B681B
:10230C0048469847814600248DF80540072605E786
:10231C0006F0FB0602E716F0040F7FF4FFAE58F848
:10232C0029209DF8053003EB43039B0013445B7994
:10233C0063B19DF8053003EB43039B00134493F802
:10234C00059000248DF805400726E7E603B0BDE8AC
:10235C00F08F00BFB00100206C510008C051000884
:10236C005A040020740000202DE9F04F89B08346F8
:10237C00884692469946129F0B88DBB28DF807303F
:10238C000020022101F0DAF8794801F007F9002069
:10239C00032101F0D3F8774801F000F90022764BC5
:1023AC001A7007241D46754E06E0072404E0072426
:1023BC0002E0072400E007242B78DBB20A2B00F2A2
:1023CC00D28014F0020F18D000202870012101F0E7
:1023DC00B5F83B6853B99DF8072002A8684902F08C
:1023EC0003F902A801F0DAF8052406E09DF807309D
:1023FC0057F8230001F0D2F8052400F073FB337872
:10240C00943B282BD8D801A252F823F0BD24000805
:10241C00C5230008C5230008C523000813250008A0
:10242C00C5230008C5230008C5230008C5230008E0
:10243C00C5230008C5230008C5230008C5230008D0
:10244C00C5230008C5230008C5230008D9240008AB
:10245C00C5230008C5230008C52300082F25000844
:10246C00C5230008C5230008C523000873250008F0
:10247C00C5230008C5230008C5230008C523000890
:10248C00C5230008C5230008C5230008C523000880
:10249C00C5230008C5230008C5230008C523000870
:1024AC00C5230008C5230008C523000869250008BA
:1024BC009DF80730DBB24B45BFF477AF9DF8073082
:1024CC000133DBB28DF80730072475E79DF8072040
:1024DC00D2B2A9F109039A4207DA9DF807300A3300
:1024EC00DBB28DF80730072466E79DF80730DBB2C6
:1024FC004B45BFF45CAF9DF807300133DBB28DF870
:10250C000730072458E79DF80730DBB253457FF6B8
:10251C0050AF9DF80730013BDBB28DF80730072434
:10252C004AE79DF80720D2B20AF10A039A4207DD66
:10253C009DF807300A3BDBB28DF8073007243BE7E8
:10254C009DF80730DBB253457FF635AF9DF8073069
:10255C00013BDBB28DF8073007242DE79DF80730DF
:10256C00DBB2A8F80030584609B0BDE8F08F00BFC8
:10257C00C451000820510008B00100205A0400206A
:10258C004451000830B589B0054600F0EFFF00F06B
:10259C00EDFF0020014600F0D1FF02AB0B4A07CA49
:1025AC0083E80700184600F0F9FF094C094B00932B
:1025BC002846214600226323FFF7D6FE083C2289D9
:1025CC0092B2054BA3F8022109B030BDD8510008D6
:1025DC00BC010020740100207C06002070B588B07E
:1025EC00064600F0C3FF00F0C1FF0020014600F0DA
:1025FC00A5FF02AC0C4D0FCD0FC42B68237002A8A5
:10260C0000F0CCFF094C0A4B0093304621460122C6
:10261C007023FFF7A9FE0A3C628992B2054BA3F81E
:10262C00042108B070BD00BFE4510008BE010020B9
:10263C00740100207C06002010B582B0044600F026
:10264C0095FF00F093FF0020014600F077FF06484D
:10265C0000F0A4FF054B00932046054900221A23E5
:10266C00FFF782FE02B010BDF851000800000020F8
:10267C00C201002030B583B0054600F077FF00F0B2
:10268C0075FF0020014600F059FF0A4800F086FF54
:10269C00094C0A4B00932846214601226323FFF77D
:1026AC0063FE063CE28892B2054BA3F8FE2003B011
:1026BC0030BD00BF00520008BA0100207401002098
:1026CC007C06002010B582B0044600F04FFF00F0ED
:1026DC004DFF0020014600F031FF064800F05EFF80
:1026EC00054B00932046054901226323FFF73CFE6E
:1026FC0002B010BD1452000874010020C401002067
:10270C0030B585B0054600F031FF00F02FFF0020FA
:10271C00014600F013FF144800F040FF134CA37C5B
:10272C0003F0010304A921F8023D114B0093284644
:10273C0000220123FFF718FEBDF80E20A37C23F026
:10274C000103002A18BF43F00103A374A37C13F008
:10275C00010F07D1A27C22F00202A274A27C22F00B
:10276C000402A27405B030BD2C520008B401002044
:10277C00A000002030B585B0054600F0F7FE00F053
:10278C00F5FE0020014600F0D9FE134800F006FFCC
:10279C00124CA37CC3F3400304A921F8023D104B57
:1027AC000093284600220123FFF7DEFDBDF80E2022
:1027BC00003218BF0122A37C23F0020343EA420338
:1027CC00A374A37C13F0020F03D0A27C42F001028D
:1027DC00A27405B030BD00BF3C520008B40100200B
:1027EC00A000002030B585B0054600F0BFFE00F01B
:1027FC00BDFE0020014600F0A1FE134800F0CEFE05
:10280C00124CA37CC3F3800304A921F8023D104BA6
:10281C000093284600220123FFF7A6FDBDF80E20E9
:10282C00003218BF0122A37C23F0040343EA820385
:10283C00A374A37C13F0040F03D0A27C42F001021A
:10284C00A27405B030BD00BF50520008B401002086
:10285C00A000002030B585B0054600F087FE00F0E2
:10286C0085FE0020014600F069FE0B4800F096FE44
:10287C000A4CA38804A921F8023D094B0093284671
:10288C000122FF23FFF770FDBDF80E30A380054A2F
:10289C00A2F8F83005B030BD5C520008B40100203D
:1028AC00740100207C06002030B585B0054600F090
:1028BC005DFE00F05BFE0020014600F03FFE174875
:1028CC0000F06CFE164CA378C3F3C20304A921F8E4
:1028DC00023D144B0093284600220723FFF744FDCA
:1028EC00BDF80E1001F00702A37823F0380343EA79
:1028FC00C203A3700C4AB2F8F63023F038031B0461
:10290C001B0CA2F8F630B2F8F6309BB243EA810108
:10291C0089B2A2F8F61005B030BD00BF6C520008A9
:10292C00B4010020A80000207C06002030B585B042
:10293C00054600F01BFE00F019FE0020014600F0D9
:10294C00FDFD164800F02AFE154CA37803F0010398
:10295C0004A921F8023D134B0093284600220123C1
:10296C00FFF702FDBDF80E10A37823F00103002938
:10297C0018BF43F00103A3700B4AB2F8F63023F0F2
:10298C0001031B041B0CA2F8F630B2F8F6309BB214
:10299C001943A2F8F61005B030BD00BF80520008F4
:1029AC00B4010020A00000207C06002030B585B0CA
:1029BC00054600F0DBFD00F0D9FD0020014600F0DB
:1029CC00BDFD174800F0EAFD164CA378C3F3400395
:1029DC0004A921F8023D144B009328460022012340
:1029EC00FFF7C2FCBDF80E100A1C18BF0122A37819
:1029FC0023F0020343EA4203A3700C4AB2F8F63008
:102A0C0023F002031B041B0CA2F8F630B2F8F630CC
:102A1C009BB243EA410189B2A2F8F61005B030BD71
:102A2C0080520008B40100206C0000207C060020BD
:102A3C0030B585B0054600F099FD00F097FD0020FB
:102A4C00014600F07BFD164800F0A8FD154C63888C
:102A5C00C3F38003013304A921F8023D124B009308
:102A6C00284601220223FFF77FFCBDF80E104A1EF8
:102A7C00638862F3820363800C4AB2F8F63023F069
:102A8C0004031B041B0CA2F8F630B2F8F6309BB210
:102A9C00013943EA810189B2A2F8F61005B030BDC4
:102AAC0090520008B4010020740100207C06002024
:102ABC0010B50446FFF7CEFE2046FFF7F5FE204684
:102ACC00FFF734FF064B9B7813F0010F02D0204622
:102ADC00FFF76CFF2046FFF7ABFF204610BD00BF91
:102AEC00B401002070B43F4B1E7806F07F061E70B8
:102AFC003D49002540F6FE72886800F003008B68A3
:102B0C009B0903F00C0318432B4601E001339BB2E5
:102B1C009342FBD98C6804F003048B689B0903F087
:102B2C000C0323439842E7D106F07003102B12D00C
:102B3C0001D82BB150E0202B33D0302B27D04BE0D9
:102B4C00002849D060F06F00264B18704FF47A7251
:102B5C00264B1A8040E030B906F00F0262F04F02AB
:102B6C00204B1A7038E006F00F06B04234D11F4BE0
:102B7C001B8843B966F05F061A4B1E704FF4FA625D
:102B8C001A4B1A8028E0013B184A138024E020B12C
:102B9C0060F06F00134B18701EE00022114B1A707E
:102BAC001AE030B906F00F0262F04F020D4B1A70AA
:102BBC0012E006F00F06B0420ED10C4B1B8843B945
:102BCC0066F05F06074B1E704FF4FA62074B1A80D3
:102BDC0002E0013B054A1380024B1A78044B1A7031
:102BEC0070BC704778010020000C01407A01002075
:102BFC005A0400202DE9F04383B03D20012101F05F
:102C0C00FBFB3D48012101F047FBF023ADF80430FC
:102C1C0010258DF8075001248DF80640374F3846A3
:102C2C0001A901F0E3FA0823ADF804308DF8075040
:102C3C008DF80640384601A901F0D8FA0426ADF803
:102C4C0004608DF807508DF806402D480DEB0601F9
:102C5C0001F0CCFA4FF48053ADF804308DF80750E6
:102C6C008DF80640DFF8A08040460DEB060101F020
:102C7C00BDFA40F20333ADF804308DF807604FF025
:102C8C0002098DF8069038460DEB060101F0AEFAFC
:102C9C004FF4E053ADF804308DF807508DF8064032
:102CAC0038460DEB060101F0A1FAC023ADF8043053
:102CBC008DF807508DF8064040460DEB060101F0EB
:102CCC0095FAFF23ADF804308DF807608DF8069067
:102CDC000C480DEB060101F089FA3023ADF80430F5
:102CEC008DF807608DF8069040460DEB060101F05B
:102CFC007DFA03B0BDE8F08300023000000C014007
:102D0C0000140140000801400010014010B582B0D1
:102D1C004FF4C06001F064F903238DF804300124F2
:102D2C008DF8054000238DF806308DF8074001A87A
:102D3C0001F060F94FF0C050214601F06BFB2046CA
:102D4C0001F0F8FB204601F0E3FA6124204601F083
:102D5C006FFB0028FAD04FF4007001F0DFFA01206D
:102D6C0001F0E4FA01F0BCFB01F0B0FB01200146DC
:102D7C0001F078FB01F0AAFB49F63F4001F096FB0D
:102D8C0001F0A4FB02B010BD30B587B04FF4802029
:102D9C00012101F03FFB2748012101F07DFA4FF49E
:102DAC000063ADF8043004238DF80730224D28461B
:102DBC000DEB030101F01AFA4FF48063ADF8043007
:102DCC0003248DF8064018238DF80730284601A9F6
:102DDC0001F00CFA4FF40043ADF804308DF80640C6
:102DEC0010238DF80730154801A901F0FFF94FF4B5
:102DFC00165302930023ADF80C30ADF80E30ADF83D
:102E0C001030ADF814300C23ADF812300C4C2046B9
:102E1C0002A901F023F980220A4B5A60204640F2A5
:102E2C002551012201F08CF92046012101F07AF99B
:102E3C0007B030BD10001400001001400008014024
:102E4C000048004000E100E04F4B9A6942F0040258
:102E5C009A619A6942F001029A619A6942F480423D
:102E6C009A61A3F584335A6822F0F0025A605A68CA
:102E7C0042F0B0025A605A6822F470625A605A6882
:102E8C0042F480625A6010F0010F17D003F54053E2
:102E9C009A8992B242F480629A8110F0020F07D0A4
:102EAC001A469B8923F400731B041B0C938105E0C9
:102EBC00364B9A8992B242F400729A81334A138A41
:102ECC0023F440531B041B0C138210F0040F05D089
:102EDC001346128A92B242F400521A82C0F3C20014
:102EEC0000B301281BD0022816D0032811D00428C7
:102EFC000CD0052807D0062802D140F2A93213E0E5
:102F0C0040F2712210E040F2E2420DE040F25372C6
:102F1C000AE040F6C41207E040F6A66204E041F273
:102F2C00883201E041F64C52184B1A819A8922F4EE
:102F3C0080521204120C9A819A8992B242F4005275
:102F4C009A819A8992B242F008029A819A8992B235
:102F5C0042F004029A819A8992B242F010029A814C
:102F6C000B4B402283F8252320225A6003F1C043E7
:102F7C0003F51C535A6822F00F025A605A6842F04B
:102F8C0003025A60704700BF001002400038014035
:102F9C0000E100E0194B9A8A92B242F080029A82C8
:102FAC0003F558435A6942F001025A61A3F6BC7307
:102FBC00134A9A60D86000221A601A6822F0200224
:102FCC001A601A6842F010021A601A6822F44072F1
:102FDC001A601A6822F040021A601A6822F44062E1
:102FEC001A601A6842F080021A601A6842F00202F3
:102FFC001A604FF48042034B1A607047003801404E
:10300C000438014000E100E0164B9A8A92B242F07B
:10301C0040029A8203F558435A6942F001025A6100
:10302C00A3F6A873104A9A60D860596000221A60FF
:10303C001A6822F010021A601A6822F440721A60A0
:10304C001A6822F040021A601A6822F440621A6070
:10305C001A6842F080021A601A6842F020021A6064
:10306C00704700BF003801400438014030B583B0D0
:10307C004FF48040012101F0CDF94FF46043ADF8DD
:10308C00043003238DF8063018238DF807302748B9
:10309C0001A901F0ABF84FF40065ADF80450102312
:1030AC008DF8073001238DF80630214C204601A9FC
:1030BC0001F09CF825611F4B1A8892B242F0100265
:1030CC001A801A8822F002021204120C1A801A8832
:1030DC0022F001021204120C1A801A8822F40062E7
:1030EC001204120C1A801A8822F080021204120C9C
:1030FC001A801A8892B242F400721A801A8892B21C
:10310C0042F480721A809A8822F004021204120C83
:10311C009A801A8892B242F004021A801A8892B2EB
:10312C0042F040021A8003B030BD00BF000C0140D9
:10313C0000080140003800404FF480720A4B1A61BD
:10314C0000BF00BF03F5784344331A6822F0010234
:10315C001A605860054A516841F4005151601A6870
:10316C0042F001021A607047000801400000024062
:10317C00064B1A6822F001021A604FF48072A3F514
:10318C007843443B5A6100BF00BF70474400024083
:10319C00084B1A6822F001021A60FF225A60064A94
:1031AC00516841F4003151601A6842F001021A6012
:1031BC00704700BF5800024000000240024B1A68E2
:1031CC0022F001021A60704758000240044B9881AB
:1031DC001A46138903F002039BB2002BF9D07047F7
:1031EC0000380040044A138913F0010FFBD0024B46
:1031FC009889C0B2704700BF0038004010B582B04B
:10320C0004464FF400621A4B5A6100BF00BF00BF66
:10321C0000BF00BF430903F00803DBB28DF8073091
:10322C009DF8070040F00300FFF7D0FFE0B2FFF776
:10323C00CDFFFFF7D7FF8DF807000020FFF7C6FF83
:10324C00FFF7D0FF8DF807000A4A138903F08003BB
:10325C009BB2002BF9D1FFF7C5FF8DF807004FF497
:10326C000062034B1A619DF8070002B010BD00BF4D
:10327C00000801400038004008B54FF400620C4BC8
:10328C005A6100BF00BF00BF00BF00BF0620FFF7A0
:10329C009DFF084A138903F080039BB2002BF9D1E0
:1032AC00FFF7A0FF4FF40062014B1A6108BD00BF8D
:1032BC00000801400038004008B54FF400620C4B88
:1032CC005A6100BF00BF00BF00BF00BF0420FFF762
:1032DC007DFF084A138903F080039BB2002BF9D1C0
:1032EC00FFF780FF4FF40062014B1A6108BD00BF6D
:1032FC00000801400038004000B583B04FF4006274
:10330C00114B5A6100BF00BF00BF00BF00BF0520BA
:10331C00FFF75CFF0020FFF759FFFFF763FF0B4A35
:10332C00138903F080039BB2002BF9D1FFF75AFFEE
:10333C008DF807004FF40062034B1A619DF80700EB
:10334C0003B05DF804FB00BF0008014000380040EA
:10335C0030B583B004460D46FFF7CEFF10F0010FD9
:10336C00FAD1FFF789FFFFF7C7FF10F0010FFAD171
:10337C004FF40062194B5A6100BF00BF00BF00BF81
:10338C0000BF630903F00803DBB28DF807309DF82A
:10339C00070040F00200FFF719FFE0B2FFF716FF3D
:1033AC00FFF720FF2846FFF711FFFFF71BFF0C4A22
:1033BC00138903F080039BB2002BF9D1FFF712FFA6
:1033CC008DF807004FF40062044B1A61FFF794FF6D
:1033DC0010F0010FFAD1002003B030BD00080140FD
:1033EC0000380040074BDA6942F00402DA61A3F5B9
:1033FC00023341F63F721A851A8892B242F00802E3
:10340C001A80704700100240094B988500229A845C
:10341C0001221A801A46138A13F0010FFBD0044ABA
:10342C00138A23F001031B041B0C1382704700BF8B
:10343C000008004010B5114BDA6822F00402DA6083
:10344C000F4CE36823F0F0030001C0B20343E360C8
:10345C00E36823F00803E3600520FFF7D5FFE3687A
:10346C0043F00803E3600520FFF7CEFFE36823F089
:10347C000803E3600520FFF7C7FF10BD00140140EF
:10348C00000C014010B504460120FFF7BDFF064BB0
:10349C00DA6822F48052DA602009FFF7CBFF20466D
:1034AC00FFF7C8FF10BD00BF0010014010B5044667
:1034BC000120FFF7A9FF064BDA6842F48052DA606C
:1034CC002009FFF7B7FF2046FFF7B4FF10BD00BF80
:1034DC000010014008B5C820FFF796FF164BDA68BC
:1034EC0022F48052DA600320FFF7A4FF3220FFF7AA
:1034FC008BFF0320FFF79EFF0A20FFF785FF0320B9
:10350C00FFF798FF0A20FFF77FFF0220FFF792FFDB
:10351C000A20FFF779FF2820FFF7B4FF0C20FFF7F4
:10352C00B1FF0120FFF7AEFF0620FFF7ABFF8020B5
:10353C00FFF7A8FF08BD00BF0010014008B5032924
:10354C000ED8DFE801F00204070AC0B209E04030EF
:10355C00C0B206E01430C0B203E05430C0B200E098
:10356C00C0B240F08000FFF78DFF08BD08B5012008
:10357C00FFF788FF0220FFF785FF08BDBF2803D99E
:10358C004030C0B2014B185C704700BF9C5600081D
:10359C0008B5FFF7F3FFFFF789FF08BD10B5044628
:1035AC0002E00134FFF7F4FF20780028F9D110BDB8
:1035BC002DE9F04F83B001908A4615461E460C9CAF
:1035CC009DF834904FF00008554F07EB0917554BF9
:1035DC001B78042BFBD8DFE803F0032549657F003B
:1035EC00019B2370032363704FEA1A23A37084F8A2
:1035FC0003A02B0A237165712046062100F014FBF1
:10360C00A071000AE071082384F80031002384F8CB
:10361C00013184F8FF30C8237B6001233B70414AA1
:10362C001370D4E749463B7B03F0FF0213B1002330
:10363C003B73BB6052B13A48090142180023435412
:10364C0013739360374A1370FE2065E094F80131D0
:10365C00002B60D0002384F801310221314A117013
:10366C003A4602F8083B1371BB60B0E74FEA4508D5
:10367C0008F105085FFA88F894F8FF3043450AD042
:10368C0008F10102934206D0002384F8FF30254A4A
:10369C001370FD2040E0002384F8FF300322214BFF
:1036AC001A7094E708F1FF3314F803B0A8F1020183
:1036BC00635C03EB0B2B1FFA8BFB2046C9B200F0AB
:1036CC00B3FA584504D00022164B1A70FD2023E0A3
:1036DC000422144B1A707AE7607810F0800F12D025
:1036EC000022104B1A7000F0010015E004EB4302AD
:1036FC00D1789A1C14F8122002EB012226F8132020
:10370C000133DBB200E00023AB42EFD30022054BC8
:10371C001A70FF2000E0002003B0BDE8F08F00BF5E
:10372C00C80100207D0100202DE9F04F83B00190ED
:10373C008B4616461D460C9C9DF834A00027594B11
:10374C0003EB0A18584B1B78042BFBD8DFE803F06B
:10375C0003436B7E9600019B2370102363704FEA2A
:10376C001B23A37084F803B0330A237166714FEAEC
:10377C0046095FFA89F984F8069000230CE004EB03
:10378C00430235F81310090AD1711A1D35F81310BC
:10379C0004F812100133DBB2B342F0D309F107077E
:1037AC00FFB22046394600F03FFAE0557B1C000A78
:1037BC00E05409F1090984F80091002384F80131DF
:1037CC0084F8FF30C823C8F80430012388F800308F
:1037DC00354A1370B6E7514698F80C3003F0FF02E7
:1037EC0023B1002388F80C30C8F8083052B12D48AA
:1037FC000901421800234354137393602A4A13702F
:10380C00FE204BE094F80131002B46D0002384F8C5
:10381C0001310221244A1170424602F8083B13710F
:10382C00C8F808308EE794F8FF30082B06D0002338
:10383C0084F8FF301C4A1370FD202FE0002384F81D
:10384C00FF300322184B1A7008277BE77B1E14F8F5
:10385C000390B91E635C03EB09291FFA89F9204612
:10386C00C9B200F0E1F9484504D000220E4B1A70A1
:10387C00FD2013E004220C4B1A7063E7637813F0FD
:10388C00800F05D00021084A117003F0010005E0FB
:10389C000022054B1A70FF2000E0002003B0BDE8A9
:1038AC00F08F00BFC80100207C0100202DE9F04FF3
:1038BC00C1B004460E460192002300931D461F46DC
:1038CC0099464FF00D0B9846A8E10C2B00F2A681FF
:1038DC00DFE813F00D0014001F002E0039007200F9
:1038EC008600DF0009011C014D015D016D0194F89A
:1038FC000131002B00F06F8101238FE194F8FF3030
:10390C00072B00F26A8184F8019184F8FF905B46E2
:10391C0084E12378DDF804A0534500F06081002B8E
:10392C0000F05F8184F8019184F8FF905B4675E1AB
:10393C006378032B00F05781102B00F05681052B78
:10394C0040F055816AE1A778E27802EB0727BFB215
:10395C002579627902EB0525ADB27A19013A91B25B
:10396C006278102A12D194F8FF206B0009339A4226
:10397C0005D084F8019184F8FF905B464EE17829DC
:10398C0040F2398107230220009047E1032A40F0DE
:10399C00458194F8FF30083BDBB2012B05D984F844
:1039AC00019184F8FF905B4638E1822940F2258131
:1039BC0007230221009131E1A778E37843EA072736
:1039CC00012F00F21C8194F8FF30083BDBB2012B75
:1039DC0040F2198184F8019184F8FF905B461DE157
:1039EC006378102B3ED134E05A00D01D14F800A09F
:1039FC00181D14F8100040EA0A200DF5807A524484
:103A0C0022F8F40CC9B10AEB430232F8F40C80B280
:103A1C00DA1906EB4201B1F8FC1188420FD30AEB1C
:103A2C00430C3CF8F41C89B206EB4202B2F8EE22CD
:103A3C00914206D93AB1414606E0414604E041467E
:103A4C0002E0012100E0012101F0010101339BB2F0
:103A5C0001E001214B46AB42C6D309B903200090CB
:103A6C000723DBE0052B40F0D0802279637943EA11
:103A7C000223ADF80A30BDF80A309BB23BB1BDF859
:103A8C000A309BB2B3F57F4F01D00321009107237D
:103A9C00C4E094F8FF1002392046C9B200F0C4F813
:103AAC00C2B2C0F3072094F8FF30991E615C9142BA
:103ABC0003D1013BE35C834205D084F8019184F887
:103ACC00FF905B46AAE0009A002A40F0A080637841
:103ADC00032B00F09E80102B00F09D80052B40F0F6
:103AEC009C800B239AE023782BB984F8019184F8FD
:103AFC00FF905B4692E0637863F07F036370009BFA
:103B0C00A370032384F800310C2387E023782BB9AE
:103B1C0084F8019184F8FF905B467FE06B00A37002
:103B2C004B460FE004EB4301DA19783206EB420204
:103B3C005088C0F30720C870991C528804F81120D3
:103B4C0001339BB2AB42EDD3A378033384F800313D
:103B5C000C2363E0FA180DF5807A0AEB430131F877
:103B6C00F41C89B226F8121001339BB200E04B46CC
:103B7C00AB42EFD323782BB984F8019184F8FF90F2
:103B8C005B464BE0062384F800310C2346E0BDF87D
:103B9C000A2092B207F1FC0326F81320082384F8BC
:103BAC00003184F8019184F8FF905B4636E02046A2
:103BBC0094F8001100F038F894F80031E0545A1CD5
:103BCC00000AA054023384F8003184F8019184F87F
:103BDC00FF905B4622E05B4620E002231EE00323BD
:103BEC001CE003231AE0042318E0042316E0072347
:103BFC000120009012E0062310E007230EE00723BB
:103C0C00022100910AE0062308E0072306E00823BE
:103C1C0004E0092302E00A2300E05B460D2B7FF44D
:103C2C0054AE41B0BDE8F08FF0B44FF6FF730027EF
:103C3C004AF2010410E0461C027853403A4607E071
:103C4C0013F0010F02D084EA530300E05B08013249
:103C5C00072AF5DD294630464A1ED5B20029EAD19D
:103C6C001846F0BC704700BF70B400231E494FF6D5
:103C7C00FF7203E021F8132001339BB2092BF9D911
:103C8C001A4B1B68B3F1FF3F29D000231C46174980
:103C9C00154E15E001EB8302528892B2092A0AD81C
:103CAC0031F82350ADB226F81250944238BF144666
:103CBC0001339BB204E00E4A1380092C11D101E0B0
:103CCC00FF2BE7D90023084905E031F8132020F831
:103CDC00132001339BB2092BF7D9012002E00020FD
:103CEC0000E0002070BC70478C010020007C0008B4
:103CFC0088010020A04B1B78062B00F23C81DFE8EA
:103D0C0013F007001F0068007B00AA00EC000801FC
:103D1C009A4B1B889A4A32F8131089B230F8132048
:103D2C00914207D101339BB20A2B00D10023934A55
:103D3C0013807047934B1A8001228F4B1A70704777
:103D4C00914B1B889BB2B3F5807F06D100228E4B22
:103D5C001A800522884B1A7070478B4B1A8892B2C6
:103D6C008A4B33F8222092B24FF6FF739A4222D13B
:103D7C00874B1B6913F0800F05D0854B854A5A6021
:103D8C0002F188325A60824B00221A611A6942F0A1
:103D9C0001021A617C4B1B889BB29B0003F10063F0
:103DAC0003F5F8437C4A1360764A12881A80022283
:103DBC00714B1A707047744B1B889BB29B0003F1BC
:103DCC00006303F5F843744A136003226A4B1A70BC
:103DDC0070476F4BDB6813F0200F00F0CC806C4BFE
:103DEC00DA6842F02002DA601A6942F080021A6145
:103DFC000322614B1A707047634B1B889BB29B006C
:103E0C0003F1006303F5F8435A8892B24FF6FF733F
:103E1C009A421CD15E4B1B6913F0800F05D05C4B92
:103E2C005C4A5A6002F188325A60594B00221A617E
:103E3C001A6942F001021A61574A1368991C116001
:103E4C004E4A12885A8004224B4B1A707047052236
:103E5C00494B1A7070474E4BDB6813F0200F29D07A
:103E6C004B4BDA6842F02002DA60474B1B889BB25E
:103E7C009B0003F1006303F5F8435A8892B23F4B61
:103E8C001B889A4209D1404A118889B23F4A32F8BC
:103E9C00211089B23A4A22F813103B4B1A8801328E
:103EAC0092B21A803A4B1A6942F080021A610022CF
:103EBC00314B1A70364BDB6813F0040F06D0344BC1
:103ECC00DA6842F00402DA60012300E00023002BE0
:103EDC0051D00522284B1A7070472D4B1B6913F0DB
:103EEC00800F05D02A4B2B4A5A6002F188325A6057
:103EFC00274B00221A611A6942F002021A61234A06
:103F0C005A611A6942F040021A6106221A4B1A7061
:103F1C0070471F4BDB6813F0200F2CD01C4BDA685A
:103F2C0042F02002DA6000234FF0FF32174804E021
:103F3C0050F823100A4001339BB2FF2BF8D9B2F191
:103F4C00FF3F15D1124B1A6942F080021A6100230F
:103F5C000B494FF6FF7203E021F8132001339BB29B
:103F6C00092BF9D90023044A1370074A13807047B0
:103F7C000522014B1A7070478A0100207E01002037
:103F8C008C0100208001002088010020007C0008AA
:103F9C000020024023016745840100200C4B1A6865
:103FAC00136843F0010313600A4B1B681A686FF324
:103FBC009F221A60084B1A68536843F00103536040
:103FCC00064B1B681A686FF3DF321A60704700BF2C
:103FDC00D0000020C8000020CC000020D40000201D
:103FEC0040F0BF6040F40030014BD860704700BF18
:103FFC0000ED00E0C37803B3164BDB68DB43C3F37F
:10400C000223C3F104020F2121FA03F3417801FAD0
:10401C0002F281781940114309010278C9B20E4BA2
:10402C001A4482F800130278510902F01F02012091
:10403C0000FA02F243F8212070470378590903F083
:10404C001F03012202FA03F32031034A42F8213004
:10405C00704700BF00ED00E000E100E030B587B034
:10406C0004460D46038A23F440531B041B0CCA88D8
:10407C0013430382828992B222F4B05222F00C02D2
:10408C0088880B89498903430B431343A381A38A73
:10409C0023F440731B041B0CAA891343A38201A8AD
:1040AC0000F04AF91D4B9C4201D1049A00E0039A9E
:1040BC00A3891BB2002B08DA02EB820202EB82020C
:1040CC002B685B00B2FBF3F207E002EB820202EB1F
:1040DC00820229688900B2FBF1F2114BA3FB021397
:1040EC005B091801642103FB1123A18909B2002982
:1040FC0008DADB0032330A4DA5FB0323C3F342136A
:10410C00034307E01B013233054DA5FB0313C3F337
:10411C00431303439BB2238107B030BD00380140E9
:10412C001F85EB5129B183899BB243F400538381E2
:10413C007047838923F400531B041B0C8381704745
:10414C0010B4C1F3421301F01F01012404FA01F170
:10415C00A34201D10C3004E0022B01D1103000E05D
:10416C0014301AB103681943016003E0036823EAB1
:10417C00010101605DF8044B704700BFC1F30801F9
:10418C00818070478088C0F308007047038819420B
:10419C0001D0012070470020704700BF10B4C1F35C
:1041AC00421301F01F0201249440012B03D1828998
:1041BC0092B2224008E0022B03D1028A92B2224032
:1041CC0002E0828A92B22240090A012303FA01F129
:1041DC0003889BB2194012B119B9002002E00020EB
:1041EC0000E001205DF8044B704700BF2DE9F001A1
:1041FC00CB7803F00F02164613F0100F01D08E7817
:10420C0016430B78FBB10768002301254FF00F0C08
:10421C0016E005FA03F20C88144094420FD19C006E
:10422C000CFA04F827EA080706FA04F42743CC78BA
:10423C00282C01D1426102E0482C00D102610133EB
:10424C00072BE6D907600B88FF2B21D94768002381
:10425C0001254FF00F0C18E003F1080205FA02F2E9
:10426C000C88144094420FD19C000CFA04F827EAF5
:10427C00080706FA04F42743CC78282C00D14261B5
:10428C00CC78482C00D102610133072BE4D947606C
:10429C00BDE8F001704700BF30B4002802DA1B4BB8
:1042AC00DB6901E0194B5B68C0F3034584B200F491
:1042BC004012B2F5401F07D123F07063134A5568C2
:1042CC0025F07065556012E010F4801F07D00322B2
:1042DC0002FA05F523EA050343F0706307E0420D8B
:1042EC00120104FA02F223EA020343F0706319B1DB
:1042FC00420D120194402343002802DA034AD36191
:10430C0001E0024A536030BC704700BF000001401E
:10431C00014B1860704700BF80044242024B1A6A7E
:10432C0010431862704700BF00100240014B186028
:10433C00704700BF3C04424210B42A4B5B6803F048
:10434C000C03042B05D0082B06D013BB264B0360A3
:10435C0021E0254B03601EE0224B5A685B68C2F3D8
:10436C008342023213F4803F04D1204B03FB02F250
:10437C00026010E01B4B5B6813F4003F04D01B4B36
:10438C0003FB02F2026006E0174B03FB02F2026031
:10439C0001E0154B0360134B5A68C2F30312144926
:1043AC008A5CD2B2046824FA02F242605C68C4F3FC
:1043BC0002240C5DE4B222FA04F484605C68C4F359
:1043CC00C224095DC9B2CA40C2605B68C3F38133C1
:1043DC000849CB5CDBB2B2FBF3F202615DF8044B33
:1043EC00704700BF0010024000127A0000093D0027
:1043FC00DC000020D800002021B1054B9A69104345
:10440C0098617047024B9A6922EA000098617047E4
:10441C000010024021B1054BDA691043D861704796
:10442C00024BDA6922EA0000D861704700100240A2
:10443C004309012B02D10A4B1B6806E0022B02D167
:10444C00074B1B6A01E0064B5B6A00F01F0023FA66
:10445C0000F010F0010F01D00120704700207047D0
:10446C000010024029B1064B1A8892B210431880F2
:10447C007047034B1A88C04380B2104018807047B5
:10448C0000280040034B9A8892B242F010029A80A6
:10449C00704700BF00280040034A938823F01003A4
:1044AC001B041B0C938070470028004010B5044679
:1044BC00FFF7E8FFC4F30342034B1A81A4B29C81BB
:1044CC00FFF7EAFF10BD00BF00280040034A9388A5
:1044DC0003F020039BB2002BF9D07047002800405A
:1044EC00064A938823F008031B041B0C93809388C3
:1044FC0003F008039BB2002BF9D070470028004052
:10450C00064B9A88C1B20A401B88184202D01AB9CD
:10451C0000207047002070470120704700280040A1
:10452C00034B9A88C04380B202409A80704700BF08
:10453C0000280040014B1860704700BF20000E425D
:10454C00034B1A6802F0380210431860704700BF22
:10455C0000200240002103E00A4B5B584350043119
:10456C0009480A4B42189A42F6D3094A02E0002342
:10457C0042F8043B074B9A42F9D300F00FF8FCF7D2
:10458C0027FD70471C570008000000205001002038
:10459C0050010020600A0020FEE7000070B50E4BB1
:1045AC000E4D0024ED1AAD101E46AC4204D056F848
:1045BC00242090470134F8E700F02CFC084D094BFF
:1045CC000024ED1AAD101E46AC4204D056F824203F
:1045DC0090470134F8E770BD1457000814570008D1
:1045EC0018570008145700080EB400B54FF40271A8
:1045FC009CB0ADF814106FF00041049107914FF688
:10460C00FF711DABADF81610084953F8042B02903E
:10461C000690086802A9019300F066F8029B00223C
:10462C001A701CB05DF804EB03B070474C0100200D
:10463C002DE9F0478D688146AB420C4692461F46E9
:10464C0043D38B8913F4906F3DD0266809690222FD
:10465C00C1EB0608666906EB460696FBF2F608F116
:10466C0001023A44964238BF16465B050FD53146D7
:10467C0000F02CFB054698B12169424600F0BEFAC9
:10468C00A38923F4906343F08003A38113E03246A3
:10469C0000F072FB054670B94846216900F0D2FA69
:1046AC000C23C9F80030A3894FF0FF3043F04003CE
:1046BC00A381BDE8F087256166614544C8EB060619
:1046CC002560A6603D46AF4200D23D462A46206892
:1046DC00514600F09CFAA36800205B1BA360236882
:1046EC001D442560BDE8F0872DE9F0439DB0039390
:1046FC008B8907461C060D4616460CD50B6953B91B
:10470C00402100F0E3FA2860286110B90C233B60CB
:10471C00C7E040236B610023099320238DF82930D7
:10472C0030238DF82A3033461C4613F8012B1AB966
:10473C00B4EB06090FD002E0252AF5D1F8E738468C
:10474C00294632464B46FFF773FF013000F0A48038
:10475C00099B4B4409932378002B00F09D80002388
:10476C004FF0FF3204930793059206938DF8533064
:10477C001A9304F101094D4E4C463046217805221E
:10478C0000F02EFA09F10109049B28B1861B0120C7
:10479C00B04003430493EEE7D90644BF20228DF8C2
:1047AC0053201A0744BF2B228DF8532022782A2A33
:1047BC0002D0079B21460EE0039A111D126803914B
:1047CC00002A01DB079204E0524243F002030792F5
:1047DC00049301340AE00C4622780131303A092A5C
:1047EC0003D80A2000FB0323F5E7079323782E2B2D
:1047FC0019D163782A2B09D1039B02341A1D1B682B
:10480C000392002BB8BF4FF0FF330BE0611C002369
:10481C000C4622780131303A092A03D80A2000FBD1
:10482C000323F5E70593224E21783046032200F04E
:10483C00D7F930B1861B4020B040049B01340343B0
:10484C00049321781B480622661C8DF8281000F072
:10485C00C7F988B1184B33B9039B073323F007030F
:10486C000833039314E003AB0093384604A92A469B
:10487C00124BAFF3008007E003AB0093384604A95A
:10488C002A460E4B00F08EF8B0F1FF3F804603D065
:10489C00099B4344099346E7AB895B0601D409980D
:1048AC0001E04FF0FF301DB0BDE8F083DE5600088C
:1048BC00E4560008E8560008000000003D460008D9
:1048CC002DE9F84315461F468A680B6906469A423D
:1048DC00A8BF13462B6091F843200C46DDF82080CE
:1048EC000AB101332B602368990602D52B68023379
:1048FC002B60236813F006091DD094F8433022680E
:10490C00003318BF012392061FD5E118302081F81F
:10491C0043005A1C94F845102244023382F8431089
:10492C0013E03046394604F119020123C047013027
:10493C0007D009F10109E2682B68D31A9945F0DB1D
:10494C00DBE74FF0FF30BDE8F8833046394604F121
:10495C004302C0470130F4D023682A6803F00603F1
:10496C00E168042B08BFC2EB01052369A2680CBFE8
:10497C0025EAE57500259A42C4BFC3EB0203ED1886
:10498C004FF00009A9450ADA3046394604F11A02FB
:10499C000123C0470130D4D009F10109F2E700200E
:1049AC00BDE8F8832DE9FF470E7E80466E2E0C463F
:1049BC0091469A460C9D01F1430000F0A58011D858
:1049CC00632E22D009D8002E00F0B280582E40F071
:1049DC00C28081F845607C4A4FE0642E1ED0692E5F
:1049EC001CD0B8E0732E00F0A78009D86F2E2BD006
:1049FC00702E40F0B0800B6843F020030B6038E061
:104A0C00752E21D0782E34D0A5E02B6801F1420709
:104A1C001A1D1B682A6081F84230A0E022682B68BE
:104A2C0012F0800F03D01A1D2A601D6805E057068E
:104A3C00F9D51A1D2A60B3F90050002D39DA2D234F
:104A4C006D4284F8433034E022682B6812F0800FFA
:104A5C0003D01A1D2A601D6804E05606F9D51A1DEC
:104A6C002A601D88237E584A6F2B14BF0A23082303
:104A7C001BE07823554A84F845302368296813F0E5
:104A8C00800F01F104062E6001D00D6802E05D0676
:104A9C00FBD50D88D90744BF43F0200323601DB913
:104AAC00236823F0200323601023002184F8431093
:104ABC0001E0454A0A236668002EA66003DB2168E4
:104ACC0021F00401216005B96EB104F14201B5FB7E
:104ADC00F3F603FB1655555D0F4601F801593546A3
:104AEC00002EF4D100E00746082B0AD12368DA0720
:104AFC0007D5626823699A4203DC302307F8013C2E
:104B0C00013FC01B20612FE009682B6811F0800F5A
:104B1C00626903D0191D29601B6808E011F0400F71
:104B2C0003F1040129601B6801D01A8000E01A60AF
:104B3C0000232361074617E02B681A1D2A601F68A3
:104B4C00384600F045F863682061984288BF2361BD
:104B5C002369636005E004F1420784F84260012395
:104B6C002361002384F84330CDF800A04046214651
:104B7C0003AA4B46FFF7A4FE013002D14FF0FF30E1
:104B8C001FE0404649463A462369D0470130F5D0EC
:104B9C0023689B0705D4E068039B9842B8BF18466E
:104BAC000FE00025E268039BD31A9D42F3DA4046DE
:104BBC00494604F119020123D0470130DED00135FA
:104BCC00F0E704B0BDE8F087EF5600080057000886
:104BDC00034613F8012B002AFBD1181A0138704731
:104BEC0010B5C9B202449042034605D01C7801307E
:104BFC008C42F8D1184610BD002010BD10B5002312
:104C0C00934203D0CC5CC4540133F9E710BD81420C
:104C1C0070B501D300230EE08C18A042FAD285188F
:104C2C00134613F1FF3305D351426618F65C294441
:104C3C00CE54F6E770BD934203D0CC5CC454013320
:104C4C00F9E770BD30B500293CD051F8042C0B1F8E
:104C5C001D49002AB8BF9B180A680C4612B95A6045
:104C6C000B6030BD93420DD219685818904203D195
:104C7C005A581144426819605A60236030BD9942F9
:104C8C0003D80A4651680029F9D1146815199D42B8
:104C9C000AD11B682344D0188842136012D10868CB
:104CAC00034413604B680CE002D90C23036030BD45
:104CBC0018681C188C4203D10C6849682044186091
:104CCC005960536030BD00BFA401002070B5CD1CED
:104CDC0025F0030508350C2D38BF0C25002D064694
:104CEC0003DA0C233360002070BD8D42F9D3204BC6
:104CFC001C6818462146A1B10B685B1B0ED40B2B0C
:104D0C0003D90B60CC18CD501FE08C4202D16268E5
:104D1C0002601AE04B6863600C4616E00C4649686A
:104D2C00E9E7144C23681BB9304600F04BF82060BF
:104D3C002946304600F046F8431C0146D1D0C41C2D
:104D4C0024F0030484420AD1256004F10B00231DD6
:104D5C0020F00700C31A09D05A42E25070BD304609
:104D6C00611A00F02FF80130EED1BAE770BD00BF28
:104D7C00A4010020A0010020F8B5064614460D46FB
:104D8C0021B91146BDE8F840FFF7A0BF1AB9FFF7EB
:104D9C0059FF2046F8BD00F025F8A0420ED230464F
:104DAC002146FFF793FF074650B129462246FFF7ED
:104DBC0025FF30462946FFF745FF01E02846F8BDA0
:104DCC003846F8BD38B5064C002305460846236026
:104DDC0000F012F8431C02D1236803B12B6038BDDC
:104DEC005C0A002051F8040C002802DA04390B5834
:104DFC001844043870470000044A05491368002B16
:104E0C0008BF0B461844106018467047A8010020D4
:104E1C00600A0020F8B500BFF8BC08BC9E4670477D
:0C4E2C00F8B500BFF8BC08BC9E467047FB
:104E38000100000003000000070000000F00000050
:104E48001F0000003F0000007F000000FF0000007E
:104E5800FF010000FF030000D45200080008000012
:104E680081260008E852000800080000D126000842
:104E7800FC5200080A0800000000000000000000C2
:104E880000000000000000001454000805000000A5
:104E9800000000001C540008020000000000000090
:104EA80028540008030000000000000038540008DF
:104EB80004000000000000000000000000000000E6
:104EC80000000000D05300080002000000000000AD
:104ED800DC5300080702000000000000E853000847
:104EE80000020000551A0008000000000000000041
:104EF80000000000A4520008000800000D27000868
:104F0800B45200080008000081270008C8520008B1
:104F180000080000F1270008000000000000000061
:104F2800000000000053000800030000E925000805
:104F38000C53000800030000CD120008205300089D
:104F48000003000045260008FC520008090800007C
:104F58000000000000000000000000000000000049
:104F6800F853000800010000011700080454000865
:104F78000601000000000000000000000000000022
:104F8800000000004C530008000100008D140008C8
:104F98005C53000800010000451C000800000000E8
:104FA800000000000000000052533438353A204514
:104FB80058502E2564205546542E256400000000C4
:104FC800616464722E25237800000000CAEEEDF4B7
:104FD800E8E3F3F0E0F6E8FF20F1E8F1F2E5ECFBB6
:104FE80000000000C2F1E5E3EE20EBE0ECEF3A2030
:104FF80025640000CFEBE0F220F0E0F1F8E8F0E5FE
:10500800EDE8FF3A20256400CFEBE0F2E020D3D4AE
:1050180020E820D2E5ECEF3A202B0000CFEBE0F2BD
:10502800E020D3D420E820D2E5ECEF3A202D000090
:10503800C2EAEBFEF7E5EDE8E93A202530336400F3
:10504800D1E1F0EEF1EEE220EFEEEBEDFBF53A25E3
:1050580030336400D1E1F0EEF1EEE220EEE4E8ED69
:105068002E3A202530336400D1E1F0EEF1EEE22053
:10507800EBEEE3E03A20202530336400CDE5F0E0A4
:10508800E1EEF7E8E520EBE0ECEFFB0025303264D9
:10509800000000002530326420000000CDE0F0E080
:1050A800E1EEF2EAE020CFEBE0F2E000CBE0ECEF5B
:1050B800E02000002020253032640000CBE0ECEF37
:1050C800E02025303264202020253035642020005F
:1050D80020202020202020202020202020202020C8
:1050E8002020202000000000C2E2E5E4E8F2E520EC
:1050F800EDEEECE5F0000000CBE0ECEFE0204E2018
:1051080000000000CDE0E6E0F2E8E52020207E2067
:10511800D1E1F0EEF1000000D3E4E5F0E6E0EDE8DF
:10512800E5207E20CEF2ECE5EDE00000C2E2E5E409
:10513800E8F2E520EAEEE43A0000000020202530FD
:1051480034640000CBE0ECEF203A25640000000056
:10515800C0E2E0F0E8FF3A00CBC0CCCFDB000000B3
:10516800202020202000000020D2E5ECEF000000E5
:10517800743D256400000000743D25642000000093
:10518800D3D43D256425252020000000D3D43D2517
:105198006425252000000000D3D420C2CACB00001B
:1051A800D3D420C2DBCA0000D3C7C320C2CACB00F5
:1051B800D3C7C320C2DBCA007E000000CDE0E6E012
:1051C800F2E8E52020207E20D1EEF5F0E0ED2E007B
:1051D800D2F0E5E2EEE3E020D3D43A00CAEEEBE801
:1051E800F7E5F1F2E2EE20EBE0ECEF3A0000000028
:1051F800CCEEE4E5EBFC3A00CCE0EAF120F2E5EC99
:10520800EFE5F0E0F2F3F0E03A00000054E5ECEFEF
:10521800E5F0E0F2F3F0E020E2EEF1F1F2E0ED3A51
:1052280000000000CFEBE0F2E020E4E0F2F7E8EA6B
:10523800EEE23A00C4E0F2F7E8EA20F2E5ECEFE546
:10524800F0E0F2F3F0FB3A00C4E0F2F7E8EA20D32A
:10525800D43A0000C0E4F0E5F120E220F1E5F2E8FC
:105268003A000000D1EAEEF0EEF1F2FC2028E1EE7F
:10527800E4FB293A00000000CAEEEDF2F0EEEBFC88
:1052880020F7E5F2ED2E3A00CAEEEB2DE2EE20F122
:10529800F2EEEF20E1E8F23A00000000CFEBE0F296
:1052A800E020E4E0F2F7E8EAEEE20000C4E0F2F71A
:1052B800E8EA20F2E5ECEFE5F0E0F2F3F0FB0000BD
:1052C800C4E0F2F7E8EA20D3D4000000CCE0EAF129
:1052D80020F2E5ECEFE5F0E0F2F3F0E0000000008A
:1052E800D2E5ECEFE5F0E0F2F3F0E020E2EEF1F1E8
:1052F800F2000000C5F9E500CAEEEB2DE2EE20EB66
:10530800E0ECEF00D1E1F0EEF120ECE0EAF1E8ECBE
:10531800F3ECE020D3D40000CCEEE4E5EBFC000095
:10532800CEF8E8E1EAE820EBE8EDE8E8205253346B
:1053380038350000D1E1F0EEF1E8F2FC20E0E2E0DF
:10534800F0E8E800CFF0EEF1ECEEF2F0E5F2FC2048
:10535800EBEEE300D1E1F0EEF1E8F2FC20EBEEE356
:1053680000000000CFF0EEF1ECEEF2F020EAEEEDF6
:10537800F42E2DE8E8000000CDE0F1F2F0EEE9EAC5
:10538800E8000000CDE0F1F2F0EEE9EAE820EAEE0C
:10539800EDF42E00CDE0F1F2F0EEE9EAE820F1E5D7
:1053A800F2E80000D1E1F0EEF1E8F2FC20E2F1E5EC
:1053B80020EBE0ECEFFB000020CDE5F20000000060
:1053C80020C4E02000000000D1E1F0EEF1E8F2FC9A
:1053D8000000000020C2F1E520EBE0ECEFFB00004C
:1053E80020CBE0ECEFF32020EDEEECE5F020000020
:1053F800CFF0EEF1ECEEF2F000000000D1E1F0EEBB
:10540800F120EDE0F0E0E1EEF2EAE800C0E2E0F0E1
:10541800E8E80000CDE0F0E0E1EEF2EAE0000000AC
:10542800CAEEEDF4E8E3F3F0E0F6E8FF0000000070
:10543800CBEEE320F0E0E1EEF2FB0000EDE5F7E56E
:10544800F2EDEEF1F2FC0000F7E5F2EDEEF1F2FC20
:10545800202000003936303020200000313434302C
:1054680030200000313932303020000032383830F6
:1054780030200000333834303020000035373630E3
:1054880030200000373638303020000031313532D6
:1054980030300000EEF2F1F3F2F1F2E2F3E5F2203F
:1054A80000000000EFF0E8F1F3F2F1F2E2F3E5F2C8
:1054B80000000000D3CEC22DCFC22D312020200005
:1054C800D3CEC22DCFC22D3520202000D3CEC22D61
:1054D800CFC22D3130202000D3CEC22DCFC22D31E6
:1054E80035202000D3CEC22DCFC22D33302020004E
:1054F800D3CEC22DCFC22D3530202000D3CEC22D21
:10550800CFC22D3130302000D3CEC22DCFC22D31A5
:1055180035302000D3CEC22DCFC22D3230302000FE
:10552800D3CEC22DCFC22D3330302000D3CEC22DE2
:10553800CFC22D3530302000D3CEC22DCFC22D376B
:1055480030302000D3CEC22DCFC22D3130303000C4
:10555800D3CEC22DCFC22D3135303000D3CEC22D9F
:10556800D1C22D3520202000D3CEC22DD1C22D315D
:1055780030202000D3CEC22DD1C22D3135202000BD
:10558800D3CEC22DD1C22D3330202000D3CEC22D90
:10559800D1C22D3530202000D3CEC22DD1C22D311D
:1055A80030302000D3CEC22DD1C22D31353020006D
:1055B800D3CEC22DD1C22D3230302000D3CEC22D51
:1055C800D1C22D3330302000D3CEC22DD1C22D35DB
:1055D80030302000D3CEC22DD1C22D37303020003C
:1055E800D3CEC22DD1C22D3130303000D3CEC22D12
:1055F800D1C22D3135303000845000080001000040
:10560800011600082853000800010000E9120008EC
:105618003C53000800010000A1120008000000002F
:105628000000000000000000AC5300080006000065
:1056380000000000C053000806060000000000003B
:10564800C853000800060000191A000800000000EE
:1056580000000000000000006C530008000100007A
:10566800C5130008805300080001000091250008B8
:105678008C53000800010000451C00089C530008DA
:1056880000010000BD2A0008000000000000000022
:105698000000000041A042A1E045A3A4A5A64BA795
:1056A8004D484FA8504354A9AA58E1ABACE2ADAE5F
:1056B800ADAFB0B161B2B3B4E365B6B7B8B9BABB10
:1056C800BCBD6FBE7063BF79E478E5C0C1E6C2C3F4
:1056D800C4C5C6C74300232D302B2000686C4C007E
:1056E80065666745464700303132333435363738DA
:1056F8003941424344454600303132333435363738
:0C570800383961626364656600000000CF
:045714008501000803
:045718005D01000827
:10571C00BC540008C8540008D4540008E0540008D5
:10572C00EC540008F8540008045500081055000803
:10573C001C55000828550008345500084055000831
:10574C004C55000858550008645500087055000861
:10575C007C5500088855000894550008A055000891
:10576C00AC550008B8550008C4550008D0550008C1
:10577C00DC550008E8550008F455000844540008AE
:10578C005054000800000000904E0008684F0008BC
:10579C00605600088C4F000800560008CC4E0008DC
:1057AC00305600082C4F0008604E0008FC4E0008D4
:1057BC009C540008AC5400085C5400086454000865
:1057CC006C540008745400087C540008845400087D
:1057DC008C5400089454000800380140000002402A
:1057EC0000100240580002400204060800000000AD
:1057FC00010203040102030406070809000000006B
:10580C00000000000000000000000000000000008C
:10581C00000000000000000000000000DC56000842
:10582C00000000000000000000000000000000006C
:10583C00000000000000000000000000000000005C
:10584C00000000000000000000000000000000004C
:10585C00000000000000000000000000EC00002030
:040000050800456149
:00000001FF
