:020000040800F2
:100000000050002045440008894400088944000845
:100010008944000889440008894400080000000061
:1000200000000000000000000000000089440008FB
:1000300089440008000000008944000865020008A7
:100040008944000889440008894400084D010008DB
:10005000894400088944000889440008894400084C
:10006000894400088944000889440008894400083C
:1000700089440008894400083902000889440008BE
:10008000894400088944000889440008894400081C
:10009000894400088944000889440008894400080C
:1000A00089440008894400088944000889440008FC
:1000B00089440008894400088944000889440008EC
:1000C00089440008894400088944000889440008DC
:1000D000894400081102000889440008B1010008A1
:1000E0008944000889440008894400080000000091
:1000F0000000000000000000000000000000000000
:0C01000000000000000000005FF808F1A3
:10010C0010B5054C237833B9044B13B10448AFF345
:10011C0000800123237010BD50010020000000005E
:10012C00144D000808B5034B1BB103490348AFF34A
:10013C00008008BD0000000054010020144D000890
:10014C0008B5012004F050F900B908BD012004F0F5
:10015C005BF904F031F90F4A13780133DBB21370F9
:10016C000D4B1B7813F0010F07D00C4B1B88B3F50C
:10017C00616F08D20133094A1380074A137843F0A0
:10018C0040031370E1E7054B00221A80044B012257
:10019C001A70F2E7B4010020B001002070010020B9
:1001AC006306002008B5144B002283F8202083F846
:1001BC002C209A6240F22551104803F077FF48B981
:1001CC000D4B012283F8202040F227710B4803F0DD
:1001DC006DFF08BD094803F05EFF094A92F8FF3035
:1001EC00D0540133DBB282F8FF30FD2BE8D9134633
:1001FC00002283F8FF20E3E7D001002000480040F4
:10020C006404002008B5074B1B8813F0100F00D1B5
:10021C0008BD044B9B88044B012283F8402002F05C
:10022C0067FFF5E700380140D001002008B502F067
:10023C0039FF02F047FF064B002283F8002183F8B8
:10024C00FF20044A536843F48053536008BD00BF39
:10025C005C03002000000240264B1A6801321A6031
:10026C001B68002B35D0002318E0234A02EB011247
:10027C009068214A02EB011290609068526890429B
:10028C0005D30A011C48825CF2B9002000E0002072
:10029C00194A02EB011108730133DBB2052B15D897
:1002AC0019461A011448825C002ADED000EB0312B6
:1002BC00906852689042D8D20F4A02EB03129068B1
:1002CC000C4A12681044D4E70120E1E7094B0022E4
:1002DC001A60094B93F82C3053B1074B002283F86A
:1002EC002C209A6283F82020044B012283F80121F0
:1002FC00704700BF34030020D001002064040020AC
:10030C000F4B1A786FF345121A70A8B90D4B9868F9
:10031C00C0B203F500639A68120102F44072024302
:10032C00094B9B8ADBB20A2B00D90A23013B0749F4
:10033C0051F8230010407047054A32F810007047FE
:10034C00B001002000080140B80100202C4D00082D
:10035C0038030020124B1A786FF345121A700346BB
:10036C0028B9104B5889C0B20A2816D870470D4AC4
:10037C00528992B200EB800041008A420BDD094A9F
:10038C005089C0B2C3EB4312C3EB82035A00D2B202
:10039C001044C0B2E8E7002070470A20E6E700BF2F
:1003AC00B0010020B801002010B582B00023ADF8D8
:1003BC00043072B68DF807302EE09DF80730394ABC
:1003CC0032F81340013CA4B29DF807109DF8073099
:1003DC0032F8111003F18A02334B03EB42035980BC
:1003EC00BDF80400E1B202F041FFBDF80430013366
:1003FC009BB2ADF80430BDF80400210A02F036FFC0
:10040C00BDF8043001339BB2ADF804309DF80730D1
:10041C000133DBB28DF807309DF80720234B5B8945
:10042C009BB29A42C9D3224C21784FF4807002F0CF
:10043C001DFF2188090A40F2011002F017FFA17874
:10044C004FF4817002F012FF6188090A40F2031028
:10045C0002F00CFF21794FF4827002F007FFA188A3
:10046C00090A40F2051002F001FFA1794FF48370E4
:10047C0002F0FCFEE188090A40F2071002F0F6FED9
:10048C000C4C21784FF4407002F0F0FE2188090AE0
:10049C0040F2013002F0EAFE02F0A0FE62B602B0B9
:1004AC0010BD00BF6805002080060020B8010020A8
:1004BC00540300205E04002010B582B00023ADF878
:1004CC00043072B68DF807303BE0BDF8040002F042
:1004DC002DFE9DF80730474C24F81300BDF804306E
:1004EC0001339BB2ADF80430BDF8040002F01EFEDF
:1004FC009DF80730DBB234F8132042EA002024F8D0
:10050C001300BDF8043001339BB2ADF804309DF8F4
:10051C000730DBB234F81320013224F813209DF895
:10052C0007209DF8073034F8121003F18A02324B81
:10053C0003EB420359809DF807300133DBB28DF891
:10054C0007309DF807202D4B5B899BB29A42BCD398
:10055C004FF4807002F0EAFD294C208040F201102B
:10056C0002F0E4FD238843EA002020804FF48170E0
:10057C0002F0DCFD608040F2031002F0D7FD6388CE
:10058C0043EA002060804FF4827002F0CFFDA0801F
:10059C0040F2051002F0CAFDA38843EA0020A080B7
:1005AC004FF4837002F0C2FDE08040F2071002F0BD
:1005BC00BDFDE38843EA0020E080124B1B8813B199
:1005CC0062B602B010BD4FF4407002F0AFFD0D4C9E
:1005DC00208040F2013002F0A9FD238843EA00207C
:1005EC0080B22080B0F5407FEAD24FF44072228076
:1005FC00E6E700BF6805002080060020B801002057
:10060C00540300205E04002030B583B005460C4630
:10061C0000238DF8073003F1804303F584334FF446
:10062C0000421A6100BF00BF4021104803F037FDA3
:10063C000028F9D09DF80730DBB2E95C0B4803F0D9
:10064C0026FD9DF807300133DBB28DF80730A3424D
:10065C00EAD34021054803F022FD0028F9D0044BD1
:10066C004FF400425A6103B030BD00BF0048004057
:10067C000008014000B58BB0554B1B78042B13D8E8
:10068C00DFE803F0031C68875200524B1B78524A78
:10069C00127893420BD04E4A022111704F4A00211E
:1006AC00117001334B4A13700BB05DF804FB484BCF
:1006BC0001221A70474B00221A70F5E700210191B4
:1006CC00474B009302AB02220A2002F001FFFF28E5
:1006DC0005D00028E8D03E4B04221A70E4E7BDF8A0
:1006EC000820404B1A80BDF80A303F490B803F4927
:1006FC00A1F8FC303E4B9B899BB29A420AD93C4BE9
:10070C009A8164239BB2394AA2F80031304B0422FF
:10071C001A70DEE7642303FB02F3354A928992B226
:10072C00B3FBF2F3DBB2EDE7324B32225A6101221A
:10073C001A741B7F002BB7D02E4B00221A779A61AC
:10074C001A74264B1B781BB90022214B1A70ABE78D
:10075C000322FAE71F4B187800210191204B0093DC
:10076C0002AB022202F0B4FEFF2805D000289BD079
:10077C00174B04221A7097E7164B1B78BDF808101C
:10078C001D4A22F81310BDF80A101C4A22F8131047
:10079C00ECE70023ADF80830194B1B7813F0010F70
:1007AC0002D00123ADF808300A4B187800210191D2
:1007BC000B4B009302AB012202F03CFF00283FF4EC
:1007CC0073AF064B00221A70014B04221A706BE7B0
:1007DC006F0100206D010020620600206C010020DA
:1007EC00640400207E0600206204002080060020A5
:1007FC00B8010020D001002064060020380300203E
:10080C00B001002010B5414B1B78A22B04D0AC2BAF
:10081C006ED0A12B39D010BD3D4B1B7813F0010FBE
:10082C0018D03C4B40225A613B494FF480604861E0
:10083C005A613A4AB2F8FA309BB223F002039BB2E7
:10084C00A2F8FA30324A137803F0FE0343F0400367
:10085C001370E0E72F4B40221A612F494FF4806050
:10086C0008611A612D4AB2F8FA3043F00203A2F87B
:10087C00FA30274A137843F041031370284A13883F
:10088C0001331380FFF790FDC5E7214B1B7813F064
:10089C00020F18D0204B4FF480525A614FF4006174
:1008AC0059615A611D4AB2F8FA309BB223F0010328
:1008BC009BB2A2F8FA30164A137803F0FD0343F00A
:1008CC0040031370A7E7144B4FF480521A614FF496
:1008DC00006119611A61114AB2F8FA3043F0010350
:1008EC00A2F8FA300A4A137843F04203137092E7E5
:1008FC000C4C0123237001F095FB054A137843F04F
:10090C00800313700023237085E700BF610400206F
:10091C00B001002000100140000C014080060020B6
:10092C00540300206E010020804B93F84C3003B927
:10093C00704710B57D4B002283F84C209A6483F8E5
:10094C00402083F84C209A64794C012384F80131BF
:10095C00784B5B68DB4384F8FF30774B1A78774928
:10096C00204602F023FF94F80001002800F0A0803C
:10097C00023002F07BFB6E4B002283F80121704B9E
:10098C005A8892B26D4B1B889BB29A4204D06B4B27
:10099C001B889BB26A4A5380684B5B889BB233B10D
:1009AC00664A53889BB266498B8000235380634B05
:1009BC001B899BB233B1614A13899BB26049CB80CE
:1009CC00002313815D4B5B899BB233B15B4A538926
:1009DC009BB25B490B8100235381584B9B899BB283
:1009EC0033B1564A93899BB255494B81002393816D
:1009FC00524BDB899BB233B1504AD3899BB25049DD
:100A0C008B810023D3814D4BB3F8F8319BB24FF659
:100A1C00FF7293421ED0494BB3F8F8319BB2002BB6
:100A2C0049D1484B4FF400625A614FF480525A61DD
:100A3C00424AB2F8FA309BB223F001039BB2A2F8FF
:100A4C00FA30414B19786FF3410119704FF6FF736F
:100A5C00A2F8F831394BB3F8FA319BB24FF6FF726A
:100A6C00934261D0354BB3F8FA319BB2002B41D095
:100A7C00324BB3F8FA319BB2B3F57F4F54D1314BB3
:100A8C004FF480621A6103F5806340221A612B4B8C
:100A9C00B3F8FA2042F00202A3F8FA202A490A78A5
:100AAC0042F001020A704FF6FF72A3F8FA213BE004
:100ABC0002F008FB5FE7214BB3F8F8319BB2B3F5BA
:100ACC007F4FC7D11F4B4FF400621A614FF4805215
:100ADC001A611A4BB3F8FA2042F00102A3F8FA207B
:100AEC0019490A7842F002020A704FF6FF72A3F815
:100AFC00F821AFE7134B4FF480625A6103F5806322
:100B0C0040225A610D4AB2F8FA309BB223F002032C
:100B1C009BB2A2F8FA300C4B19786FF300011970E4
:100B2C004FF6FF73A2F8FA3110BD00BFD0010020C0
:100B3C005C03002058000240610600208006002063
:100B4C00B8010020000C0140B001002010B50024B9
:100B5C00864B1C8001E00134E4B2854B1B78A34228
:100B6C0019D32046FFF7CCFB804A1388184380B278
:100B7C001080002CEFD1C043C0F309007D4BB3F8BB
:100B8C00082102F47C42A3F80821B3F80821104391
:100B9C00A3F80801DFE7784B1B7813F0010F00F086
:100BAC00E180724A1288002A7ED013F0080F07D118
:100BBC00724B80221A61704A137843F04803137009
:100BCC006F4B9B7C13F0010F5FD06D4B9A8992B2E7
:100BDC006C4B19888A4272D2694B998164236A4A98
:100BEC001370642B02D9134664221A70664B1A7860
:100BFC0091B2634B1B899BB299426AD25E4B1B78B4
:100C0C0013F0040F06D15C4A43F0440313705B4BA2
:100C1C0080221A615D4B1B785D4A13709BB2584A57
:100C2C00D28892B2934266D9534B1B7813F0100FB3
:100C3C0006D1514A43F010031370504B80221A61B5
:100C4C004E4B40225A6153494FF4806048615A61BF
:100C5C00484AB2F8FA309BB223F002039BB2A2F8D6
:100C6C00FA304FF480534B614FF4006048614B6194
:100C7C00B2F8FA309BB223F001039BB2A2F8FA301F
:100C8C003D4A137843F0400313703B4B1B78C3F37E
:100C9C00C002C3F380010A43C3F3001313435DD1B5
:100CAC00364B80225A6160E013F0080F88D0324A2C
:100CBC00137803F0F70343F04003137080E76423C9
:100CCC0003FB01F32E4A928992B2B3FBF2F3DBB22F
:100CDC0085E7294B1B7813F0040F9BD0284B1B89FD
:100CEC0005339A4296DD244A137803F0FB0343F054
:100CFC00400313708EE7204A127812F0100FC4D004
:100D0C001F4A128A92B29342BFD21B4A137803F045
:100D1C00EF0343F040031370184B402119611D4839
:100D2C004FF48064046119611249B1F8FA3043F050
:100D3C000203A1F8FA30137813F0020FA5D04FF488
:100D4C00805202614FF4006101610261094AB2F8FC
:100D5C00FA3043F00103A2F8FA3096E7074B8022F1
:100D6C001A6102E0054B80225A6110BDB2010020CD
:100D7C006206002080060020B00100200010014017
:100D8C00B80100207E0600206004002062040020D0
:100D9C005C060020000C014008B5194B1B7813F0C1
:100DAC00C00F22D0174B9B7C13F0010F14D0164BA5
:100DBC001A78164B1A70134B9A8992B2144B1988E5
:100DCC008A4213D20F4B99816423124A1370642BFD
:100DDC0002D9134664221A7000F0CCFF084A13782B
:100DEC0003F07F036FF38613137008BD642303FBBA
:100DFC0001F3044A928992B2B3FBF2F3DBB2E4E75B
:100E0C00B0010020B8010020620400205C06002024
:100E1C007E0600206004002010B53C4CA2883C4BA0
:100E2C001A70608801F0BAFFA37813F0380F08D05D
:100E3C00A378C3F3C203012B2FD023469B78022245
:100E4C0000E00422334B5A64334A0423A2F8F230F4
:100E5C002E49088880B2A2F8F400488880B2A2F823
:100E6C00F6002B480078A2F8F800C88880B2A2F8E7
:100E7C00FE00088980B2A2F80201488980B2A2F86B
:100E8C000401898989B2A2F80611B2F8F81089B266
:100E9C0051800121A2F8FE110AE00322D2E703F1EE
:100EAC00FC011D4A02EB4102012191800B44DBB293
:100EBC00782BF4D9184B3F22A3F8EE22FF22A3F88B
:100ECC00F0226422A3F8F622A3F8F8227022A3F8E9
:100EDC00FA2240F6FF72A3F8FC22002308E003F18B
:100EEC00FC010D4A4FF6FF7022F811000133DBB202
:100EFC00012BF4D9094CFF21204602F025F820469D
:100F0C0001F0E8FF02F0DEF810BD00BFB8010020D0
:100F1C0061060020D0010020800600205C03002028
:100F2C002DE9F04383B002F0C7FFA54A136843F0E4
:100F3C0010031360022003F075FAA24A136843F4FD
:100F4C00803313609F4B1B6813F4003FFAD09E4B09
:100F5C001A786FF307121A705A78042161F302029F
:100F6C005A709A78072161F385029A709A7842F048
:100F7C0001029A70934A136843F080731360914B8B
:100F8C001B6813F0007FFAD08F4A1378022161F3AB
:100F9C0001031370DFF86C820023A8F8003001F015
:100FAC005FFE01F0D1FD01F099FE884C4FF08009F5
:100FBC00C4F81090864D4FF480572F61402626615F
:100FCC004FF480636B616661824AB2F8FA309BB26F
:100FDC0023F002039BB2A2F8FA304FF400636B616A
:100FEC006F61B2F8FA309BB223F001039BB2A2F806
:100FFC00FA3002F083F902F0F9F902F046FA98F8A7
:10100C00003043EA090388F80030C4F814906F618B
:10101C006661714802F0BAFD002835D16E4B002292
:10102C001A8001219980997862F30001997099785E
:10103C0062F341019970598862F382015980997861
:10104C0062F3C50199703721D980282119810521B6
:10105C0059814FF440719981DA8114221A829A7C59
:10106C0042F001029A749A7C42F002029A749A7CC1
:10107C0042F004029A745B899BB2092B38D8564B08
:10108C005B899BB2544A9382534A5389928A9A1A27
:10109C00524981FB0231D317C3EBA10303EB83004D
:1010AC0041008A4218BF01334D4A137001F07EFF94
:1010BC00FFF702FAFFF7B0FE4A4B4FF400425A61B9
:1010CC004FF480725A6101F0FDFF474B474A5A605A
:1010DC009A60062119601A6842F001021A60444BAA
:1010EC005962C8225A63012283F8302062B60CE0A0
:1010FC000A23C7E71C461846FFF786FA002384F834
:10110C00003109E03B4B1B78F3B9FFF7B3FA3A4BCC
:10111C0093F800110029EDD101F092FCFFF772FB5E
:10112C00FFF702FC324B93F83C30002BEAD0304BEB
:10113C00002283F83C209A63FFF708FDFFF72CFE92
:10114C00254802F06BFDDDE700242A4B1C7024E0DF
:10115C00BDF806009DF805100139284A52F82120E7
:10116C0002EA5002ADF806200133DBB29DF80520EF
:10117C00D2B29A420FD9BDF8062012F0010FE7D176
:10118C0004EB84014A001A441D4830F81210013156
:10119C0020F81210DCE70134E4B2114B1B78A342A7
:1011AC000BD32046FFF7ACF8ADF806002046FFF74E
:1011BC00D1F88DF805000023D8E7FFF7F5F8A4E780
:1011CC0000200240001002400410024000100140B8
:1011DC00000C014080060020B8010020676666669E
:1011EC00620600200008014010E000E03F190100F9
:1011FC00D001002063060020640400202C4D000860
:10120C0068050020B0010020094B1A786FF38202A8
:10121C001A701A786FF3C3021A701A786FF30412EB
:10122C001A701A786FF345121A700520704700BFB8
:10123C00B00100204FF44073034A9381034AA2F893
:10124C0006310320704700BFB80100208006002043
:10125C0000B589B0184B0793184A13786FF34513F0
:10126C00137002F012F902F010F90021084602F096
:10127C00F1F8134B9B7C03F00103124A12781249CC
:10128C0001A803F021F901A802F018F901210020AE
:10129C0002F0E0F80D4B00221A700C4B1B78DBB2FD
:1012AC000A2B05D801F0CCFB094B1B78AC2BF4D1E5
:1012BC00052009B05DF804FBFFFF0100B001002020
:1012CC00B801002062060020744D0008B401002013
:1012DC006104002010B586B002F0D7F802F0D5F802
:1012EC000021084602F0B6F8244802F0E7F8012184
:1012FC00002002F0AFF8224C62892249684603F0C4
:10130C00E3F8684602F0DAF81F4B1A781F49684672
:10131C0003F0DAF80221002002F09CF8684602F093
:10132C00CDF80321002002F095F8A37C13F0010FF7
:10133C0007D0174802F0C2F8164B00221A7001248D
:10134C0009E0154802F0BAF8F6E701F079FB134B07
:10135C001B78AC2B0FD00F4B1B78DBB20A2B0AD8A7
:10136C0014F0020F01D004F0FD0414F0010FECD0C6
:10137C0004F0FE04E9E7032006B010BD584E000847
:10138C00B8010020704E000862060020804E000854
:10139C00944E0008B4010020A84E000861040020FF
:1013AC0010B586B002F071F802F06FF80021084613
:1013BC0002F050F8524C22885249684603F084F8E7
:1013CC00684602F07BF80121002002F043F86288A5
:1013DC004D49684603F078F8684602F06FF8022130
:1013EC00002002F037F8A2884849684603F06CF8F0
:1013FC00684602F063F80321002002F02BF8E28823
:10140C004349684603F060F8684602F057F8414BD0
:10141C0000221A7007243F4B1B78DBB20A2B6CD8C6
:10142C0014F0020F04D03B4B00221A7004F0FD04A0
:10143C0001F006FB384B1B78943B282BEBD801A210
:10144C0052F823F0F51400082314000823140008A4
:10145C0023140008FB1400082314000823140008AC
:10146C002314000823140008231400082314000874
:10147C002314000823140008231400082314000864
:10148C002314000823140008231400082314000854
:10149C002314000823140008231400082314000844
:1014AC00231400080715000823140008231400084F
:1014BC002314000823140008231400082314000824
:1014CC002314000823140008231400082314000814
:1014DC002314000823140008231400082314000804
:1014EC00231400080115000844F0020493E744F0AB
:1014FC00020490E744F002048DE7042006B010BD0E
:10150C0054030020944F0008A44F0008B84F000863
:10151C00CC4F0008B4010020610400202DE9F041FB
:10152C0086B001F0B2FF01F0B0FF0021084601F0D7
:10153C0091FF364801F0C2FF0121002001F08AFF23
:10154C000025334B1D704FF0070851E007EB870364
:10155C005A0001320A442F49684602F0B5FF68462A
:10156C0001F0ACFF0135EDB2072D21D00E2D24D0AA
:10157C00C6F34F060134E4B221461FBB264B9B8AAF
:10158C009BB2994220DA16F0010FEDD0142DEBD856
:10159C00062DDBD00D2DD9D0142DD7D007EB87031A
:1015AC005A0001320A441D49684602F08DFFD6E705
:1015BC000221002001F04EFFD8E70321002001F0AA
:1015CC0049FFD5E70A23DCE70137FFB2144B1B7840
:1015DC00BB4205D33846FEF793FE06460024CBE704
:1015EC0008F0FD0801F02CFA0E4B1B78AC2B09D03F
:1015FC00074B1B78DBB20A2B04D818F0020FF1D082
:10160C000027E3E7052006B0BDE8F081544D000843
:10161C00B4010020644D0008B80100206C4D000896
:10162C0062060020610400202DE9F04387B00023FE
:10163C008DF81730B44B5E89F6B20A2E00D900260D
:10164C0001F023FF01F021FF0021084601F002FF09
:10165C00AE4801F033FF0121002001F0FBFEAC4C41
:10166C00204601F02BFF0221002001F0F3FE204662
:10167C0001F024FF0321002001F0ECFE204601F0D4
:10168C001DFF0024A34B1C700725A24B1B78DBB25B
:10169C000A2B00F2358115F0020F5BD101F0D0F965
:1016AC009D4B1B78943B282BEFD801A252F823F0CA
:1016BC007B18000897160008971600089716000864
:1016CC00AB18000897160008971600089716000824
:1016DC00971600089716000897160008971600082A
:1016EC00971600089716000897160008971600081A
:1016FC00971600089716000897160008971600080A
:10170C0097160008971600089716000897160008F9
:10171C000D19000897160008971600089716000870
:10172C0097160008971600089716000897160008D9
:10173C0097160008971600089716000897160008C9
:10174C0097160008971600089716000897160008B9
:10175C00E31800089DF81700FEF7FCFD0646002173
:10176C000F2001F077FE9DF817206C49684602F0B7
:10177C00ABFE684601F0A2FE0121002001F06AFEDA
:10178C009DF8173003EB83035A00A04622449DF8C2
:10179C00173003EB830359002144614B33F81130AC
:1017AC0001326049684602F08FFE684601F086FE01
:1017BC000221002001F04EFE631CB146B34229DB2E
:1017CC006F46DFF868C1BCE80F000FC79CE8030048
:1017DC0047F8040B3970684601F070FE03210020B5
:1017EC0001F038FE08F10203994529DC6F46DFF859
:1017FC003CC1BCE80F000FC79CE8030047F8040B82
:10180C003970684601F05AFE05F0FD05414B002287
:10181C001A7043E79DF8173003EB83035A002244F8
:10182C009DF8171001EB81014B00234401333C4917
:10183C0031F8133002323B49684602F045FECAE7E4
:10184C009DF8173003EB83035A0042449DF8173080
:10185C0003EB83035900884408F10208304B33F83A
:10186C00183003322F49684602F02EFEC9E724B126
:10187C00013CE4B245F0020507E79DF81730002B58
:10188C00F8D09DF81730013BDBB28DF817309DF87E
:10189C001700FEF75FFD0646C41EE4B2EAE7F31E2E
:1018AC009C4204DA0134E4B245F00205EDE69DF801
:1018BC001730DBB21C4A12789342F5D29DF81730E0
:1018CC000133DBB28DF817309DF81700FEF742FD9F
:1018DC0006460024E8E79DF81730DBB2124A12786E
:1018EC00934209D29DF817300133DBB28DF81730D3
:1018FC0045F002050024C8E600238DF81730F7E701
:10190C00022007B0BDE8F083B80100201C5000088D
:10191C002C500008B4010020610400203450000851
:10192C00680500203C50000862060020505000085A
:10193C0008B5002305E00A4A002122F813100133F0
:10194C00DBB299B2074A528992B29142F3D3064A5A
:10195C00538801339BB25380FEF726FD062008BD49
:10196C0068050020B80100205403002070B586B033
:10197C006D4B5E89F6B201F088FD01F086FD002109
:10198C00084601F067FD694801F098FD012100202F
:10199C0001F060FD664801F091FD0221002001F08C
:1019AC0059FD644801F08AFD0321002001F052FD2D
:1019BC00614801F083FD614B00221A70012402255D
:1019CC005E4B1B78DBB20A2B00F2AA8015F0020FDB
:1019DC005CD101F035F85A4B1B78943B282BEFD88F
:1019EC0001A252F823F000BFBD1A0008CD1900085F
:1019FC00CD190008CD190008E71A0008CD19000808
:101A0C00CD190008CD190008CD190008CD19000812
:101A1C00CD190008CD190008CD190008CD19000802
:101A2C00CD190008CD190008CF1A0008CD190008EF
:101A3C00CD190008CD190008F91A0008CD190008B5
:101A4C00CD190008CD1900082D1B0008CD19000870
:101A5C00CD190008CD190008CD190008CD190008C2
:101A6C00CD190008CD190008CD190008CD190008B2
:101A7C00CD190008CD190008CD190008CD190008A2
:101A8C00CD190008CD190008151B000801210920EB
:101A9C0001F0E0FC22462B49684602F015FD684631
:101AAC0001F00CFD254B00221A7005F0FD0590E7A6
:101ABC00012C04D9013CE4B245F0020580E7012475
:101ACC00FAE70A2C04D90A3CE4B245F0020577E7A0
:101ADC00012CFAD9013CE4B2F7E7B44204D2013448
:101AEC00E4B245F002056BE73446FAE7A6F10A03C7
:101AFC009C4204DA0A34E4B245F0020560E7B442D1
:101B0C00FAD20134E4B2F7E7013C0F4B002223F880
:101B1C0014200E4A938801339BB29380FEF744FC49
:101B2C00062006B070BD00BFB8010020C8500008E8
:101B3C00D8500008E4500008F8500008B401002008
:101B4C0061040020644D0008680500205403002047
:101B5C0070B588B0054600248DF81F40ADF81C40C8
:101B6C000123ADF81A308DF81E4001F08EFC01F007
:101B7C008CFC2146204601F06DFC794B01AE0FCB5D
:101B8C0007C6337001A801F099FC764B1C70072432
:101B9C00744B1B78DBB20A2B00F2DA8014F0020FC4
:101BAC005CD100F04DFF704B1B78943B282BEFD889
:101BBC0001A252F823F000BF991C00089D1B0008DD
:101BCC009D1B00089D1B0008B51C00089D1B0008F0
:101BDC009D1B00089D1B00089D1B00089D1B0008F9
:101BEC009D1B00089D1B00089D1B00089D1B0008E9
:101BFC009D1B00089D1B00089D1B00089D1B0008D9
:101C0C009D1B00089D1B00089D1B00089D1B0008C8
:101C1C009D1B00089D1B00085D1D00089D1B0008F6
:101C2C009D1B00089D1B00089D1B00089D1B0008A8
:101C3C009D1B00089D1B00089D1B00089D1B000898
:101C4C009D1B00089D1B00089D1B00089D1B000888
:101C5C009D1B00089D1B0008CD1C00080020414B5B
:101C6C001870012101F0F6FBBDF81C30BDF81A20EC
:101C7C009DF81F1001FB02323C4901A802F024FC24
:101C8C0001A801F01BFC04F0FD048AE79DF81F304D
:101C9C00DBB2082B05D89DF81F300133DBB28DF871
:101CAC001F3044F0020473E79DF81F302BB19DF8F0
:101CBC001F30013BDBB28DF81F3044F0020467E7A4
:101CCC009DF81F10BDF81A30BDF81C2001FB032332
:101CDC009BB2ADF81C30BDF81A3003EB83035A00ED
:101CEC0092B2ADF81A209DF81E300133DBB28DF89C
:101CFC001E3000238DF81F309DF81E30DBB2042BF4
:101D0C0002D044F0020443E7BDF81C309BB240F211
:101D1C00574293420FD0BDF81C309BB2D02B1AD037
:101D2C0000238DF81E30ADF81C300122ADF81A20BE
:101D3C008DF81F30E5E7042DEDD10D4B00211980F6
:101D4C005980DA88013292B2DA809980FEF72CFB46
:101D5C00284608B070BD032DE2D10825F8E700BF76
:101D6C00E04F0008B401002061040020F04F00088F
:101D7C005403002010B586B0954B1B78DB0957D166
:101D8C00934B1B7813F0080F74D1914B1B7813F005
:101D9C00080F76D00221072001F05CFB01A801F0AE
:101DAC008DFB8B4B1B7813F0040F71D1884B1B7878
:101DBC0013F0040F6FD001A801F080FB844B1B784B
:101DCC0013F0100F6AD1824B1B7813F0100F6CD0EC
:101DDC0001A801F073FB7F4B9B7C13F0010F6BD1BF
:101DEC007B4B1B7813F0010F40F0CF80784B1B78A6
:101DFC0013F0010F00F0D3800321052001F02AFB22
:101E0C0001A801F05BFB724B1B7813F0020F40F042
:101E1C00D0806F4B1B7813F0020F00F0D1800321A0
:101E2C000D2001F017FB01A801F048FB06B010BD16
:101E3C0001F02BFB0021052001F00CFB654CE38924
:101E4C009BB2654A52F8230001F038FB01210020B7
:101E5C0001F000FB6289614901A802F035FB01A881
:101E6C0001F02CFB0221002001F0F4FA5C4801F097
:101E7C0025FB85E75B4B93E803000190ADF8081058
:101E8C0083E7594B93E803000190ADF8081081E704
:101E9C00564B01938AE7564B01938CE7554B93E8CD
:101EAC0003000190ADF808108DE74F4B93E8030049
:101EBC000190ADF808108BE70321002001F0CAFA5D
:101ECC00444B9B7C13F0020F16D1424B9B7C13F0BE
:101EDC00040F26D13E4B1B7813F0010F41D13C4B24
:101EEC001B7813F0010F46D00321052001F0B2FA44
:101EFC0001A801F0E3FA86E70321002001F0AAFA19
:101F0C003D4B1A78092A07D83C4901A802F0DCFAA3
:101F1C0001A801F0D3FAD8E7394901A802F0D4FAA4
:101F2C00F6E70321052001F095FA364B1A78092AB9
:101F3C0009D9354BB3F8FA30632A0AD9334901A8C9
:101F4C0002F0C2FA09E00022314901A802F0BCFA01
:101F5C0003E02E4901A802F0B7FA01A801F0AEFA8D
:101F6C0051E72C4B93E803000190ADF80810090CD5
:101F7C008DF80A10B3E7284B93E803000190ADF8F5
:101F8C000810090C8DF80A10AEE7224B93E80300F9
:101F9C000190ADF80810090C8DF80A1026E71E4BBD
:101FAC0093E803000190ADF80810090C8DF80A10A5
:101FBC0022E701AB194A92E8030083E8030028E703
:101FCC0001AB174A92E8030083E8030027E700BF40
:101FDC00B0010020B801002054000020F84E000889
:101FEC00044F00080C4F0008144F000820D3D400F5
:101FFC00202020001C4F00085C060020244F000805
:10200C002C4F00086004002080060020404F000880
:10201C00344F00084C4F0008544F00085C4F000828
:10202C00644F00082DE9F04182B000248DF8054082
:10203C0001F02BFA904B1C700725012646E001F0AD
:10204C0024FA0027032F1DD88C4B53F8262004EBC1
:10205C0044034FEA830852F808308BB18DF80640E0
:10206C003946002001F0F6F9844B53F82630013440
:10207C00E4B253F8080001F021FA0137FFB2E1E7AE
:10208C00013CE4B205F0FD0529E09DF80710132092
:10209C0001F0E0F97A4801F011FA9DF805101320CF
:1020AC0001F0D8F9774801F009FA05F0FE05724BFA
:1020BC0000221A7016E09DF805302BB19DF8053002
:1020CC00013BDBB28DF8053045F001056A4B1B78FE
:1020DC00DBB20A2B00F2CD8015F0020FAFD115F058
:1020EC00010FD2D100F0ACFC9DF80530DBB28DF8BD
:1020FC000730654B1B78943B282BE7D801A252F88C
:10210C0023F000BFC3200008D9200008D920000804
:10211C00D9200008B5210008D9200008D9200008D2
:10212C00D9200008D7210008D9200008D9200008A0
:10213C00D9200008D9200008D9200008D92000088F
:10214C00D9200008D9200008D9200008D92000087F
:10215C00D9200008D9200008D9200008D92000086F
:10216C00D920000849220008D9200008D9200008ED
:10217C00D9200008D9200008D9200008D92000084F
:10218C00D9200008D9200008D9200008D92000083F
:10219C00D9200008D9200008D9200008D92000082F
:1021AC00D9200008DD2100089DF80520D2B29DF849
:1021BC000630DBB29A4205D29DF805300133DBB212
:1021CC008DF8053045F0010580E705F0FB057DE74E
:1021DC0015F0040F2FD1294B53F826109DF805301C
:1021EC0003EB43039A000A4413795BB19DF8053065
:1021FC0003EB43039A0011440E7900248DF805403B
:10220C00032563E79DF8053003EB43039A000A446A
:10221C009368002B3FF45AAF9DF8053003EB430352
:10222C009A0011448B6830469847064600248DF876
:10223C00054007254AE705F0FB0547E715F0040FB5
:10224C007FF444AF0D4B53F826109DF8053003EB8B
:10225C0043039A000A4453795BB19DF8053003EBB4
:10226C0043039A0011444E7900248DF8054007254C
:10227C002CE702B0BDE8F081B4010020280000205A
:10228C00184F00086C4F0008610400202DE9F04342
:10229C0089B081460E4690461F46109D0B88DBB2D6
:1022AC008DF807300221002001F0D4F8724801F0BB
:1022BC0005F90321002001F0CDF8704801F0FEF87B
:1022CC006F4B00221A7007246D4B1B78DBB20A2B64
:1022DC0000F2CE8014F0020F5CD100F0B1FB694B20
:1022EC001B78943B282BEFD801A252F823F000BFA7
:1022FC00D7230008D5220008D5220008D5220008D3
:10230C0027240008D5220008D5220008D522000871
:10231C00D5220008D5220008D5220008D5220008B5
:10232C00D5220008D5220008D5220008D5220008A5
:10233C00F1230008D5220008D5220008D522000878
:10234C0041240008D5220008D5220008D522000817
:10235C007D240008D5220008D5220008D5220008CB
:10236C00D5220008D5220008D5220008D522000865
:10237C00D5220008D5220008D5220008D522000855
:10238C00D5220008D5220008D5220008D522000845
:10239C007724000800203A4B1870012101F05AF8FC
:1023AC002B6843B19DF8073055F8230001F086F8EF
:1023BC0004F0FD0491E79DF80720334902A802F0D0
:1023CC0083F802A801F07AF8F2E79DF80730BB42D7
:1023DC0005D29DF807300133DBB28DF8073044F09D
:1023EC00020471E79DF80730DBB2A7F109029342B2
:1023FC0008DA9DF807300A33DBB28DF8073044F069
:10240C00020461E79DF80730BB42F8D29DF8073013
:10241C000133DBB28DF80730F1E79DF80730434507
:10242C0005D99DF80730013BDBB28DF8073044F03D
:10243C00020449E79DF80730DBB208F10A02934227
:10244C0008DD9DF807300A3BDBB28DF8073044F00D
:10245C00020439E79DF807304345F8D99DF8073059
:10246C00013BDBB28DF80730F1E79DF80730338084
:10247C00484609B0BDE8F08348510008F850000800
:10248C00B401002061040020F04F000830B589B081
:10249C00054600F0FAFF00F0F8FF0021084600F0B6
:1024AC00D9FF02AB0B4A07CA83E80700184601F0B4
:1024BC0005F8094C094B009363230022214628465A
:1024CC00FFF7E4FE083C23899BB2054AA2F80231CF
:1024DC0009B030BD30520008C0010020740100204A
:1024EC008006002070B588B0064600F0CEFF00F0E4
:1024FC00CCFF0021084600F0ADFF02AC254D0FCDFE
:10250C000FC42B6824F8023B1B0C237002A800F0AC
:10251C00D5FF214C214B00937023012221463046DC
:10252C00FFF7B4FE0646214631F80A399BB21C4A25
:10253C00A2F804318A8A92B24B899BB29A4204D98E
:10254C00A4F10A0253899BB2938200F09EFF00F023
:10255C009CFF0021084600F07DFF02AC114D0FCD11
:10256C000FC42B68237002A800F0A8FF0E4B5B89E8
:10257C009BB20A2B0BD80C4B5B899BB2074A00927F
:10258C0001220A493046FFF781FE08B070BD0A23CC
:10259C00F4E700BF80510008C20100207401002044
:1025AC008006002094510008B8010020CC010020C6
:1025BC0010B582B0044600F068FF00F066FF002101
:1025CC00084600F047FF064800F078FF054B0093E3
:1025DC001A23002204492046FFF758FE02B010BD12
:1025EC00A851000854000020C601002030B583B06B
:1025FC00054600F04AFF00F048FF0021084600F0B5
:10260C0029FF0A4800F05AFF094C0A4B0093632338
:10261C00012221462846FFF739FE063CE3889BB28F
:10262C00054AA2F8FE3003B030BD00BFF8510008D7
:10263C00BE010020740100208006002010B582B07D
:10264C00044600F022FF00F020FF0021084600F0B5
:10265C0001FF064800F032FF054B00936323012273
:10266C0004492046FFF712FE02B010BD0C520008C0
:10267C0074010020C801002030B585B0054600F07B
:10268C0004FF00F002FF0021084600F0E3FE1448AE
:10269C0000F014FF134CA37C03F0010304A921F8F0
:1026AC00023D114B0093012300222846FFF7EEFD5B
:1026BC00BDF80E20003218BF0122A37C62F3000388
:1026CC00A374A37C13F0010F07D1A27C6FF341021A
:1026DC00A274A27C6FF38202A27405B030BD00BF5D
:1026EC00C0510008B80100202000002030B585B092
:1026FC00054600F0CAFE00F0C8FE0021084600F0B6
:10270C00A9FE124800F0DAFE114CA37CC3F340037F
:10271C0004A921F8023D0F4B009301230022284607
:10272C00FFF7B4FDBDF80E20003218BF0122A37CC8
:10273C0062F34103A374A37C13F0020F03D0A37CB8
:10274C0043F00103A37405B030BD00BFE451000891
:10275C00B80100202000002030B585B0054600F0FF
:10276C0094FE00F092FE0021084600F073FE124821
:10277C0000F0A4FE114CA37CC3F3800304A921F840
:10278C00023D0F4B0093012300222846FFF77EFDEC
:10279C00BDF80E20003218BF0122A37C62F3820325
:1027AC00A374A37C13F0040F03D0A37C43F00103A8
:1027BC00A37405B030BD00BF24520008B80100203E
:1027CC002000002030B585B0054600F05EFE00F01C
:1027DC005CFE0021084600F03DFE0B4800F06EFE4A
:1027EC000A4CA38804A921F8023D094B0093FF234E
:1027FC0001222846FFF74AFDBDF80E30A380054A9A
:10280C00A2F8F83005B030BD5C510008B8010020CA
:10281C00740100208006002030B585B0054600F01C
:10282C0034FE00F032FE0021084600F013FE14487E
:10283C0000F044FE134CA378C3F3C20304A921F89F
:10284C00023D114B0093072300222846FFF71EFD83
:10285C00BDF80E10A27861F3C502A2700B4AB2F853
:10286C00F6309BB223F038039BB2A2F8F630B2F8E4
:10287C00F63043EA81039BB2A2F8F63005B030BDC6
:10288C006C510008B80100200000002080060020D8
:10289C0030B585B0054600F0F8FD00F0F6FD0021DE
:1028AC00084600F0D7FD154800F008FE144CA3783C
:1028BC0003F0010304A921F8023D124B00930123FC
:1028CC0000222846FFF7E2FCBDF80E100A1C18BFC8
:1028DC000122A37862F30003A3700B4AB2F8F6301E
:1028EC009BB223F001039BB2A2F8F630B2F8F6309B
:1028FC001943A2F8F61005B030BD00BFB051000866
:10290C00B8010020200000208006002030B585B0E2
:10291C00054600F0BAFD00F0B8FD0021084600F0B5
:10292C0099FD164800F0CAFD154CA378C3F340037B
:10293C0004A921F8023D134B0093012300222846E1
:10294C00FFF7A4FCBDF80E100B1C18BF0123A278D6
:10295C0063F34102A2700C4AB2F8F6309BB223F03A
:10296C0002039BB2A2F8F630B2F8F63043EA410308
:10297C009BB2A2F8F63005B030BD00BFB0510008D4
:10298C00B8010020C00000208006002030B585B0C2
:10299C00054600F07AFD00F078FD0021084600F0B5
:1029AC0059FD164800F08AFD154C6388C3F380036B
:1029BC00013304A921F8023D124B0093022301229A
:1029CC002846FFF763FCBDF80E104A1E638862F3BD
:1029DC00820363800C4AB2F8F6309BB223F00403F6
:1029EC009BB2A2F8F630B2F8F630013943EA810313
:1029FC009BB2A2F8F63005B030BD00BFD051000834
:102A0C00B8010020740100208006002010B5044697
:102A1C00FFF7D8FE2046FFF7FFFE2046FFF738FFF2
:102A2C00064B9B7813F0010F04D12046FFF7AEFF45
:102A3C00204610BD2046FFF769FFF6E7B8010020DD
:102A4C003D4B187800F07F00187010E001339BB2FA
:102A5C0040F6FE729342F9D9384A936803F00303A7
:102A6C009268920902F00C02134399420AD0334B3C
:102A7C00996801F003019B689B0903F00C0319434F
:102A8C000023E5E700F07003102B19D009D9202B97
:102A9C0036D0302B0FD179B361F06F01264B197002
:102AAC0009E043B939B161F06F01234B1970244B24
:102ABC004FF47A721A80204B1A78224B1A70704796
:102ACC0079B100F00F008142F5D11D4B1B887BB909
:102ADC0060F05F00184B1870194B4FF4FA621A80B3
:102AEC00E9E700F00F0363F04F03134A1370E2E7BA
:102AFC00013B134A1380DEE70F4B00221A70DAE712
:102B0C0051B100F00F008842D5D10D4B1B8853B149
:102B1C00013B0B4A1380CEE700F00F0363F04F0329
:102B2C00054A1370C7E760F05F00034B1870044B45
:102B3C004FF4FA621A80BEE778010020000C0140C5
:102B4C007A010020610400202DE9F04383B00121BB
:102B5C003D2001F0CBFB01213C4801F019FBF02397
:102B6C00ADF8043010258DF8075001248DF806407F
:102B7C00374F01A9384601F0BBFA0823ADF80430F1
:102B8C008DF807508DF8064001A9384601F0B0FACF
:102B9C000426ADF804608DF807508DF806400DEB57
:102BAC0006012C4801F0A4FA4FF48053ADF8043020
:102BBC008DF807508DF80640DFF8A0800DEB06016C
:102BCC00404601F095FA40F20333ADF804308DF82D
:102BDC0007604FF002098DF806900DEB06013846A0
:102BEC0001F086FA4FF4E053ADF804308DF807503D
:102BFC008DF806400DEB0601384601F079FAC0233A
:102C0C00ADF804308DF807508DF806400DEB060139
:102C1C00404601F06DFAFF23ADF804308DF80760E3
:102C2C008DF806900DEB06010B4801F061FA30238C
:102C3C00ADF804308DF807608DF806900DEB0601A9
:102C4C00404601F055FA03B0BDE8F08300023000B5
:102C5C00000C01400014014000080140001001402C
:102C6C0010B582B04FF4C06001F048F903238DF821
:102C7C00043001248DF8054000238DF806308DF8C2
:102C8C00074001A801F044F921464FF0C05001F073
:102C9C003BFB204601F0C0FB204601F0B5FA612059
:102CAC0001F040FB0028FAD04FF4007001F0B2FAAA
:102CBC00012001F0B7FA01F087FB01F07DFB012147
:102CCC00084601F049FB01F077FB49F63F4001F063
:102CDC0063FB01F071FB02B010BD000030B587B092
:102CEC0001214FF4802001F00FFB0121264801F057
:102CFC004FFA4FF40063ADF8043004238DF807301D
:102D0C00224D0DEB0301284601F0F2F94FF48063DC
:102D1C00ADF8043003248DF8064018238DF80730E5
:102D2C0001A9284601F0E4F94FF40043ADF8043052
:102D3C008DF8064010238DF8073001A9144801F0D6
:102D4C00D7F94FF4165302930023ADF80C30ADF8BD
:102D5C000E30ADF81030ADF814300C23ADF8123045
:102D6C000C4C02A9204601F005F90B4B80225A604D
:102D7C00012240F22551204601F06DF90121204637
:102D8C0001F05CF907B030BD1000140000100140D8
:102D9C00000801400048004000E100E04A4B9A69FD
:102DAC0042F004029A619A6942F001029A619A69AE
:102DBC0042F480429A61A3F584335A6822F0F002FF
:102DCC005A605A6842F0B0025A605A6822F4706233
:102DDC005A605A6842F480625A60C0B210F0010F17
:102DEC000DD03A4A938943F48063938110F0020F1B
:102DFC0025D093899BB223F400739BB29381334A01
:102E0C00138A9BB223F440539BB2138210F0040F2D
:102E1C0003D0138A43F40053138210F0380017D0F8
:102E2C00082842D0102843D0182844D0202845D058
:102E3C00282846D0302808D040F271220AE0234AD4
:102E4C00938943F400739381D9E740F2A93201E0EE
:102E5C0041F64C521D4B1A819A8992B222F480523F
:102E6C0092B29A819A8942F400529A819A8942F0DC
:102E7C0008029A819A8942F004029A819A8942F056
:102E8C0010029A81124B402283F8252320225A608B
:102E9C0003F1C04303F51C535A6822F00F025A6029
:102EAC005A6842F003025A60704741F28832D1E707
:102EBC0040F6A662CEE740F6C412CBE740F253725E
:102ECC00C8E740F2E242C5E700100240003801407A
:102EDC0000E100E0194A938A43F08003938202F5E3
:102EEC005842536943F001035361154BA2F5574205
:102EFC00FC3A9A60D86000221A601A6822F020020C
:102F0C001A601A6842F010021A601A6822F44072B1
:102F1C001A601A6822F040021A601A6822F44062A1
:102F2C001A601A6842F080021A601A6842F00202B3
:102F3C001A60044B4FF480421A607047003801400D
:102F4C004400024000E100E0164A938A43F040033B
:102F5C00938202F55842536943F001035361124BBB
:102F6C00A2F55742FC3A9A60D860596000221A6068
:102F7C001A6822F010021A601A6822F440721A6061
:102F8C001A6822F040021A601A6822F440621A6031
:102F9C001A6842F080021A601A6842F020021A6025
:102FAC00704700BF003801405800024030B583B074
:102FBC0001214FF4804001F0A7F94FF46043ADF8C4
:102FCC00043003238DF8063018238DF8073001A93F
:102FDC00234801F08DF84FF40065ADF80450102330
:102FEC008DF8073001238DF806301E4C01A92046C0
:102FFC0001F07EF825611C4B1A8842F010021A80F1
:10300C001A8892B222F0020292B21A801A8892B2F4
:10301C0022F0010292B21A801A8892B222F4006253
:10302C0092B21A801A8892B222F0800292B21A805E
:10303C001A8842F400721A801A8842F480721A803C
:10304C009A8892B222F0040292B29A801A8842F0C4
:10305C0004021A801A8842F040021A8003B030BD74
:10306C00000C014000080140003800400B4B4FF4AD
:10307C0080721A6100BF00BF03F5784344331A68AD
:10308C0022F001021A60586005494A6842F4005265
:10309C004A601A6842F001021A6070470008014049
:1030AC0000000240054A136823F001031360044B2F
:1030BC004FF480725A6100BF00BF70474400024059
:1030CC0000080140084B1A6822F001021A60FF2226
:1030DC005A6006494A6842F400324A601A6842F063
:1030EC0001021A60704700BF580002400000024005
:1030FC00024A136823F00103136070475800024022
:10310C00034B9881024B1B8913F0020FFAD07047C6
:10311C0000380040044B1B8913F0010FFAD0024B0E
:10312C009889C0B2704700BF0038004010B582B01B
:10313C000446194B4FF400625A6100BF00BF00BF38
:10314C0000BF00BF430903F008038DF807309DF85A
:10315C00070040F00300FFF7D3FFE0B2FFF7D0FF0A
:10316C00FFF7D8FF8DF807000020FFF7C9FFFFF726
:10317C00D1FF8DF80700094B1B8913F0800FFAD192
:10318C00FFF7C8FF8DF80700034B4FF400621A617C
:10319C009DF8070002B010BD000801400038004047
:1031AC0008B50C4B4FF400625A6100BF00BF00BF62
:1031BC0000BF00BF0620FFF7A3FF074B1B8913F0CE
:1031CC00800FFAD1FFF7A6FF024B4FF400621A6191
:1031DC0008BD00BF000801400038004008B50C4B8A
:1031EC004FF400625A6100BF00BF00BF00BF00BFB8
:1031FC000420FFF785FF074B1B8913F0800FFAD1D2
:10320C00FFF788FF024B4FF400621A6108BD00BF44
:10321C00000801400038004000B583B0114B4FF45A
:10322C0000625A6100BF00BF00BF00BF00BF052095
:10323C00FFF766FF0020FFF763FFFFF76BFF0A4BFA
:10324C001B8913F0800FFAD1FFF764FF8DF807008C
:10325C00044B4FF400621A619DF8070003B05DF84F
:10326C0004FB00BF000801400038004030B583B0BB
:10327C0004460D46FFF7D0FF10F0010FFAD1FFF70F
:10328C008FFFFFF7C9FF10F0010FFAD1194B4FF464
:10329C0000625A6100BF00BF00BF00BF00BF6309DE
:1032AC0003F008038DF807309DF8070040F002008A
:1032BC00FFF726FFE0B2FFF723FFFFF72BFF2846AF
:1032CC00FFF71EFFFFF726FF0B4B1B8913F0800F38
:1032DC00FAD1FFF71FFF8DF80700064B4FF4006281
:1032EC001A61FFF799FF10F0010FFAD1002003B01B
:1032FC0030BD00BF0008014000380040064AD369C9
:10330C0043F00403D361054B41F63F721A851A88CA
:10331C0042F008021A80704700100240000800407A
:10332C00094B988500229A8401221A80064B1B8A2D
:10333C0013F0010FFAD0044A138A9BB223F0010355
:10334C009BB21382704700BF0008004010B5114AB1
:10335C00D36823F00403D3600F4CE36823F0F0032D
:10336C000001C0B20343E360E36823F00803E360A9
:10337C000520FFF7D5FFE36843F00803E360052061
:10338C00FFF7CEFFE36823F00803E3600520FFF7A7
:10339C00C7FF10BD00140140000C014010B50446DD
:1033AC000120FFF7BDFF064AD36823F48053D36096
:1033BC002009FFF7CBFF2046FFF7C8FF10BD00BF69
:1033CC000010014010B504460120FFF7A9FF064A82
:1033DC00D36843F48053D3602009FFF7B7FF20462E
:1033EC00FFF7B4FF10BD00BF0010014008B5C820A6
:1033FC00FFF796FF164AD36823F48053D36003205B
:10340C00FFF7A4FF3220FFF78BFF0320FFF79EFF8F
:10341C000A20FFF785FF0320FFF798FF0A20FFF72C
:10342C007FFF0220FFF792FF0A20FFF779FF282089
:10343C00FFF7B4FF0C20FFF7B1FF0120FFF7AEFF41
:10344C000620FFF7ABFF8020FFF7A8FF08BD00BFE9
:10345C000010014008B5032915D8DFE801F0020877
:10346C000C10C0B240F08000FFF798FF08BDC0B24E
:10347C004030C0B2F6E7C0B21430C0B2F2E7C0B20E
:10348C005430C0B2EEE7C0B2ECE708B50120FFF74C
:10349C0085FF0220FFF782FF08BD0000BF2803D97B
:1034AC004030C0B2014B185C704700BF9855000803
:1034BC0008B5FFF7F3FFFFF785FF08BD10B504460D
:1034CC0002E00134FFF7F4FF20780028F9D110BD99
:1034DC002DE9F84F82468946164698460A9C9DF877
:1034EC002C700025514B1B78042BFBD8DFE803F024
:1034FC0003284C657D0084F800A0032363704FEA19
:10350C001923A37084F80390330A23716671062182
:10351C00204600F01DFBA071000AE071082384F81E
:10352C000031002384F8013184F8FF3040493A011E
:10353C008B18C820586001238B543C4A1370D1E778
:10354C003B4B03EB07131B7B8BB994F8013163B135
:10355C00002384F80131354A0221117034483901B5
:10356C004218435413739360BCE7002046E0304884
:10357C003A01811800230B738B6083540B738B609F
:10358C002A4A1370FE2039E07500EDB20535EDB214
:10359C0094F8FF30AB4202D06A1C934206D1002350
:1035AC0084F8FF30214B03221A709BE7002384F828
:1035BC00FF301E4A1370FD2020E06B1EE35CA91E39
:1035CC0014F801B00BEB032B1FFA8BFBC9B220468E
:1035DC0000F0BEFA584503D1144B04221A7081E74F
:1035EC00124B00221A70FD2008E0607810F0800F5A
:1035FC001AD00E4B00221A7000F00100BDE8F88FB3
:10360C005A000332A15C9A1C14F8122002EB01221E
:10361C0028F813200133DBB29AB2B242F0D3034B39
:10362C0000221A70FF20E9E70023F5E77C01002057
:10363C00D00100202DE9F84F8246894617461D46D9
:10364C000A9C9DF82C804FF0000B564B1B78042BDA
:10365C00FBD8DFE803F003466C7F970084F800A0EA
:10366C00102363704FEA1923A37084F803903B0A6C
:10367C002371FEB266717600F6B2A67100230CE0DF
:10368C005A0035F813100732090AA15435F81310F3
:10369C001A1D04F812100133DBB29AB2BA42EFD3FE
:1036AC0006F1070B5FFA8BFB5946204600F050FAE7
:1036BC0004F80B000BF10103000AE054093684F8FE
:1036CC000061002384F8013184F8FF3036494FEA59
:1036DC0008128B18C820586001238B54314A137080
:1036EC00B3E74246304B03EB08131B7B93B994F8BA
:1036FC0001316BB1002384F801312A4A0221117087
:10370C0029484FEA081142184354137393609CE7FD
:10371C00002040E024481201811800230B738B60B9
:10372C0083540B738B601F4A1370FE2033E094F8A4
:10373C00FFB0BBF1080F06D1002384F8FF30194B02
:10374C0003221A7081E7002384F8FF30154A1370A6
:10375C00FD2020E00BF1FF33E35CABF10201665C72
:10376C0006EB0326B6B2C9B2204600F0F1F9B0421E
:10377C0003D10C4B04221A7067E70A4B00221A7013
:10378C00FD2008E0607810F0800F06D0054B002279
:10379C001A7000F00100BDE8F88F024B00221A707D
:1037AC00FF20F8E77D010020D00100202DE9F04337
:1037BC00BFB004460F469146002398461E461D4650
:1037CC006FE194F80131002B00F0A181012368E135
:1037DC0094F8FF30072B00F29C81002384F8013110
:1037EC0084F8FF300D235CE123784B4500F0938186
:1037FC00002B00F09281002384F8013184F8FF3013
:10380C000D234EE16378032B00F08981102B00F01F
:10381C008881052B00F0458107234FF0010840E11A
:10382C00A278E57805EB0225ADB22279667906EB34
:10383C000226B6B2AA1992B2013A92B26178102954
:10384C000FD0032940F02D8194F8FF30083BDBB2F8
:10385C00012B1AD9002384F8013184F8FF300D2391
:10386C001FE194F8FF1073000933994206D000232E
:10387C0084F8013184F8FF300D2312E1782A40F2EC
:10388C00528107234FF002080BE1822A40F24D814E
:10389C0007234FF0020804E1A378E57845EA0325F5
:1038AC00012D03D907234FF00208FAE094F8FF30FA
:1038BC00083BDBB2012B40F23A81002384F8013142
:1038CC0084F8FF300D23ECE06378102B3AD0052BF5
:1038DC0042D00723E5E0002101339BB29E4234D94C
:1038EC005A00D01D14F800E0181D14F8100040EA1E
:1038FC000E200DF1F80E724422F8F40C0029EAD0D7
:10390C000EEB430232F8F41C89B2EA1802F1FC0007
:10391C0007EB4000808881420ED30EEB430C3CF841
:10392C00F41C89B202F5BA7207EB4202D2889142BA
:10393C0004D92AB10021CFE70021CDE70121CBE743
:10394C000121C9E701210023C8E7002940F0F180DB
:10395C0007234FF00308A4E02279637943EA02239A
:10396C00ADF80230BDF802309BB2002B00F0E380C2
:10397C00BDF802309BB2B3F57F4F00F0DE80072319
:10398C004FF003088DE094F8FF100239C9B22046BD
:10399C0000F0DEF8C2B2C0F3072094F8FF30991E95
:1039AC00615C914206D0002384F8013184F8FF3029
:1039BC000D2376E0013BE35C8342F4D1B8F1000FB8
:1039CC0040F0BD806378032B00F0BB80102B00F01F
:1039DC00BA80052B01D00D2363E00B2361E0237823
:1039EC002BB984F8013184F8FF300D2359E063784A
:1039FC0063F07F03637084F80280032384F8003142
:103A0C000C234EE023782BB984F8013184F8FF3075
:103A1C000D2346E07300A37000230EE0EA18783201
:103A2C0007EB4202508859000331000A6054518858
:103A3C009A1C04F8121001339BB29E42EED8A37864
:103A4C00033384F800310C232BE0E9183EAA02EB77
:103A5C00430232F8F42C92B227F8112001339BB2B6
:103A6C009E42F2D823783BB984F8013184F8FF30B8
:103A7C000D2316E00023F3E7062384F800310C2312
:103A8C000FE0BDF802309BB205F1FC0227F81230B2
:103A9C00082384F80031002384F8013184F8FF30C6
:103AAC000D230D2B51D00C2BFBD801A252F823F077
:103ABC00CF370008DD370008F5370008113800084B
:103ACC002D380008A5380008D538000893390008AF
:103ADC00EB390008113A0008813A00088F3A0008C7
:103AEC00F13A000894F80011204600F031F894F8EF
:103AFC000031E0545A1C000AA054023384F80031FF
:103B0C00002384F8013184F8FF300D23C9E70D231D
:103B1C00C7E70223C5E70323C3E70323C1E7042355
:103B2C00BFE70423BDE70623BBE70723B9E706235A
:103B3C00B7E70723B5E70723B3E70723B1E7082364
:103B4C00AFE70923ADE70A23ABE73FB0BDE8F0834D
:103B5C0030B44FF6FF730DE05B080132072A07DC27
:103B6C0013F0010FF8D04AF2010181EA5303F4E794
:103B7C00214628464A1ED4B221B1451C0278534036
:103B8C000022EBE7184630BC70470000002306E02B
:103B9C001F4A4FF6FF7122F8131001339BB20A2B08
:103BAC00F6D91C4B1B68B3F1FF3F2ED030B4002369
:103BBC001C46FF2B1CD89A0002F1006202F5F84259
:103BCC00528892B20A2A0CD8124931F8231089B2C1
:103BDC000F4D25F81210944238BF144601339BB296
:103BEC00E7E70D4A13800A2C02D0002030BC704746
:103BFC00002306E0064A32F8132020F81320013384
:103C0C009BB20A2BF6D90120F0E70020704700BFC9
:103C1C0080010020007C0008960100209D4B1B7841
:103C2C00062B00F21F81DFE813F00700200067006D
:103C3C007A00A800E5000101974B1B88974A32F8DF
:103C4C00132092B230F813108A4205D0944B19808D
:103C5C00904B01221A70704701339BB20B2B02D090
:103C6C008D4A138070470023FAE78E4B1B889BB25A
:103C7C00B3F5807F17D08B4B1B889BB28A4A32F8E6
:103C8C0023309BB24FF6FF72934213D0854B1B88A7
:103C9C009B0003F1006303F5F843844A13607D4BEA
:103CAC0003221A7070477F4B00221A80794B052231
:103CBC001A7070477E4B1B6913F0800F05D07C4B3C
:103CCC007C4A5A6002F188325A60794B00221A61A0
:103CDC001A6942F001021A61724B1B889B0003F1B6
:103CEC00006303F5F843714A13606D4A12881A8019
:103CFC00684B02221A7070476D4BDB6813F0200F73
:103D0C0000F0B0806A4BDA6842F02002DA601A697F
:103D1C0042F080021A615F4B03221A707047614BAC
:103D2C001B889B0003F1006303F5F8435B889BB28F
:103D3C004FF6FF72934203D0564B05221A70704710
:103D4C005B4B1B6913F0800F05D0594B594A5A60D5
:103D5C0002F188325A60564B00221A611A6942F0FD
:103D6C0001021A61514A1368991C11604A4A12885F
:103D7C005A80484B04221A7070474D4BDB6813F085
:103D8C00200F1ED04A4AD36843F02003D360454B22
:103D9C001B889B0003F1006303F5F8435B889BB21F
:103DAC003D4A128893421AD03E4A138801339BB283
:103DBC0013803F4A136943F080031361354B002293
:103DCC001A703B4BDB6813F0040F4BD0384AD368A6
:103DDC0043F00403D3602F4B05221A707047314B0C
:103DEC001B889BB2304931F823309BB22B4921F808
:103DFC001230D9E72E4B1B6913F0800F05D02C4BDA
:103E0C002C4A5A6002F188325A60294B00221A61FE
:103E1C001A6942F002021A61234A5A611A6942F085
:103E2C0040021A611B4B06221A707047204BDB684C
:103E3C0013F0200F16D01E4AD36843F02003D36032
:103E4C0000234FF0FF3205E0174951F823100A40C8
:103E5C0001339BB2FF2BF7D9B2F1FF3F03D00D4BCF
:103E6C0005221A707047124A136943F080031361DC
:103E7C00002306E0094A4FF6FF7122F813100133B4
:103E8C009BB20A2BF6D90023024A1370054A138001
:103E9C00704700BF980100209A010020800100208B
:103EAC00A001002096010020007C00089C0100204D
:103EBC0000200240230167450C4B1A68136843F03D
:103ECC00010313600A4B1B681A686FF39F221A6078
:103EDC00084B1A68536843F001035360064B1B6888
:103EEC001A686FF3DF321A60704700BFD0000020F1
:103EFC00D4000020CC000020C800002040F0BF609F
:103F0C0040F40030014BD860704700BF00ED00E07A
:103F1C00C37853B9037803F01F015B0901228A406F
:103F2C002033124941F82320704710B4104BDA6843
:103F3C00D243C2F30222C2F104040F2323FA02F289
:103F4C004178A140837813400B431B010278DBB20C
:103F5C0006490A4482F80033037803F01F005B091A
:103F6C000122824041F8232010BC704700E100E0A0
:103F7C0000ED00E030B587B004460D46038A9BB2D5
:103F8C00CA8823F440531343038283899BB28988E4
:103F9C0028896A8901430A4323F4B05323F00C03A4
:103FAC001343A381A38A9BB2AA8923F440731343BE
:103FBC00A38201A800F03CF91E4B9C4224D0039B29
:103FCC00A28912F4004F21D103EB830303EB83038B
:103FDC0029688900B3FBF1F1174BA3FB01235809A6
:103FEC000501642300FB1313A28912F4004F16D1B0
:103FFC001B013233104AA2FB0323C3F343132B439D
:10400C009BB2238107B030BD049BD9E703EB83033C
:10401C0003EB830329684900B3FBF1F1DCE7DA0019
:10402C003232054BA3FB0232C2F3421242EA0503C1
:10403C00E6E700BF003801401F85EB5131B9838999
:10404C009BB223F400539BB283817047838943F462
:10405C0000538381704710B4C1F3421401F01F0167
:10406C00012303FA01F19C4209D0022C09D014302F
:10407C004AB9036823EA0101016010BC70470C3097
:10408C00F6E71030F4E7036819430160F5E7C1F374
:10409C000801818070478088C0F30800704703884E
:1040AC00194201D1002070470120704710B4C1F3B0
:1040BC00421201F01F040123A340012A0DD0022A51
:1040CC000ED0828A1340090A012202FA01F10288F9
:1040DC00114043B151B9002006E082891340F2E748
:1040EC00028A1340EFE7002010BC70470120FBE769
:1040FC00F0B4CB7803F00F02154613F0100F01D07B
:10410C008D7815430B78E3B10668002301E042611A
:10411C000133072B14D801229A400C8832EA04048C
:10412C00F6D19C000F27A74026EA070605FA04F4EF
:10413C002643CC78282CEAD0482CE9D10261E7E759
:10414C0006600B88FF2B20D94668002303E04261F0
:10415C0016E002610133072B16D803F10804012283
:10416C00A2400C8832EA0404F4D19C000F27A7402B
:10417C0026EA070605FA04F42643CC78282CE6D068
:10418C00CC78482CE6D1E4E74660F0BC70470000E0
:10419C0030B4002814DB1B4B5B68C0F3034582B2C0
:1041AC0000F44014B4F5401F0DD010F4801F1CD047
:1041BC00032404FA05F523EA050343F0706309E0D0
:1041CC00104BDB69E9E723F070630E4D6C6824F04B
:1041DC0070646C6019B1410D09018A4013430028C9
:1041EC000CDB084A536030BC7047440D240102FAC2
:1041FC0004F423EA040343F07063EBE7014AD36150
:10420C00F1E700BF00000140014B1860704700BF90
:10421C0080044242024A136A18431062704700BF7E
:10422C0000100240014B1860704700BF3C04424232
:10423C0010B4294B5B6803F00C03042B2BD0082B18
:10424C002CD013B1254B036001E0244B03602249B1
:10425C004B68C3F30313224CE35CDAB20368D3401C
:10426C0043604A68C2F30222A25CD2B223FA02F281
:10427C0082604A68C2F3C222A25CD2B2D340C3604D
:10428C004A68C2F3813217498A5CD2B2B3FBF2F3AB
:10429C00036110BC7047114B0360D8E70E4A53689A
:1042AC005268C3F38343023312F4803F09D00A4AA5
:1042BC00526812F4003F09D00B4A02FB03F303606F
:1042CC00C5E7094A02FB03F30360C0E7034A02FB9C
:1042DC0003F30360BBE700BF0010024000127A003A
:1042EC00DC000020D800002000093D0029B9054A57
:1042FC00936923EA000090617047024A936918435E
:10430C00906170470010024029B9054AD36923EA2D
:10431C000000D0617047024AD3691843D0617047DE
:10432C00001002404309012B0CD0022B0DD0094B7D
:10433C005B6A00F01F0023FA00F010F0010F07D1A8
:10434C0000207047034B1B68F3E7024B1B6AF0E736
:10435C00012070470010024029B9054A138823EA4E
:10436C00000010807047024B1A8810431880704769
:10437C0000280040024A938843F010039380704752
:10438C0000280040034A93889BB223F010039BB291
:10439C00938070470028004010B50446FFF7EAFFF1
:1043AC00C4F30342034B1A81A4B29C81FFF7EAFFCA
:1043BC0010BD00BF00280040024B9B8813F0200F5B
:1043CC00FAD0704700280040064A93889BB223F02D
:1043DC0008039BB29380034B9B8813F0080FFAD011
:1043EC00704700BF00280040064A9188C3B20B40BA
:1043FC001288104202D01BB9002070470020704771
:10440C000120704700280040024A938823EA0000EC
:10441C009080704700280040014B1860704700BF27
:10442C0020000E42034A136803F03803184310604F
:10443C00704700BF00200240002103E00A4B5B588C
:10444C004350043109480A4B42189A42F6D3094AA0
:10445C0002E0002342F8043B074B9A42F9D300F0E8
:10446C000FF8FCF75DFD70471456000800000020A3
:10447C005001002050010020640A0020FEE70000DB
:10448C0070B500250C4E0D4CA41BA410A54209D1EF
:10449C0000F03AFC00250A4E0A4CA41BA410A542BD
:1044AC0005D170BD56F8253098470135EEE756F822
:1044BC00253098470135F2E70C5600080C560008D9
:1044CC000C560008105600080EB46FF0004100B5F1
:1044DC009CB01DAB029006900791049108480949C5
:1044EC0053F8042B0591006802A9019300F066F8BB
:1044FC000022029B1A701CB05DF804EB03B07047ED
:10450C00EC0000200802FFFF2DE9F0478E68824680
:10451C009E420C469046994637D88A8912F4906F81
:10452C0031D00223256809696F1A656905EB4505C9
:10453C0095FBF3F509F101033B449D4238BF1D4641
:10454C00530530D5294600F037FB064650B90C23ED
:10455C004FF0FF30CAF80030A38943F04003A38129
:10456C00BDE8F0873A46216900F0B6FAA38923F436
:10457C00906343F08003A38126613E4426604E463F
:10458C006561ED1BA5604E4500D94E46324641464D
:10459C00206800F0ACFAA36800209B1BA360236882
:1045AC001E442660DCE72A4600F060FB0646002825
:1045BC00E2D12169504600F0B3FAC8E72DE9F04F7B
:1045CC001D468B899DB01F0680460C4616460FD59E
:1045DC000B696BB9402100F0EFFA2060206128B91B
:1045EC000C23C8F800304FF0FF30C8E04023636163
:1045FC000023099320238DF8293030234FF0010B31
:10460C008DF82A30039537463D4615F8013B0BB122
:10461C00252B3ED1B7EB060A0BD05346324621462A
:10462C004046FFF771FF013000F0A480099B534412
:10463C0009933B78002B00F09D8000234FF0FF3254
:10464C00CDE90523049307938DF853301A932F4625
:10465C00052217F8011B504800F030FA049BD0B922
:10466C00D90644BF20228DF853201A0744BF2B22B1
:10467C008DF853202A782A2A15D02F4600200A2597
:10468C00079A394611F8013B303B092B4DD9B8B18B
:10469C000FE02F46B8E7404A3D46801A0BFA00F06F
:1046AC0018430490D3E7039A111D12680391002A52
:1046BC0001DB079204E0524243F002030792049399
:1046CC003B782E2B0CD17B782A2B33D1039B0237D2
:1046DC001A1D1B680392002BB8BF4FF0FF330593D4
:1046EC002E4D03223978284600F0E8F938B14023E2
:1046FC00401B03FA00F0049B013703430493397801
:10470C00062227487E1C8DF8281000F0D7F90028C7
:10471C0038D0244B13BB039B073323F00703083318
:10472C000393099B4B4409936DE705FB023201206F
:10473C000F46A6E700230A2519460137059338468C
:10474C0010F8012B303A092A03D9002BC8D0059157
:10475C00C6E705FB012101230746F0E703AB0093F5
:10476C002246114B04A94046AFF30080B0F1FF3F45
:10477C008146D6D1A3895B063FF535AF09981DB0AC
:10478C00BDE8F08F03AB00932246074B04A94046CB
:10479C0000F082F8EAE700BFD8550008DE550008A3
:1047AC00E255000800000000154500082DE9F0470F
:1047BC0091461F468A680B6906469342B8BF13465A
:1047CC00C9F8003091F843200C46DDF8208012B176
:1047DC000133C9F800302368990642BFD9F800307C
:1047EC000233C9F80030256815F0060507D104F12D
:1047FC00190AE368D9F800209B1AAB4229DC94F81B
:10480C0043302268003318BF012392062ED404F1E2
:10481C00430239463046C047013021D02368E56851
:10482C0003F00603042B18BF0025D9F800204FF025
:10483C00000908BFAD1AA368226908BF25EAE5750F
:10484C009342C4BF9B1AED181A344D451AD100205F
:10485C0008E00123524639463046C047013003D1A7
:10486C004FF0FF30BDE8F0870135C2E73020E1188A
:10487C0081F843005A1C94F845102244023382F804
:10488C004310C4E70123224639463046C047013065
:10489C00E6D009F10109D8E72DE9F04301F1430C09
:1048AC000C46097E85B06E291746064698460C9A2A
:1048BC0000F0B38022D8632936D00AD8002900F042
:1048CC00B980582900F0838004F1420584F8421025
:1048DC0032E0642901D06929F6D1206813680506F5
:1048EC0003F104012AD51B681160002B03DA2D2279
:1048FC005B4284F843206F480A2239E0732900F0A8
:10490C009D8008D86F2920D07029DDD1236843F011
:10491C002003236003E0752917D07829D4D178239C
:10492C00654884F8453055E0136804F14205191DBB
:10493C001B68116084F8423001238CE01B6810F076
:10494C00400F116018BF1BB2CFE713682568181D04
:10495C001060280601D51B6802E06806FBD51B8891
:10496C006F2914BF0A2208225248002184F84310F0
:10497C006568002DA560C0F29580216821F00401C6
:10498C002160002B3DD1002D40F08E806546082A19
:10499C000BD12368DB0708D5236962689A42DEBF16
:1049AC00302305F8013C05F1FF35ACEB0503236121
:1049BC00CDF800803B4603AA21463046FFF7F6FEB1
:1049CC0001304DD14FF0FF3005B0BDE8F0833948D0
:1049DC0084F84510136821681D1D1B6815600A06B4
:1049EC000BD5CA0744BF41F0200121601BB92268D6
:1049FC0022F0200222601022B7E74D0648BF9BB27E
:104A0C00EFE76546B3FBF2F102FB1133C35C05F82B
:104A1C00013D0B460029F5D1B9E713682568181D2F
:104A2C006169106028061B6801D5196002E06A06EE
:104A3C00FBD51980002365462361B9E71368191D5E
:104A4C0011601D6862680021284600F037F808B133
:104A5C00401B606063682361002384F84330A7E740
:104A6C0023692A4639463046C0470130AAD023680C
:104A7C009B0713D4E068039B9842B8BF1846A3E782
:104A8C0001234A4639463046C04701309AD0013599
:104A9C00E368039A9B1AAB42F2DCEBE7002504F1C6
:104AAC001909F5E7002BACD1037804F1420584F821
:104ABC0042306CE7E9550008FA55000810B5C9B248
:104ACC0002449042034601D1002303E01C780130DC
:104ADC008C42F6D1184610BD10B5431E0A449142C3
:104AEC0000D110BD11F8014B03F8014FF7E78842D4
:104AFC0010B501EB020307D8421E99420AD011F8F7
:104B0C00014B02F8014FF8E78342F5D98118D21A0C
:104B1C00D34200D110BD13F8014D01F8014DF7E758
:104B2C0038B50546002943D051F8043C0C1F002B26
:104B3C00B8BFE41800F0D0F81E4A1368104633B919
:104B4C00636014602846BDE8384000F0C6B8A34244
:104B5C000BD921686218934201BF1A685B6852181E
:104B6C00226063600460EDE713465A680AB1A24202
:104B7C00FAD919685818A0420BD12068014458186A
:104B8C0082421960DED110685268014419605A6083
:104B9C00D8E702D90C232B60D4E7206821188A426D
:104BAC0001BF116852680918216062605C60C9E736
:104BBC0038BD00BFA401002070B5CD1C25F0030545
:104BCC0008350C2D38BF0C25002D064601DBA942FB
:104BDC0003D90C233360002070BD00F07DF8214A0E
:104BEC001468214691B9204C23681BB9304600F05B
:104BFC0063F820602946304600F05EF8431C24D14F
:104C0C000C233046336000F068F8E4E70B685B1B5C
:104C1C0018D40B2B0FD90B60CC18CD50304600F0AC
:104C2C005CF804F10B00231D20F00700C31AD3D04D
:104C3C005A42E250D0E74B688C4216BF6360136057
:104C4C000C46EBE70C464968CCE7C41C24F0030483
:104C5C00A04205D0211A304600F02EF80130CFD0FA
:104C6C002560DBE7A4010020A8010020F8B5074669
:104C7C0014460E4621B9BDE8F8401146FFF79CBF1B
:104C8C0022B9FFF74DFF25462846F8BD00F026F85F
:104C9C00A0420FD221463846FFF78EFF054600286A
:104CAC00F2D031462246FFF717FF31463846FFF760
:104CBC0037FFE9E73546E7E738B50023054C0546ED
:104CCC000846236000F012F8431C02D1236803B19C
:104CDC002B6038BD600A00207047704751F8043CC7
:104CEC00181F002BBCBF0B58C0187047044A05494D
:104CFC001368002B08BF0B46184410601846704709
:104D0C00AC010020680A0020F8B500BFF8BC08BC54
:104D1C009E467047F8B500BFF8BC08BC9E4670476D
:104D2C000100000003000000070000000F0000005D
:104D3C001F0000003F0000007F000000FF0000008B
:104D4C00FF010000FF030000CDE5F0E0E1EEF7E825
:104D5C00E520EBE0ECEFFB002530326400000000B6
:104D6C00253032642000000052533438353A204547
:104D7C0058502E2564205546542E25640000000002
:104D8C00544D00080001000029150008C05200080D
:104D9C00000100005D120008D45200080001000060
:104DAC0015120008000000000000000000000000C8
:104DBC009852000800030000F1240008A4520008D7
:104DCC000003000041120008B85200080003000064
:104DDC00BD250008945200080908000000000000DE
:104DEC000000000000000000000000006C520008F1
:104DFC0000080000F9250008805200080008000097
:104E0C0049260008945200080A080000000000001F
:104E1C000000000000000000000000003C520008F0
:104E2C0000080000852600084C520008000800000D
:104E3C00F9260008605200080008000065270008E9
:104E4C00000000000000000000000000CAEEEDF4BD
:104E5C00E8E3F3F0E0F6E8FF20F1E8F1F2E5ECFB33
:104E6C0000000000C2F1E5E3EE20EBE0ECEF3A20AD
:104E7C0025640000CFEBE0F220F0E0F1F8E8F0E57B
:104E8C00EDE8FF3A20256400CFEBE0F2E020D3D42C
:104E9C0020E820D2E5ECEF3A202B0000CFEBE0F23B
:104EAC00E020D3D420E820D2E5ECEF3A202D00000E
:104EBC000453000800010000E11200081853000818
:104ECC000001000099240008245300080001000090
:104EDC005D1B00083453000800010000192A00086B
:104EEC00000000000000000000000000CBE0ECEF30
:104EFC00203A256400000000C0E2E0F0E8FF3A0030
:104F0C00CBC0CCCFDB0000002020202020000000F4
:104F1C0020D2E5ECEF000000743D25642000000079
:104F2C00743D256400000000D3D43D256425252064
:104F3C0020000000D3D43D2564252520000000006E
:104F4C00D3D420C2CACB0000D3D420C2DBCA000009
:104F5C00D3C7C320C2CACB00D3C7C320C2DBCA008D
:104F6C007E000000E452000800010000AD130008B0
:104F7C00F4520008000100005D1B00080000000056
:104F8C000000000000000000C2EAEBFEF7E5EDE8CF
:104F9C00E93A202530336400D1E1F0EEF1EEE22065
:104FAC00EFEEEBEDFBF53A2530336400D1E1F0EE9A
:104FBC00F1EEE220EEE4E8ED2E3A202530336400E9
:104FCC00D1E1F0EEF1EEE220EBEEE3E03A20202529
:104FDC0030336400C2E2E5E4E8F2E520EAEEE43ABC
:104FEC00000000002020253034640000905300089D
:104FFC0000010000351600089C5300080601000053
:10500C000000000000000000000000000000000094
:10501C00CDE0F0E0E1EEF2EAE020CFEBE0F2E000F0
:10502C00CBE0ECEFE02000002020253032640000C3
:10503C00CBE0ECEFE0202530326420202025303509
:10504C006420200020202020202020202020202030
:10505C0020202020202020200000000044530008A5
:10506C00000600000000000058530008060600006F
:10507C000000000060530008000600003D19000805
:10508C000000000000000000000000006853000851
:10509C00000200000000000074530008070200002A
:1050AC00000000008053000800020000791900087D
:1050BC00000000000000000000000000C2E2E5E477
:1050CC00E8F2E520EDEEECE5F0000000CBE0ECEFD3
:1050DC00E0204E2000000000CDE0E6E0F2E8E52004
:1050EC0020207E20D1E1F0EEF1000000D3E4E5F0C9
:1050FC00E6E0EDE8E5207E20CEF2ECE5EDE0000008
:10510C00AC5300080500000000000000B453000878
:10511C000200000000000000C05300080300000063
:10512C0000000000D0530008040000000000000044
:10513C00000000000000000000000000CDE0E6E0F0
:10514C00F2E8E52020207E20D1EEF5F0E0ED2E00F7
:10515C00C0E4F0E5F120E220F1E5F2E83A000000CD
:10516C00D1EAEEF0EEF1F2FC2028E1EEE4FB293A74
:10517C0000000000CAEEEB2DE2EE20EBE0ECEF209D
:10518C00E2F1E5E3EE3A0000CAEEEB2DE2EE20EBA5
:10519C00E0ECEF20F2F3F23A00000000CCEEE4E594
:1051AC00EBFC3A00CAEEEDF2F0EEEBFC20F7E5F288
:1051BC00ED2E3A00CFEBE0F2E020E4E0F2F7E8EA83
:1051CC00EEE23A00CAEEEB2DE2EE20F1F2EEEF2029
:1051DC00E1E8F23A00000000C4E0F2F7E8EA20F25D
:1051EC00E5ECEFE5F0E0F2F3F0FB3A00CCE0EAF1AD
:1051FC0020F2E5ECEFE5F0E0F2F3F0E03A0000002D
:10520C0054E5ECEFE5F0E0F2F3F0E020E2EEF1F142
:10521C00F2E0ED3A00000000C4E0F2F7E8EA20D337
:10522C00D43A0000D2F0E5E2EEE3E020D3D43A0029
:10523C00CFEBE0F2E020E4E0F2F7E8EAEEE2000087
:10524C00C4E0F2F7E8EA20F2E5ECEFE5F0E0F2F387
:10525C00F0FB0000C4E0F2F7E8EA20D3D400000031
:10526C00CCE0EAF120F2E5ECEFE5F0E0F2F3F0E06F
:10527C0000000000D2E5ECEFE5F0E0F2F3F0E02006
:10528C00E2EEF1F1F2000000C5F9E500CAEEEB2DFB
:10529C00E2EE20EBE0ECEF00D1E1F0EEF120ECE0FF
:1052AC00EAF1E8ECF3ECE020D3D40000CCEEE4E53A
:1052BC00EBFC0000CEF8E8E1EAE820EBE8EDE8E8EA
:1052CC002052533438350000D1E1F0EEF1E8F2FC15
:1052DC0020E0E2E0F0E8E800CFF0EEF1ECEEF2F0E6
:1052EC00E5F2FC20EBEEE300D1E1F0EEF1E8F2FCAC
:1052FC0020EBEEE300000000CFF0EEF1ECEEF2F06C
:10530C0020EAEEEDF42E2DE8E8000000CDE0F1F2FD
:10531C00F0EEE9EAE8000000CDE0F1F2F0EEE9EAA7
:10532C00E820EAEEEDF42E00CDE0F1F2F0EEE9EA41
:10533C00E820F1E5F2E80000D1E1F0EEF1E8F2FC52
:10534C0020E2F1E520EBE0ECEFFB000020CDE5F2F4
:10535C000000000020C4E02000000000D1E1F0EECD
:10536C00F1E8F2FC0000000020C2F1E520EBE0ECDB
:10537C00EFFB000020CBE0ECEFF32020EDEEECE5B2
:10538C00F0200000CFF0EEF1ECEEF2F000000000A7
:10539C00D1E1F0EEF120EDE0F0E0E1EEF2EAE80030
:1053AC00C0E2E0F0E8E80000CDE0F0E0E1EEF2EA87
:1053BC00E0000000CAEEEDF4E8E3F3F0E0F6E8FFFD
:1053CC0000000000CBEEE320F0E0E1EEF2FB000089
:1053DC00EDE5F7E5F2EDEEF1F2FC0000F7E5F2EDAC
:1053EC00EEF1F2FC20200000393630302020000095
:1053FC00313434303020000031393230302000006C
:10540C00323838303020000033383430302000004F
:10541C003537363030200000373638303020000039
:10542C003131353230300000EEF2F1F3F2F1F2E2CC
:10543C00F3E5F22000000000EFF0E8F1F3F2F1F2F6
:10544C00E2F3E5F200000000D3CEC22DCFC22D3125
:10545C0020202000D3CEC22DCFC22D3520202000FD
:10546C00D3CEC22DCFC22D3130202000D3CEC22DB1
:10547C00CFC22D3135202000D3CEC22DCFC22D333B
:10548C0030202000D3CEC22DCFC22D3530202000AD
:10549C00D3CEC22DCFC22D3130302000D3CEC22D71
:1054AC00CFC22D3135302000D3CEC22DCFC22D32FC
:1054BC0030302000D3CEC22DCFC22D33303020005F
:1054CC00D3CEC22DCFC22D3530302000D3CEC22D3D
:1054DC00CFC22D3730302000D3CEC22DCFC22D31CC
:1054EC0030303000D3CEC22DCFC22D31353030000C
:1054FC00D3CEC22DD1C22D3520202000D3CEC22D2B
:10550C00D1C22D3130202000D3CEC22DD1C22D31AD
:10551C0035202000D3CEC22DD1C22D333020200017
:10552C00D3CEC22DD1C22D3530202000D3CEC22DEA
:10553C00D1C22D3130302000D3CEC22DD1C22D316D
:10554C0035302000D3CEC22DD1C22D3230302000C8
:10555C00D3CEC22DD1C22D3330302000D3CEC22DAC
:10556C00D1C22D3530302000D3CEC22DD1C22D3733
:10557C0030302000D3CEC22DD1C22D31303030008E
:10558C00D3CEC22DD1C22D313530300041A042A135
:10559C00E045A3A4A5A64BA74D484FA8504354A93A
:1055AC00AA58E1ABACE2ADAEADAFB0B161B2B3B441
:1055BC00E365B6B7B8B9BABBBCBD6FBE7063BF7993
:1055CC00E478E5C0C1E6C2C3C4C5C6C7232D302BE1
:1055DC002000686C4C0065666745464700303132E8
:1055EC00333435363738394142434445460030313F
:1055FC00323334353637383961626364656600009E
:04560C003101000860
:045610000D01000880
:10561400F4530008FC530008045400080C54000818
:10562400145400081C540008245400082C54000886
:105634003454000844540008000000000C510008D1
:10564400F84F0008BC4E0008704F00088C4D00084D
:105654009850000868500008BC4D0008F84D000838
:10566400284E000854540008605400086C54000884
:105674007854000884540008905400089C5400088E
:10568400A8540008B4540008C0540008CC540008BE
:10569400D8540008E4540008F0540008FC540008EE
:1056A4000855000814550008205500082C5500081A
:1056B4003855000844550008505500085C5500084A
:1056C4006855000874550008805500088C5500087A
:1056D400DC530008E8530008580002400000024070
:1056E40000100240003801400204060800000000D7
:1056F400010203040102030406070809F000002064
:105704000000000000000000000000000000000095
:105714000000000000000000000000000000000085
:105724000000000000000000000000000000000075
:105734000000000000000000000000000000000065
:105744000000000000000000000000000000000055
:105754000000000000000000000000000000000045
:040000050800444566
:00000001FF
