:020000040800F2
:1000000000500020A1440008E5440008E544000831
:10001000E5440008E5440008E5440008000000004D
:10002000000000000000000000000000E54400089F
:10003000E544000800000000E544000889020008CB
:10004000E5440008E5440008E5440008790100089B
:10005000E5440008E5440008E5440008E5440008DC
:10006000E5440008E5440008E5440008E5440008CC
:10007000E5440008E544000861020008E544000882
:10008000E5440008E5440008E5440008E5440008AC
:10009000E5440008E5440008E5440008E54400089C
:1000A000E5440008E5440008E5440008E54400088C
:1000B000E5440008E5440008E5440008E54400087C
:1000C000E5440008E5440008E5440008E54400086C
:1000D000E544000839020008E5440008DD01000895
:1000E000E5440008E5440008E5440008000000007D
:1000F0000000000000000000000000000000000000
:0C01000000000000000000005FF808F1A3
:10010C0010B5054C237833B9044B13B10448AFF345
:10011C0000800123237010BD50010020000000005E
:10012C00A44D00080C4B43B10C4810B50C49AFF36F
:10013C0000800C48036823B910BD0A48036833B922
:10014C007047094B002BF7D0BDE810401847064B01
:10015C00002BF5D0184700BF00000000A44D00088C
:10016C0054010020500100200000000008B50120BF
:10017C0004F066F900B908BD012004F071F904F02F
:10018C0047F90F4A13780133DBB213700D4B1B7810
:10019C0013F0010F07D00C4B1B88B3F5616F08D21D
:1001AC000133094A1380074A137843F04003137054
:1001BC00E1E70022044B1A800122044B1A70F2E78B
:1001CC00B4010020B001002072010020A204002024
:1001DC0038B5134B002283F8202083F82C209A6228
:1001EC0040F225510F4803F088FF48B901220C4B0F
:1001FC0083F8202040F227710A4803F07EFF38BDB7
:10020C00094CA57F074803F06DFF6055A37F0133B0
:10021C00DBB2A3771C2BE9D90022A277E6E700BF5B
:10022C00CC010020004800408403002008B5074B97
:10023C001B8813F0100F00D108BD044B9B880122C2
:10024C00034B83F8402002F067FFF5E700380140CC
:10025C00CC01002008B502F039FF02F047FF054B36
:10026C000022DA779A77044A536843F48053536038
:10027C0008BD00BF5803002000000240294B1A683B
:10028C0001321A601B68002B45D1274B93F82C3098
:10029C0003F0FF0223B1244B002183F82C10996248
:1002AC003AB10022204B83F8202001221F4B83F807
:1002BC00202070471C4A02EB011290681A4A02EB8C
:1002CC000112906090685268904205D30A0116485A
:1002DC00825CF2B9002000E00020134A02EB01110D
:1002EC0008730133DBB2052B17D819461A010E48D7
:1002FC00825C002ADED000EB0312906852689042B8
:10030C00D8D2094A02EB03129068064A12681044CC
:10031C00D4E70120E1E70023E5E70022014B1A6056
:10032C00B3E700BF30030020CC0100208403002081
:10033C000F4B1A786FF345121A70A8B90D4B9868C9
:10034C00C0B203F500639A68120102F440720243D2
:10035C00094B5B89DBB20A2B00D90A23013B074905
:10036C0051F8230010407047054A32F810007047CE
:10037C00B001002000080140B8010020BC4D00086D
:10038C0034030020114B1A786FF345121A70034690
:10039C0030B90F4B5889C0B20A2800D90A207047CF
:1003AC000B4A528992B200EB800041008A420BDD6D
:1003BC00074A5089C0B2C3EB4312C3EB82035A0005
:1003CC00D2B21044C0B2E7E70020E5E7B00100204C
:1003DC00B801002010B582B00023ADF8043072B61D
:1003EC008DF8073027E0BDF804009DF80730344C39
:1003FC0014F8131080B202F04DFFBDF804309BB21C
:10040C0001339BB2ADF80430BDF804009DF8073001
:10041C0034F81310090A80B202F03CFFBDF8043026
:10042C009BB201339BB2ADF804309DF80730013319
:10043C00DBB28DF807309DF80720224B5B899BB20D
:10044C009A42D0D3204C21784FF4807002F022FFD6
:10045C002188090A40F2011002F01CFFA1784FF428
:10046C00817002F017FF6188090A40F2031002F054
:10047C0011FF21794FF4827002F00CFFA188090A58
:10048C0040F2051002F006FFA1794FF4837002F0E0
:10049C0001FFE188090A40F2071002F0FBFE0B4C49
:1004AC0021784FF4407002F0F5FE2188090A40F2E1
:1004BC00013002F0EFFE02F0A5FE62B602B010BDF4
:1004CC00A8030020B8010020500300207A0300206C
:1004DC0030B583B00023ADF8043072B68DF8073018
:1004EC002CE09DF80750EDB2BDF8040080B202F08C
:1004FC0031FE3E4C24F81500BDF804309BB201339C
:10050C009BB2ADF80430BDF8040080B202F022FEBC
:10051C009DF80730DBB234F8132042EA002024F8AF
:10052C001300BDF804309BB201339BB2ADF804301C
:10053C009DF807300133DBB28DF807309DF80720AA
:10054C002B4B5B899BB29A42CBD34FF4807002F059
:10055C0001FE284C208040F2011002F0FBFD2388A4
:10056C0043EA002020804FF4817002F0F3FD60809C
:10057C0040F2031002F0EEFD638843EA0020608035
:10058C004FF4827002F0E6FDA08040F2051002F0FC
:10059C00E1FDA38843EA0020A0804FF4837002F0B1
:1005AC00D9FDE08040F2071002F0D4FDE38843EA65
:1005BC000020E080104B1B8813B162B603B030BD35
:1005CC004FF4407002F0C6FD0B4C208040F201301D
:1005DC0002F0C0FD238843EA002080B22080B0F5F1
:1005EC00407FEAD24FF440722280E6E7A803002055
:1005FC00B8010020500300207A03002030B583B0EE
:10060C0005460C4600238DF807304FF4004203F1E9
:10061C00804303F584331A6100BF00BF40211048AA
:10062C0003F064FD0028F9D09DF80730DBB2E95CDB
:10063C000B4803F053FD9DF807300133DBB28DF806
:10064C000730A342EAD34021054803F04FFD0028B0
:10065C00F9D04FF40042034B5A6103B030BD00BFD8
:10066C00004800400008014000B58BB0584B1B7887
:10067C00042B13D8DFE803F0031C6D8C5200554B90
:10068C001B78554A127893420BD00221504A1170B4
:10069C000021524A117001334E4A13700BB05DF8B1
:1006AC0004FB01224A4B1A7000224A4B1A70F5E7E0
:1006BC00002101914A4B009302AB02220A2002F066
:1006CC001BFFFF2805D00028E8D00422404B1A70ED
:1006DC00E4E7BDF80820434B1A80BDF80A304249C4
:1006EC000B804249A1F8FC30414B9B899BB29A424A
:1006FC000AD9404B1A8064239BB23C4AA2F80031C1
:10070C000422334B1A70DEE7642303FB02F3384AEE
:10071C00928992B2B3FBF2F3DBB2EDE7364B3222A5
:10072C005A6101221A741B7F03F0FF021BB1324B7A
:10073C00002119779961002AB0D000222E4B1A742F
:10074C00264B1B781BB90022214B1A70A6E70322FB
:10075C00FAE7204B187800210191214B009302AB52
:10076C00022202F0C9FEFF2805D0002896D00422F0
:10077C00174B1A7092E7174B1B78BDF808101F4ADD
:10078C0022F81310BDF80A101D4A22F81310ECE7DA
:10079C000023ADF808301B4B1B7813F0010F02D06F
:1007AC000123ADF808300B4B1878002101910C4B4C
:1007BC00009302AB012202F05DFF00283FF46EAF04
:1007CC000022064B1A700422014B1A7066E700BF18
:1007DC00700100206D0100207C0300206C010020C2
:1007EC0084030020BE04002080030020C0040020ED
:1007FC00B80100207A030020CC010020A4040020C2
:10080C0034030020B001002010B5424B1B78A22B02
:10081C0004D0AC2B70D0A12B3AD010BD3E4B1B7822
:10082C0013F0010F18D03D4B40225A614FF48060F9
:10083C003B4948615A613B4AB2F8FA309BB223F00B
:10084C0002039BB2A2F8FA30334A137803F0FE038A
:10085C0043F04003137010BD304B40221A614FF42B
:10086C0080602F4908611A612E4AB2F8FA309BB2A7
:10087C0043F00203A2F8FA30274A137843F04103FD
:10088C001370294A138801331380FFF7A3FD10BDA1
:10089C00214B1B7813F0020F18D0214B4FF48052D0
:1008AC005A614FF4006159615A611E4AB2F8FA302C
:1008BC009BB223F001039BB2A2F8FA30164A1378CC
:1008CC0003F0FD0343F04003137010BD144B4FF4C1
:1008DC0080521A614FF4006119611A61114AB2F821
:1008EC00FA309BB243F00103A2F8FA300A4A1378AB
:1008FC0043F04203137010BD0C4C0123237001F024
:10090C00C7FB054A137843F0800313700023237050
:10091C0083E700BF7E030020B001002000100140DF
:10092C00000C0140C0040020500300206F01002087
:10093C00824B93F84C3003F0FF0223B17F4B002124
:10094C0083F84C10996402B9704710B57B4B0022A8
:10095C0083F8402083F84C209A64794C012384F866
:10096C002030784B5B68C3F11E03A377764B1A7863
:10097C007649204602F044FFE07F002800F0868094
:10098C00023002F087FB00226D4B83F82020704B65
:10099C005A8892B26D4B1B889BB29A4204D06B4B17
:1009AC001B889BB26A4A5380684B5B889BB233B1FD
:1009BC00664A53889BB266498B8000235380634BF5
:1009CC001B899BB233B1614A13899BB26049CB80BE
:1009DC00002313815D4B5B899BB233B15B4A538916
:1009EC009BB25B490B8100235381584B9B899BB273
:1009FC0033B1564A93899BB255494B81002393815D
:100A0C00524BDB899BB233B1504AD3899BB25049CC
:100A1C008B810023D3814D4BB3F8F8319BB24FF649
:100A2C00FF7293421DD0494BB3F8F8319BB283BB94
:100A3C00484B4FF400625A614FF480525A61434A5A
:100A4C00B2F8FA309BB223F001039BB2A2F8FA3051
:100A5C00414B19786FF3410119704FF6FF73A2F8EF
:100A6C00F8313A4BB3F8FA319BB24FF6FF7293421E
:100A7C000BD0364BB3F8FA319BB253B3334BB3F8BC
:100A8C00FA319BB2B3F57F4F3ED010BD02F02EFB76
:100A9C0079E72E4BB3F8F8319BB2B3F57F4FE0D129
:100AAC002C4B4FF400621A614FF480521A61274AA2
:100ABC00B2F8FA309BB243F00103A2F8FA3026499F
:100ACC000B7843F002030B704FF6FF73A2F8F8316A
:100ADC00C7E74FF480621F4B5A61402203F58063D5
:100AEC005A611A4AB2F8FA309BB223F002039BB255
:100AFC00A2F8FA30184B19786FF3000119704FF601
:100B0C00FF73A2F8FA3110BD4FF48062114B1A61D9
:100B1C00402203F580631A610C4AB2F8FA309BB29A
:100B2C0043F00203A2F8FA300B490B7843F00103AF
:100B3C000B704FF6FF73A2F8FA31A6E7CC01002038
:100B4C005803002058000240A1040020C0040020DB
:100B5C00B8010020000C0140B001002010B50024A9
:100B6C00884B1C8001E00134E4B2874B1B789C421B
:100B7C001AD82046FFF7DCFB824A1388184380B250
:100B8C001080002CEFD1C043C0F309007F4BB3F8A9
:100B9C00082102F47C42A3F80821B3F8082192B290
:100BAC001043A3F80801DEE7794B1B7813F0010F13
:100BBC0000F0E480734A1288002A7ED013F0080FEC
:100BCC0007D18022734B1A61714A137843F04803A2
:100BDC001370714B9B7C13F0010F5FD06E4B9B8994
:100BEC009BB26E4A1288934272D26D4B1A80642368
:100BFC006C4A1370642B02D964226A4B1A70694BCD
:100C0C001A7891B2644B1B899BB299426AD2604BA1
:100C1C001B7813F0040F06D15D4A43F044031370A4
:100C2C0080225C4B1A61604B1B78604A13709BB23C
:100C3C00594AD28892B2934267D9554B1B7813F01C
:100C4C00100F06D1524A43F0100313708022514BFF
:100C5C001A61504B40225A6155494FF480604861EB
:100C6C005A614A4AB2F8FA309BB223F002039BB2A3
:100C7C00A2F8FA304FF480534B614FF40060486196
:100C8C004B61B2F8FA309BB223F001039BB2A2F88D
:100C9C00FA303F4A137843F0400313703C4B1B78F7
:100CAC00C3F3C002C3F380010A43C3F3001313431D
:100CBC0060D18022374B5A6110BD13F0080F88D0D9
:100CCC00334A137803F0F70343F04003137080E7C3
:100CDC00642303FB02F3304A928992B2B3FBF2F322
:100CEC00DBB285E72A4B1B7813F0040F9BD02A4B01
:100CFC001B899BB205339A4295DD254A137803F084
:100D0C00FB0343F0400313708DE7214A127812F075
:100D1C00100FC3D0204A128A92B29342BED21C4A00
:100D2C00137803F0EF0343F040031370194B402189
:100D3C0019614FF480641E48046119611349B1F8BC
:100D4C00FA309BB243F00203A1F8FA30137813F097
:100D5C00020FA3D04FF4805202614FF40061016185
:100D6C0002610A4AB2F8FA309BB243F00103A2F8CE
:100D7C00FA3093E78022074B1A6110BD8022054B95
:100D8C005A6110BDB20100207C030020C004002079
:100D9C00B001002000100140B8010020BE0400206A
:100DAC007A0300207D030020800300209C04002097
:100DBC00000C014008B5194B1B7813F0C00F22D062
:100DCC00174B9B7C13F0010F14D0164B1A78164B53
:100DDC001A70134B9A8992B2144B19888A4213D207
:100DEC00134B19806423134A1370642B02D96422A9
:100DFC00104B1A7000F0F8FF084A137803F07F03C9
:100E0C006FF38613137008BD642303FB01F3044ACC
:100E1C00928992B2B3FBF2F3DBB2E4E7B0010020AB
:100E2C00B8010020800300209C040020BE04002098
:100E3C007A0300207D03002010B53C4CA2883C4B6B
:100E4C001A70608801F0AEFFA37813F0380F08D049
:100E5C00A378C3F3C203012B2FD023469B78022225
:100E6C0000E00422334B5A64334A0423A2F8F230D4
:100E7C002E49088880B2A2F8F400488880B2A2F803
:100E8C00F6002B480078A2F8F800C88880B2A2F8C7
:100E9C00FE00088980B2A2F80201488980B2A2F84B
:100EAC000401898989B2A2F80611B2F8F81089B246
:100EBC0051800121A2F8FE110AE00322D2E703F1CE
:100ECC00FC011D4A02EB4102012191800B44DBB273
:100EDC00782BF4D9184B3F22A3F8EE22FF22A3F86B
:100EEC00F0226422A3F8F622A3F8F8227022A3F8C9
:100EFC00FA2240F6FF72A3F8FC22002308E003F16B
:100F0C00FC014FF6FF700C4A22F811000133DBB2E2
:100F1C00012BF4D9094C1E21204602F023F820465F
:100F2C0001F0E4FF02F0E2F810BD00BFB8010020B0
:100F3C00A1040020CC010020C00400205803002094
:100F4C002DE9F04383B002F0DBFF9C4A136843F0B9
:100F5C0010031360022003F093FA994A136843F4C8
:100F6C0080331360964B1B6813F4003FFAD0954BFB
:100F7C001A786FF307121A705A78042161F302027F
:100F8C005A709A78072161F385029A709A7842F028
:100F9C0001029A708A4A136843F080731360884B7D
:100FAC001B6813F0007FFAD0864A1378022161F394
:100FBC0001031370DFF848820023A8F8003001F019
:100FCC0053FE01F0C5FD01F08DFE7F4C4FF0800902
:100FDC00C4F810907D4D4FF480572F614026266148
:100FEC004FF480636B616661794AB2F8FA309BB258
:100FFC0023F002039BB2A2F8FA304FF400636B614A
:10100C006F61B2F8FA309BB223F001039BB2A2F8E5
:10101C00FA3002F087F902F0FDF902F04AFA98F87A
:10102C00003043EA090388F80030C4F814906F616B
:10103C006661684802F0BEFD60BB664B00221A80F8
:10104C0001219980997862F300019970997862F383
:10105C0041019970598862F382015980997862F341
:10106C00C50199703721D980282119817A2159819C
:10107C004FF440719981DA8114221A829A7C42F0E1
:10108C0001029A749A7C42F002029A749A7C42F0A1
:10109C0004029A744F4B5B899BB24F4AA2FB032309
:1010AC00DB084E4A137001F08FFFFFF711FAFFF7C0
:1010BC00C3FE4B4B4FF400425A614FF480725A619D
:1010CC0002F014F8474B484A5A609A60062119609E
:1010DC001A6842F001021A60444B5962C8225A63E2
:1010EC00012283F8302062B60AE01C461846FFF74E
:1010FC0085FA0023E37709E0DAB93D4B1B7803BB93
:10110C00FFF7B2FA3B4BD97F0029EED101F098FCE6
:10111C00FFF77AFBFFF70CFC344B93F83C3003F0F1
:10112C00FF02002BE8D0314B002183F83C1099636F
:10113C00E2E7FFF713FDFFF73DFE264802F082FDC4
:10114C00DBE700242A4B1C7025E0BDF806309DF827
:10115C0005100139284850F82110C3F34E030B40F9
:10116C00ADF806300132D2B29DF80530DBB29A42AE
:10117C000FD2BDF8063013F0010FE6D104EB840159
:10118C004B0013441D4830F81310013120F8131094
:10119C00DBE70134E4B2114B1B789C420BD82046A0
:1011AC00FFF7C6F8ADF806002046FFF7EBF88DF810
:1011BC0005000022D8E7FFF70DF9A1E70020024057
:1011CC00001002400410024000100140000C0140CD
:1011DC00C0040020B8010020CDCCCCCC7C03002076
:1011EC000008014010E000E03F190100CC01002094
:1011FC00A204002084030020BC4D0008A80300209A
:10120C00B0010020094B1A786FF382021A701A7819
:10121C006FF3C3021A701A786FF304121A701A78EB
:10122C006FF345121A700520704700BFB001002003
:10123C004FF44073034A9381034AA2F8063103200A
:10124C00704700BFB8010020C004002010B588B062
:10125C002E4B07932E4A13786FF34513137002F03D
:10126C0028F902F026F90021084602F007F9294B6B
:10127C009B7C294C03F001032278284901A803F038
:10128C0051F901A802F02EF90121002002F0F6F824
:10129C000022234B1A702378002B34D10022214BCF
:1012AC001A70204B1B78DBB20A2B05D801F0C8FB57
:1012BC001D4B1B78AC2BF4D1052008B010BD079B3F
:1012CC009BB10022164B1A700134E4B2124B1B78FE
:1012DC009C42E3D8124B1B78002BF0D1079B013BAF
:1012EC000793079B002BF5D1E9E722460F4901A88C
:1012FC0003F018F901A802F0F5F8054A137843F049
:10130C0020031370DDE70124E0E700BFFFFF0100BD
:10131C00B0010020B80100207C030020044E00081E
:10132C006E010020B40100207E0300201C4E00083A
:10133C0030B587B02C4D6C89A4B22C4BA3FB043474
:10134C00C4F3C70402F0B5F802F0B3F80021084664
:10135C0002F094F8264802F0C5F80121002002F0B2
:10136C008DF86A8992B22349684603F0DBF8684627
:10137C0002F0B8F822462049684603F0D3F802215F
:10138C00002002F07BF8684602F0ACF80321002044
:10139C0002F074F8AB7C13F0010F07D0174802F081
:1013AC00A1F80022164B1A70012409E0154802F02E
:1013BC0099F8F6E701F044FB134B1B78AC2B0FD0DC
:1013CC000F4B1B78DBB20A2B0AD814F0020F01D09A
:1013DC0004F0FD0414F0010FECD004F0FE04E9E776
:1013EC00032007B030BD00BFB8010020CDCCCCCC61
:1013FC00F44E00080C4F00081C4F0008304F00083A
:10140C00B4010020444F00087E03002010B586B0C4
:10141C0002F04FF802F04DF80021084602F02EF8C9
:10142C00544C228892B25449684603F07BF86846C3
:10143C0002F058F80121002002F020F8628892B2E4
:10144C004E49684603F06EF8684602F04BF80221EC
:10145C00002002F013F8A28892B24949684603F0C2
:10146C0061F8684602F03EF80321002002F006F80D
:10147C00E28892B24349684603F054F8684602F099
:10148C0031F80022404B1A7007243F4B1B78DBB21B
:10149C000A2B6CD814F0020F04D000223A4B1A70AD
:1014AC0004F0FD0401F0CCFA384B1B78943B282B4C
:1014BC00EBD801A252F823F0691500089714000824
:1014CC0097140008971400086F150008971400086B
:1014DC009714000897140008971400089714000834
:1014EC009714000897140008971400089714000824
:1014FC009714000897140008971400089714000814
:10150C009714000897140008971400089714000803
:10151C0097140008971400087B150008971400080E
:10152C0097140008971400089714000897140008E3
:10153C0097140008971400089714000897140008D3
:10154C0097140008971400089714000897140008C3
:10155C0097140008971400087515000844F002044D
:10156C0093E744F0020490E744F002048DE7042072
:10157C0006B010BD50030020305000084050000849
:10158C005450000868500008B40100207E0300206D
:10159C002DE9F04186B001F08CFF01F08AFF0021AB
:1015AC00084601F06BFF334801F09CFF012100203D
:1015BC0001F064FF0025304B1D704FF007084AE026
:1015CC0007EB87035A00013222442C49684602F08B
:1015DC00A9FF684601F086FF0135EDB2072D1CD03E
:1015EC000E2D1FD0C6F34F060134E4B2092C1ED8C1
:1015FC0016F0010FF2D0142DF0D8062DE0D00D2DE1
:10160C00DED0142DDCD007EB87035A0001322244C4
:10161C001B49684602F086FFDBE70221002001F03F
:10162C002DFFDDE70321002001F028FFDAE7013769
:10163C00FFB2144B1B789F4205D83846FEF778FE54
:10164C0006460024D2E708F0FD0801F0F9F90E4B2C
:10165C001B78AC2B09D0084B1B78DBB20A2B04D8B7
:10166C0018F0020FF1D00027E3E7052006B0BDE823
:10167C00F08100BFE44D0008B4010020F44D0008D7
:10168C00FC4D00087C0300207E0300202DE9F04374
:10169C0087B000238DF81730B44B5E89F6B20A2E52
:1016AC0000D9002601F005FF01F003FF00210846D8
:1016BC0001F0E4FEAE4801F015FF0121002001F01D
:1016CC00DDFEAC4C204601F00DFF0221002001F0A4
:1016DC00D5FE204601F006FF0321002001F0CEFECE
:1016EC00204601F0FFFE0024A34B1C700725A24BE3
:1016FC001B78DBB20A2B00F2358115F0020F5BD19F
:10170C0001F09EF99D4B1B78943B282BEFD801A23E
:10171C0052F823F0DF180008FB160008FB1600082F
:10172C00FB1600080F190008FB160008FB16000832
:10173C00FB160008FB160008FB160008FB16000839
:10174C00FB160008FB160008FB160008FB16000829
:10175C00FB160008FB160008FB160008FB16000819
:10176C00FB160008FB160008FB160008FB16000809
:10177C00FB16000871190008FB160008FB16000880
:10178C00FB160008FB160008FB160008FB160008E9
:10179C00FB160008FB160008FB160008FB160008D9
:1017AC00FB160008FB160008FB160008FB160008C9
:1017BC00FB160008471900089DF81700FEF7E2FD1C
:1017CC00064600210F2001F059FE9DF817206C49A8
:1017DC00684602F0A7FE684601F084FE0121002055
:1017EC0001F04CFE9DF8173003EB83035A00A04622
:1017FC0022449DF8173003EB830359002144614BBD
:10180C0033F8113001326049684602F08BFE6846AD
:10181C0001F068FE0221002001F030FE631CB1468D
:10182C00B34229DB6F46DFF868E1BEE80F000FC753
:10183C009EE8030047F8040B3970684601F052FE2D
:10184C000321002001F01AFE08F10203994529DC5E
:10185C006F46DFF83CE1BEE80F000FC79EE80300BF
:10186C0047F8040B3970684601F03CFE05F0FD05A5
:10187C000022414B1A7043E79DF8173003EB8303AA
:10188C005A0022449DF8171001EB81014B002344B0
:10189C0001333C4931F8133002323B49684602F0BF
:1018AC0041FECAE79DF8173003EB83035A0042440C
:1018BC009DF8173003EB83035900884408F10208A4
:1018CC00304B33F8183003322F49684602F02AFEA9
:1018DC00C9E724B1013CE4B245F0020507E79DF8E5
:1018EC001730002BF8D09DF81730013BDBB28DF888
:1018FC0017309DF81700FEF745FD0646C41EE4B2EE
:10190C00EAE7F31E9C4204DA0134E4B245F0020526
:10191C00EDE69DF81730DBB21C4A12789342F5D2F3
:10192C009DF817300133DBB28DF817309DF8170096
:10193C00FEF728FD06460024E8E79DF81730DBB2D9
:10194C00124A1278934209D29DF817300133DBB258
:10195C008DF8173045F002050024C8E600238DF8F9
:10196C001730F7E7022007B0BDE8F083B80100207C
:10197C00B8500008C8500008B40100207E030020B5
:10198C00D0500008A8030020D85000087C03002089
:10199C00EC50000808B5002305E000210A4A22F8A3
:1019AC0013100133DBB299B2084A528992B29142B8
:1019BC00F3D3074A53889BB201339BB25380FEF793
:1019CC0009FD062008BD00BFA8030020B8010020B7
:1019DC005003002070B586B06D4B5E89F6B201F0F5
:1019EC0068FD01F066FD0021084601F047FD6948DD
:1019FC0001F078FD0121002001F040FD664801F066
:101A0C0071FD0221002001F039FD644801F06AFDEE
:101A1C000321002001F032FD614801F063FD00223A
:101A2C00604B1A70012402255E4B1B78DBB20A2B2B
:101A3C0000F2AB8015F0020F5CD101F001F85A4BAB
:101A4C001B78943B282BEFD801A252F823F000BF4F
:101A5C00251B0008351A0008351A0008351A00082D
:101A6C004F1B0008351A0008351A0008351A0008F3
:101A7C00351A0008351A0008351A0008351A0008FE
:101A8C00351A0008351A0008351A0008351A0008EE
:101A9C00371B0008351A0008351A0008351A0008DB
:101AAC00611B0008351A0008351A0008351A0008A1
:101ABC00971B0008351A0008351A0008351A00085B
:101ACC00351A0008351A0008351A0008351A0008AE
:101ADC00351A0008351A0008351A0008351A00089E
:101AEC00351A0008351A0008351A0008351A00088E
:101AFC007D1B00080121092001F0C0FC22462B4966
:101B0C00684602F00FFD684601F0ECFC0022254B04
:101B1C001A7005F0FD0590E7012C04D9013CE4B2E4
:101B2C0045F0020580E70124FAE70A2C04D90A3CA7
:101B3C00E4B245F0020577E7012CFAD9013CE4B296
:101B4C00F7E7B44204D20134E4B245F002056BE786
:101B5C003446FAE7A6F10A039C4204DA0A34E4B2EA
:101B6C0045F0020560E7B442FAD20134E4B2F7E77B
:101B7C00013C00220E4B23F814200E4A93889BB292
:101B8C0001339BB29380FEF725FC062006B070BD96
:101B9C00B8010020645100087451000880510008FD
:101BAC0094510008B40100207E030020F44D00087D
:101BBC00A80300205003002070B588B0054600240F
:101BCC008DF81F40ADF81C400123ADF81A308DF88C
:101BDC001E4001F06EFC01F06CFC2146204601F029
:101BEC004DFC7C4B01AE0FCB07C6337001A801F046
:101BFC0079FC794B1C700724774B1B78DBB20A2BD2
:101C0C0000F2E08014F0020F5CD100F019FF734B6E
:101C1C001B78943B282BEFD801A252F823F000BF7D
:101C2C00051D0008051C0008051C0008051C000803
:101C3C00211D0008051C0008051C0008051C0008D7
:101C4C00051C0008051C0008051C0008051C0008E4
:101C5C00051C0008051C0008051C0008051C0008D4
:101C6C00051C0008051C0008051C0008051C0008C4
:101C7C00051C0008051C0008051C0008051C0008B4
:101C8C00D11D0008051C0008051C0008051C0008D7
:101C9C00051C0008051C0008051C0008051C000894
:101CAC00051C0008051C0008051C0008051C000884
:101CBC00051C0008051C0008051C0008051C000874
:101CCC00391D00080020444B1870012101F0D6FB8F
:101CDC00BDF81C309BB2BDF81A2092B29DF81F10B3
:101CEC0001FB02323E4901A802F01CFC01A801F0E4
:101CFC00F9FB04F0FD0488E79DF81F30DBB2082BDC
:101D0C0005D89DF81F300133DBB28DF81F3044F03D
:101D1C00020471E79DF81F302BB19DF81F30013B79
:101D2C00DBB28DF81F3044F0020465E79DF81F10FC
:101D3C00BDF81A309BB2BDF81C2092B201FB0323F4
:101D4C009BB2ADF81C30BDF81A309BB203EB830389
:101D5C005A0092B2ADF81A209DF81E300133DBB256
:101D6C008DF81E3000238DF81F309DF81E30DBB22D
:101D7C00042B02D044F002043EE7BDF81C309BB2A9
:101D8C0040F2574293420FD0BDF81C309BB2D02B7F
:101D9C001BD000238DF81E30ADF81C300122ADF89D
:101DAC001A208DF81F30E5E7042DEDD10D4A0021E6
:101DBC0011805180D3889BB201339BB2D380918028
:101DCC00FEF708FB284608B070BD032DE1D10825AD
:101DDC00F8E700BF7C500008B40100207E0300200F
:101DEC008C5000085003002010B586B0944B1B7823
:101DFC00DB0957D1924B1B7813F0080F75D1904B20
:101E0C001B7813F0080F77D00221072001F036FB66
:101E1C0001A801F067FB8A4B1B7813F0040F72D1F9
:101E2C00874B1B7813F0040F70D001A801F05AFBFC
:101E3C00834B1B7813F0100F6BD1814B1B7813F075
:101E4C00100F6DD001A801F04DFB7E4B9B7C13F065
:101E5C00010F6CD17A4B1B7813F0010F40F0CD8041
:101E6C00774B1B7813F0010F00F0D1800321052074
:101E7C0001F004FB01A801F035FB714B1B7813F04A
:101E8C00020F40F0CE806E4B1B7813F0020F00F067
:101E9C00CF8003210D2001F0F1FA01A801F022FB03
:101EAC0006B010BD01F005FB0021052001F0E6FA9B
:101EBC00644CE3899BB2644A52F8230001F012FB94
:101ECC000121002001F0DAFA628992B25F4901A87F
:101EDC0002F028FB01A801F005FB0221002001F013
:101EEC00CDFA5B4801F0FEFA84E75A4B93E8030005
:101EFC000190ADF8081082E7574B93E8030001906E
:101F0C00ADF8081080E7554B019389E7544B0193CA
:101F1C008BE7544B93E803000190ADF808108CE765
:101F2C004D4B93E803000190ADF808108AE70321AC
:101F3C00002001F0A3FA434B9B7C13F0020F16D147
:101F4C00404B9B7C13F0040F26D13D4B1B7813F0B8
:101F5C00010F3ED13A4B1B7813F0010F43D00321F4
:101F6C00052001F08BFA01A801F0BCFA85E70321EA
:101F7C00002001F083FA3C4B1A78092A07D83B4918
:101F8C0001A802F0CFFA01A801F0ACFAD8E7384961
:101F9C0001A802F0C7FAF6E70321052001F06EFA5A
:101FAC00344B1A78092A09D9632A0DD8324901A869
:101FBC0002F0B8FA01A801F095FA5EE700222F4969
:101FCC0001A802F0AFFAF5E72B4901A802F0AAFA32
:101FDC00F0E72B4B93E803000190ADF80810090CC7
:101FEC008DF80A10B6E7274B93E803000190ADF883
:101FFC000810090C8DF80A10B1E7214B93E8030087
:10200C000190ADF80810090C8DF80A1028E71D4B4B
:10201C0093E803000190ADF80810090C8DF80A1034
:10202C0024E701AB184A92E8030083E803002AE78F
:10203C0001AB164A92E8030083E8030029E700BFCE
:10204C00B0010020B801002054000020944F00087B
:10205C00A04F0008A84F0008B04F000820D3D400B0
:10206C0020202000B84F00089C040020C04F00081E
:10207C00C84F00087D030020DC4F0008D04F00083B
:10208C00E84F0008F04F0008F84F00080050000817
:10209C002DE9F04182B000248DF8054001F009FAD9
:1020AC00904B1C700726012746E001F002FA002530
:1020BC00032D1DD88C4B53F8272004EB44034FEA17
:1020CC00830852F808308BB18DF806402946002061
:1020DC0001F0D4F9844B53F827300134E4B253F8AF
:1020EC00080001F0FFF90135EDB2E1E7013CE4B283
:1020FC0006F0FD0629E09DF80710132001F0BEF94B
:10210C007A4801F0EFF99DF80510132001F0B6F9AB
:10211C00774801F0E7F906F0FE060022714B1A70C1
:10212C0016E09DF805302BB19DF80530013BDBB274
:10213C008DF8053046F001066A4B1B78DBB20A2B92
:10214C0000F2CD8016F0020FAFD116F0010FD2D1F4
:10215C0000F076FC9DF80530DBB28DF80730654B4E
:10216C001B78943B282BE7D801A252F823F000BF30
:10217C002F210008452100084521000845210008B1
:10218C0021220008452100084521000845210008AE
:10219C00432200084521000845210008452100087C
:1021AC00452100084521000845210008452100086B
:1021BC00452100084521000845210008452100085B
:1021CC00452100084521000845210008452100084B
:1021DC00B5220008452100084521000845210008CA
:1021EC00452100084521000845210008452100082B
:1021FC00452100084521000845210008452100081B
:10220C00452100084521000845210008452100080A
:10221C00492200089DF80520D2B29DF80630DBB2A9
:10222C009A4205D29DF805300133DBB28DF80530AA
:10223C0046F0010680E706F0FB067DE716F0040F7A
:10224C002FD1294B53F827109DF8053003EB43038E
:10225C009A000A4413795BB19DF8053003EB4303F4
:10226C009A0011440F7900248DF80540032663E78A
:10227C009DF8053003EB43039A000A449368002B46
:10228C003FF45AAF9DF8053003EB43039A00114419
:10229C008B6838469847074600248DF8054007267A
:1022AC004AE706F0FB0647E716F0040F7FF444AF4D
:1022BC000D4B53F827109DF8053003EB43039A00A0
:1022CC000A4453795BB19DF8053003EB43039A0044
:1022DC0011444F7900248DF8054007262CE702B0F5
:1022EC00BDE8F081B401002028000020B44F0008A4
:1022FC00085000087E0300202DE9F04389B0814688
:10230C000E4690461F46109D0B88DBB28DF80730A9
:10231C000221002001F0B2F8724801F0E3F8032129
:10232C00002001F0ABF8704801F0DCF800226F4B94
:10233C001A7007246D4B1B78DBB20A2B00F2CE808F
:10234C0014F0020F5CD100F07BFB694B1B78943BC3
:10235C00282BEFD801A252F823F000BF4324000829
:10236C00412300084123000841230008932400085E
:10237C0041230008412300084123000841230008A1
:10238C004123000841230008412300084123000891
:10239C004123000841230008412300085D24000864
:1023AC00412300084123000841230008AD24000804
:1023BC00412300084123000841230008E9240008B8
:1023CC004123000841230008412300084123000851
:1023DC004123000841230008412300084123000841
:1023EC004123000841230008412300084123000831
:1023FC00412300084123000841230008E32400087E
:10240C0000203A4B1870012101F038F82B6843B1C9
:10241C009DF8073055F8230001F064F804F0FD0432
:10242C0091E79DF80720334902A802F07BF802A837
:10243C0001F058F8F2E79DF80730BB4205D29DF841
:10244C0007300133DBB28DF8073044F0020471E73A
:10245C009DF80730DBB2A7F10902934208DA9DF828
:10246C0007300A33DBB28DF8073044F0020461E721
:10247C009DF807309F42F8D99DF807300133DBB245
:10248C008DF80730F1E79DF80730984505D29DF897
:10249C000730013BDBB28DF8073044F0020449E70A
:1024AC009DF80730DBB208F10A02934208DD9DF873
:1024BC0007300A3BDBB28DF8073044F0020439E7F1
:1024CC009DF807309845F8D29DF80730013BDBB2F8
:1024DC008DF80730F1E79DF807303380484609B096
:1024EC00BDE8F083E451000894510008B4010020C9
:1024FC007E0300208C50000830B589B0054600F0F2
:10250C00D8FF00F0D6FF0021084600F0B7FF02AB61
:10251C000B4A07CA83E80700184600F0E3FF094C92
:10252C00094B00936323002221462846FFF7E4FE63
:10253C00083C23899BB2054AA2F8023109B030BD90
:10254C00B8520008C001002074010020C004002013
:10255C0070B588B0064600F0ACFF00F0AAFF002171
:10256C00084600F08BFF02AC0C4D0FCD0FC42B684E
:10257C00237002A800F0B6FF094C0A4B009370239D
:10258C00012221463046FFF7B7FE0A3C63899BB215
:10259C00054AA2F8043108B070BD00BF1C520008F7
:1025AC00C201002074010020C004002010B582B0CC
:1025BC00044600F07EFF00F07CFF0021084600F08E
:1025CC005DFF064800F08EFF054B00931A23002296
:1025DC0004492046FFF790FE02B010BD30520008AF
:1025EC0054000020C601002030B583B0054600F031
:1025FC0060FF00F05EFF0021084600F03FFF0A4834
:10260C0000F070FF094C0A4B009363230122214612
:10261C002846FFF771FE063CE3889BB2054AA2F8F8
:10262C00FE3003B030BD00BF80520008BE01002058
:10263C0074010020C004002010B582B0044600F0E4
:10264C0038FF00F036FF0021084600F017FF06485F
:10265C0000F048FF054B00936323012204492046F8
:10266C00FFF74AFE02B010BD94520008740100201E
:10267C00C801002030B585B0054600F01AFF00F007
:10268C0018FF0021084600F0F9FE144800F02AFF5C
:10269C00134CA37C03F0010304A921F8023D114B58
:1026AC000093012300222846FFF726FEBDF80E20DA
:1026BC00003218BF0122A37C62F30003A374A37C35
:1026CC0013F0010F07D1A27C6FF34102A274A27C1C
:1026DC006FF38202A27405B030BD00BF48520008EF
:1026EC00B80100202000002030B585B0054600F070
:1026FC00E0FE00F0DEFE0021084600F0BFFE1248AE
:10270C0000F0F0FE114CA37CC3F3400304A921F8A4
:10271C00023D0F4B0093012300222846FFF7ECFDEE
:10272C00BDF80E20003218BF0122A37C62F34103D6
:10273C00A374A37C13F0020F03D0A37C43F001031A
:10274C00A37405B030BD00BF6C520008B801002066
:10275C002000002030B585B0054600F0AAFE00F040
:10276C00A8FE0021084600F089FE124800F0BAFECF
:10277C00114CA37CC3F3800304A921F8023D0F4B39
:10278C000093012300222846FFF7B6FDBDF80E206A
:10279C00003218BF0122A37C62F38203A374A37CD2
:1027AC0013F0040F03D0A37C43F00103A37405B012
:1027BC0030BD00BFAC520008B80100202000002042
:1027CC0030B585B0054600F074FE00F072FE0021B5
:1027DC00084600F053FE0B4800F084FE0A4CA38818
:1027EC0004A921F8023D094B0093FF23012228463E
:1027FC00FFF782FDBDF80E30A380054AA2F8F83031
:10280C0005B030BDF8510008B8010020740100205B
:10281C00C004002030B585B0054600F04AFE00F03B
:10282C0048FE0021084600F029FE154800F05AFE2B
:10283C00144CA378C3F3C20304A921F8023D124B34
:10284C000093072300222846FFF756FDBDF80E50D3
:10285C00A27865F3C502A2700C49B1F8F62092B2C9
:10286C0022F0380292B2A1F8F620B1F8F6309BB201
:10287C0043EA85039BB2A1F8F63005B030BD00BF2A
:10288C0008520008B801002000000020C0040020FD
:10289C0030B585B0054600F00CFE00F00AFE0021B4
:1028AC00084600F0EBFD154800F01CFE144CA37814
:1028BC0003F0010304A921F8023D124B00930123FC
:1028CC0000222846FFF718FDBDF80E100A1C18BF91
:1028DC000122A37862F30003A3700B4AB2F8F6301E
:1028EC009BB223F001039BB2A2F8F630B2F8F6309B
:1028FC009BB21943A2F8F61005B030BD385200084F
:10290C00B801002020000020C004002030B585B0A4
:10291C00054600F0CEFD00F0CCFD0021084600F08D
:10292C00ADFD164800F0DEFD154CA378C3F3400353
:10293C0004A921F8023D134B0093012300222846E1
:10294C00FFF7DAFCBDF80E502B1C18BF0123A27840
:10295C0063F34102A2700C49B1F8F62092B222F056
:10296C00020292B2A1F8F620B1F8F6309BB243EA1B
:10297C0045039BB2A1F8F63005B030BD38520008C3
:10298C00B8010020C0000020C004002030B585B084
:10299C00044600F08EFD00F08CFD0021084600F08E
:1029AC006DFD164800F09EFD154D6B88C3F380033A
:1029BC00013304A921F8023D124B0093022301229A
:1029CC002046FFF799FCBDF80E40621E6B8862F33F
:1029DC0082036B800C49B1F8F62092B222F004020B
:1029EC0092B2A1F8F620B1F8F6309BB2013C43EA62
:1029FC0084039BB2A1F8F63005B030BD58520008E4
:102A0C00B801002074010020C004002010B5044659
:102A1C00FFF7D6FE2046FFF7FDFE2046FFF738FFF6
:102A2C00064B9B7813F0010F04D12046FFF7AEFF45
:102A3C00204610BD2046FFF769FFF6E7B8010020DD
:102A4C003F4B187800F07F00187010E001339BB2F8
:102A5C0040F6FE729342F9D93A4A936803F00303A5
:102A6C009268920902F00C02134399420AD0354B3A
:102A7C00996801F003019B689B0903F00C0319434F
:102A8C000023E5E700F07003102B16D008D9202B9B
:102A9C0039D0302B2DD02A4B1A782B4B1A7070470B
:102AAC00002BF8D10029F6D061F06F01244B19707E
:102ABC004FF47A72254B1A80EDE731B900F00F0311
:102ACC0063F04F031E4A1370E5E700F00F008842D5
:102ADC00E1D11E4B1B8843B960F05F00184B187096
:102AEC004FF4FA62194B1A80D5E7013B174A138051
:102AFC00D1E721B161F06F01114B1970CBE70022C6
:102B0C000F4B1A70C7E731B900F00F0363F04F0396
:102B1C000B4A1370BFE700F00F008142BBD10B4B87
:102B2C001B8843B960F05F00054B18704FF4FA62D4
:102B3C00064B1A80AFE7013B044A1380ABE700BF9A
:102B4C0078010020000C01407E0300207A01002057
:102B5C002DE9F04383B001213D2001F0EFFB012171
:102B6C003C4801F03FFBF023ADF8043010258DF804
:102B7C00075001248DF80640374F01A9384601F063
:102B8C00E2FA0823ADF804308DF807508DF80640B2
:102B9C0001A9384601F0D7FA0426ADF804608DF887
:102BAC0007508DF806400DEB06012C4801F0CBFACE
:102BBC004FF48053ADF804308DF807508DF8064073
:102BCC00DFF8A0800DEB0601404601F0BCFA40F2A4
:102BDC000333ADF804308DF807604FF002098DF81F
:102BEC0006900DEB0601384601F0ADFA4FF4E053B8
:102BFC00ADF804308DF807508DF806400DEB06014A
:102C0C00384601F0A0FAC023ADF804308DF8075017
:102C1C008DF806400DEB0601404601F094FAFF23B7
:102C2C00ADF804308DF807608DF806900DEB0601B9
:102C3C000B4801F088FA3023ADF804308DF80760AA
:102C4C008DF806900DEB0601404601F07CFA03B0BE
:102C5C00BDE8F08300023000000C0140001401407C
:102C6C00000801400010014010B582B04FF4C06064
:102C7C0001F068F903238DF8043001248DF8054028
:102C8C0000238DF806308DF8074001A801F064F997
:102C9C0021464FF0C05001F05FFB204601F0EAFBEB
:102CAC00204601F0D9FA612001F064FB0028FAD02B
:102CBC004FF4007001F0D6FA012001F0DBFA01F0BC
:102CCC00AFFB01F0A5FB0121084601F06DFB01F003
:102CDC009FFB49F63F4001F08BFB01F099FB02B0E2
:102CEC0010BD000030B587B001214FF4802001F0F9
:102CFC0033FB0121264801F075FA4FF40063ADF85F
:102D0C00043004238DF80730224D0DEB03012846C7
:102D1C0001F019FA4FF48063ADF8043003248DF8F8
:102D2C00064018238DF8073001A9284601F00BFA4C
:102D3C004FF40043ADF804308DF8064010238DF8A5
:102D4C00073001A9144801F0FEF94FF41653029311
:102D5C000023ADF80C30ADF80E30ADF81030ADF8F6
:102D6C0014300C23ADF812300C4C02A9204601F0A3
:102D7C0027F980220A4B5A60012240F22551204645
:102D8C0001F090F90121204601F07EF907B030BD29
:102D9C0010001400001001400008014000480040E1
:102DAC0000E100E04E4B9A6942F004029A619A6984
:102DBC0042F001029A619A6942F480429A61A3F549
:102DCC0084335A6822F0F0025A605A6842F0B0021A
:102DDC005A605A6822F470625A605A6842F48062EF
:102DEC005A60C0B210F0010F0ED03E4A93899BB2CC
:102DFC0043F48063938110F0020F26D093899BB229
:102E0C0023F400739BB29381364A138A9BB223F44A
:102E1C0040539BB2138210F0040F04D0138A9BB260
:102E2C0043F40053138210F0380018D0082847D010
:102E3C00102848D0182849D020284AD028284BD010
:102E4C00302809D040F271220BE0264A93899BB2BC
:102E5C0043F400739381D7E740F2A93201E041F6C5
:102E6C004C52204B1A819A8992B222F4805292B21F
:102E7C009A819A8992B242F400529A819A8992B2BA
:102E8C0042F008029A819A8992B242F004029A8125
:102E9C009A8992B242F010029A81134B402283F825
:102EAC00252320225A6003F1C04303F51C535A68B2
:102EBC0022F00F025A605A6842F003025A607047BF
:102ECC0041F28832CDE740F6A662CAE740F6C4125A
:102EDC00C7E740F25372C4E740F2E242C1E700BFD9
:102EEC00001002400038014000E100E01A4A938AC9
:102EFC009BB243F08003938202F55842536943F02E
:102F0C0001035361154BA2F55742FC3A9A60D86005
:102F1C0000221A601A6822F020021A601A6842F025
:102F2C0010021A601A6822F440721A601A6822F0B1
:102F3C0040021A601A6822F440621A601A6842F061
:102F4C0080021A601A6842F002021A604FF4804242
:102F5C00034B1A60704700BF003801404400024028
:102F6C0000E100E0164A938A9BB243F0400393823F
:102F7C0002F55842536943F001035361114BA2F51A
:102F8C005742FC3A9A60D860596000221A601A685D
:102F9C0022F010021A601A6822F440721A601A6841
:102FAC0022F040021A601A6822F440621A601A6811
:102FBC0042F080021A601A6842F020021A607047D0
:102FCC00003801405800024030B583B001214FF465
:102FDC00804001F0C1F94FF46043ADF80430032395
:102FEC008DF8063018238DF8073001A9264801F01A
:102FFC00AAF84FF40065ADF8045010238DF8073093
:10300C0001238DF80630214C01A9204601F09BF8D4
:10301C0025611F4B1A8892B242F010021A801A884E
:10302C0092B222F0020292B21A801A8892B222F064
:10303C00010292B21A801A8892B222F4006292B201
:10304C001A801A8892B222F0800292B21A801A88E0
:10305C0092B242F400721A801A8892B242F48072D0
:10306C001A809A8892B222F0040292B29A801A883C
:10307C0092B242F004021A801A8892B242F04002D4
:10308C001A8003B030BD00BF000C014000080140A5
:10309C00003800404FF480720A4B1A6100BF00BF29
:1030AC0003F5784344331A6822F001021A60586021
:1030BC0005494A6842F400524A601A6842F001021B
:1030CC001A6070470008014000000240054A13686E
:1030DC0023F0010313604FF48072034B5A6100BF5D
:1030EC0000BF70474400024000080140084B1A68BA
:1030FC0022F001021A601E225A6006494A6842F404
:10310C0000324A601A6842F001021A60704700BF30
:10311C005800024000000240024A136823F00103E9
:10312C001360704758000240034B9881024B1B8977
:10313C0013F0020FFAD0704700380040044B1B8983
:10314C0013F0010FFAD0024B9889C0B2704700BF40
:10315C000038004010B582B004464FF40062184BA2
:10316C005A6100BF00BF00BF00BF00BF430903F09E
:10317C0008038DF807309DF8070040F00300FFF7B7
:10318C00D3FFE0B2FFF7D0FFFFF7D8FF8DF80700B1
:10319C000020FFF7C9FFFFF7D1FF8DF80700094B9F
:1031AC001B8913F0800FFAD1FFF7C8FF8DF80700C9
:1031BC004FF40062024B1A619DF8070002B010BD7B
:1031CC00000801400038004008B54FF400620B4B7A
:1031DC005A6100BF00BF00BF00BF00BF0620FFF751
:1031EC00A3FF074B1B8913F0800FFAD1FFF7A6FF43
:1031FC004FF40062014B1A6108BD00BF000801408A
:10320C000038004008B54FF400620B4B5A6100BF08
:10321C0000BF00BF00BF00BF0420FFF785FF074BB6
:10322C001B8913F0800FFAD1FFF788FF4FF400626F
:10323C00014B1A6108BD00BF000801400038004076
:10324C0000B583B04FF40062104B5A6100BF00BF51
:10325C0000BF00BF00BF0520FFF766FF0020FFF78F
:10326C0063FFFFF76BFF0A4B1B8913F0800FFAD13A
:10327C00FFF764FF8DF807004FF40062034B1A61EF
:10328C009DF8070003B05DF804FB00BF0008014087
:10329C000038004030B583B004460D46FFF7D0FF30
:1032AC0010F0010FFAD1FFF78FFFFFF7C9FF10F0F5
:1032BC00010FFAD14FF40062184B5A6100BF00BFE6
:1032CC0000BF00BF00BF630903F008038DF807308F
:1032DC009DF8070040F00200FFF726FFE0B2FFF771
:1032EC0023FFFFF72BFF2846FFF71EFFFFF726FFF4
:1032FC000B4B1B8913F0800FFAD1FFF71FFF8DF8D2
:10330C0007004FF40062054B1A61FFF799FF10F0AC
:10331C00010FFAD1002003B030BD00BF00080140FE
:10332C0000380040074AD36943F00403D361A2F587
:10333C00023241F63F73138513889BB243F00803A6
:10334C001380704700100240094B988500229A8424
:10335C0001221A80064B1B8A13F0010FFAD0044A83
:10336C00138A9BB223F001039BB21382704700BFF8
:10337C000008004010B5114AD36823F00403D36051
:10338C000F4CE36823F0F0030001C0B20343E36089
:10339C00E36823F00803E3600520FFF7D5FFE3683B
:1033AC0043F00803E3600520FFF7CEFFE36823F04A
:1033BC000803E3600520FFF7C7FF10BD00140140B0
:1033CC00000C014010B504460120FFF7BDFF064A72
:1033DC00D36823F48053D3602009FFF7CBFF20463A
:1033EC00FFF7C8FF10BD00BF0010014010B5044628
:1033FC000120FFF7A9FF064AD36843F48053D3603A
:10340C002009FFF7B7FF2046FFF7B4FF10BD00BF40
:10341C000010014008B5C820FFF796FF164AD36884
:10342C0023F48053D3600320FFF7A4FF3220FFF76F
:10343C008BFF0320FFF79EFF0A20FFF785FF032079
:10344C00FFF798FF0A20FFF77FFF0220FFF792FF9C
:10345C000A20FFF779FF2820FFF7B4FF0C20FFF7B5
:10346C00B1FF0120FFF7AEFF0620FFF7ABFF802076
:10347C00FFF7A8FF08BD00BF0010014008B50329E5
:10348C0015D8DFE801F002080C10C0B240F0800043
:10349C00FFF798FF08BDC0B24030C0B2F6E7C0B22B
:1034AC001430C0B2F2E7C0B25430C0B2EEE7C0B2D2
:1034BC00ECE708B50120FFF785FF0220FFF782FF3C
:1034CC0008BD0000BF2803D94030C0B2014B185CC6
:1034DC00704700BF2056000808B5FFF7F3FFFFF751
:1034EC0085FF08BD10B5044602E00134FFF7F4FF78
:1034FC0020780028F9D110BD2DE9F84F8246894675
:10350C0015461E460A9C9DF82C800027574B1B78AD
:10351C00042BFBD8DFE803F00327546B840084F8FA
:10352C0000A0032363704FEA1923A37084F803905F
:10353C002B0A237165710621204600F01DFBA0713A
:10354C00000AE0710823E377002384F82030A37786
:10355C0047494FEA08128B18C820586001238B5436
:10356C00424A1370D2E74146414B03EB08131B7BD5
:10357C0003F0FF022BB13E4B03EB08130020187332
:10358C0098608AB994F82030002B6BD0002384F813
:10359C0020300221354A117035484FEA0811421883
:1035AC00435413739360B1E7314809014218002367
:1035BC004354137393602D4A1370FE20BDE8F88FAB
:1035CC006F00FFB20537FFB2A37F9F4202D07A1C77
:1035DC00934205D10023A3770322244B1A7095E75D
:1035EC000023A377214A1370FD20BDE8F88F7B1EC2
:1035FC00E35CB91E14F801B00BEB032B1FFA8BFB29
:10360C00C9B2204600F0B8FA834503D10422174B07
:10361C001A707BE70022154B1A70FD20BDE8F88F5D
:10362C00607810F0800F01D1002312E000220F4BC4
:10363C001A7000F00100BDE8F88F5A000332A15C4B
:10364C009A1C14F8122002EB012226F813200133E5
:10365C00DBB29AB29542F0D80022044B1A70FF20CC
:10366C00BDE8F88F0020BDE8F88F00BF7C0100207A
:10367C00CC0100202DE9F84F8246894616461D469E
:10368C000A9C9DF82C804FF0000B5B4B1B78042B95
:10369C00FBD8DFE803F0034471839C0084F800A09E
:1036AC00102363704FEA1923A37084F80390330A34
:1036BC002371F7B267717F00FFB2A77100230CE092
:1036CC005A00073235F81310090AA1541A1D35F89F
:1036DC00131004F812100133DBB29AB29642EFD8F1
:1036EC0007F1070B5FFA8BFB5946204600F044FAB2
:1036FC0004F80B000BF10103000AE0540937E777DB
:10370C00002384F82030A3773C494FEA08128B1829
:10371C00C820586001238B54374A1370B5E74146D3
:10372C00364B03EB08131B7B03F0FF022BB1334B1F
:10373C0003EB08130020187398608AB994F82030B2
:10374C00002B55D0002384F8203002212A4A117016
:10375C002A484FEA0811421843541373936094E7B4
:10376C002648090142180023435413739360224ADC
:10377C001370FE20BDE8F88F94F81EB0BBF1080F53
:10378C0005D10023A37703221B4B1A707DE700237E
:10379C00A377194A1370FD20BDE8F88F0BF1FF33A6
:1037AC00E35CABF10201675C07EB0327BFB2C9B264
:1037BC00204600F0E1F9874203D104220E4B1A7027
:1037CC0063E700220C4B1A70FD20BDE8F88F63787C
:1037DC0013F0800F05D10022074B1A70FF20BDE8B3
:1037EC00F88F0021044A117003F00100BDE8F88F36
:1037FC000020BDE8F88F00BF7D010020CC01002027
:10380C002DE9F043BFB007460E469146002398467B
:10381C001D461C465BE197F82030002B00F0898197
:10382C00012354E1BB7F072B00F28581002387F82D
:10383C002030BB770D234AE13B784B4500F07D816E
:10384C00002B00F07C81002387F82030BB770D2300
:10385C003DE17B78032B00F07481102B00F0738119
:10386C00052B00F0348107234FF001082FE1BA78C3
:10387C00FC7804EB0224A4B23A797D7905EB02259D
:10388C00ADB2621992B2013A92B2797810290DD088
:10389C00032940F01C81BB7F083BDBB2012B17D9FD
:1038AC00002387F82030BB770D2310E1B97F6B0024
:1038BC000933994205D0002387F82030BB770D23BC
:1038CC0005E1782A40F2418107234FF00208FEE01F
:1038DC00822A40F23C8107234FF00208F7E0BB78C4
:1038EC00FC7844EA0324012C03D907234FF0020887
:1038FC00EDE0BB7F083BDBB2012B40F22A810023B9
:10390C0087F82030BB770D23E1E07B78102B3BD080
:10391C00052B41D00723DAE0002101339BB29D42F5
:10392C0035D99E465A00D01D17F800C0181D17F83F
:10393C00100040EA0C200DF1F80C624422F8F40C53
:10394C000029E9D00CEB430232F8F41C89B2E218DE
:10395C0002F1FC0006EB4000808881420ED30CEB98
:10396C00430E3EF8F41C89B202F5BA7206EB420221
:10397C00D288914204D92AB10021CEE70021CCE7AC
:10398C000121CAE70121C8E701210023C7E700296B
:10399C0000F0E18007239AE03A797B7943EA02232D
:1039AC00ADF80230BDF802309BB2002B00F0D7808E
:1039BC00BDF802309BB2B3F57F4F03D007234FF015
:1039CC00030884E0072382E0B97F0239C9B2384684
:1039DC0000F0D2F8C1B2C0F30720BB7F9A1EBA5CCC
:1039EC00914205D0002387F82030BB770D236EE081
:1039FC00013BFB5C9842F5D1B8F1000F40F0B1806F
:103A0C007B78032B00F0AF80102B00F0AE80052BE1
:103A1C0040F0AD800B235AE03B7823B987F8203077
:103A2C00BB770D2353E07B7863F07F037B7087F8C3
:103A3C0002800323FB770C2349E03B7823B987F8FA
:103A4C002030BB770D2342E06B00BB7000230FE0EE
:103A5C0059000331E218783206EB42025088C0F369
:103A6C0007207854991C528807F8112001339BB217
:103A7C009D42EDD8BB780333FB770C2327E0E1188C
:103A8C003EAA02EB430232F8F42C92B226F8112033
:103A9C0001339BB29D42F2D83B7833B987F8203082
:103AAC00BB770D2313E00023F4E70623FB770C23ED
:103ABC000DE0BDF802309BB204F1FC0226F8123086
:103ACC000823FB77002387F82030BB770D230D2BC1
:103ADC004FD00C2BFBD801A252F823F0233800084E
:103AEC0031380008453800085F3800087B3800087A
:103AFC00EB38000817390008D5390008253A0008BA
:103B0C00473A0008B33A0008BF3A00081D3B0008CA
:103B1C00F97F384600F030F8FB7FF8545A1C000A45
:103B2C00B8540233FB77002387F82030BB770D2382
:103B3C00CDE70D23CBE70223C9E70323C7E7032314
:103B4C00C5E70423C3E70423C1E70623BFE7072324
:103B5C00BDE70623BBE707234FF00308B7E70723AE
:103B6C00B5E70823B3E70923B1E70A23AFE70D2331
:103B7C00ADE73FB0BDE8F08330B44FF6FF730DE016
:103B8C005B080132072A07DC13F0010FF8D04AF268
:103B9C00010181EA5303F4E7214628464A1ED4B2B8
:103BAC0021B1451C027853400022EBE7184630BC8B
:103BBC0070470000002306E04FF6FF711E4A22F802
:103BCC00131001339BB2092BF6D91C4B1B68B3F1B4
:103BDC00FF3F2ED030B400231C46FF2B1CD89A007C
:103BEC0002F1006202F5F842528892B2092A0CD80E
:103BFC00124931F8231089B20F4D25F81210944256
:103C0C0038BF144601339BB2E7E70D4A1380092CE9
:103C1C0002D0002030BC7047002306E0064A32F880
:103C2C00132020F8132001339BB2092BF6D9012065
:103C3C00F0E70020704700BF80010020007C0008E6
:103C4C00940100209A4B1B78062B00F22981DFE8A7
:103C5C0013F00700200069007C00AB00EF000B01A3
:103C6C00944B1B88944A32F8132092B230F81310FC
:103C7C008A4205D0914B198001228D4B1A707047E6
:103C8C0001339BB20A2B02D08A4A1380704700235F
:103C9C00FAE78B4B1B889BB2B3F5807F18D0884B0F
:103CAC001B889BB2874A32F823309BB24FF6FF72C7
:103CBC00934214D0824B1B889BB29B0003F1006390
:103CCC0003F5F843804A13600322794B1A7070474E
:103CDC0000227B4B1A800522754B1A7070477B4B68
:103CEC001B6913F0800F05D0784B794A5A6002F1AA
:103CFC0088325A60754B00221A611A6942F001022F
:103D0C001A616F4B1B889BB29B0003F1006303F598
:103D1C00F8436D4A1360694A12881A800222644B78
:103D2C001A707047694BDB6813F0200F00F0B880F5
:103D3C00664BDA6842F02002DA601A6942F08002BF
:103D4C001A6103225A4B1A7070475D4B1B889BB249
:103D5C009B0003F1006303F5F8435B889BB24FF6BD
:103D6C00FF72934203D00522514B1A707047574B88
:103D7C001B6913F0800F05D0544B554A5A6002F161
:103D8C0088325A60514B00221A611A6942F00102C2
:103D9C001A614D4A1368991C1160464A12885A8060
:103DAC000422434B1A707047484BDB6813F0200F0A
:103DBC0020D0464AD36843F02003D360404B1B8885
:103DCC009BB29B0003F1006303F5F8435B889BB245
:103DDC00384A128893421ED0394A13889BB2013359
:103DEC009BB21380394A136943F08003136100229C
:103DFC002F4B1A70354BDB6813F0040F16D0334A77
:103E0C00D36843F00403D3600123002B48D0052270
:103E1C00274B1A7070472A4B1B889BB2294931F8E3
:103E2C0023309BB2244921F81230D5E70023ECE76C
:103E3C00264B1B6913F0800F05D0244B244A5A6083
:103E4C0002F188325A60214B00221A611A6942F041
:103E5C0002021A611B4A5A611A6942F040021A6145
:103E6C000622134B1A707047184BDB6813F0200FA7
:103E7C0016D0164AD36843F02003D36000234FF0CA
:103E8C00FF3205E00F4951F823100A4001339BB271
:103E9C00FF2BF7D9B2F1FF3F03D00522044B1A7068
:103EAC0070470A4A136943F080031361002318E03A
:103EBC00960100209801002080010020A001002024
:103ECC0094010020007C00089C010020002002408E
:103EDC00230167454FF6FF71064A22F81310013390
:103EEC009BB2092BF6D90023034A1370034A1380A3
:103EFC00704700BF80010020960100209401002033
:103F0C000C4B1A68136843F0010313600A4B1B68CF
:103F1C001A686FF39F221A60084B1A68536843F0B3
:103F2C0001035360064B1B681A686FF3DF321A608B
:103F3C00704700BFD0000020D4000020CC0000202F
:103F4C00C800002040F0BF6040F40030014BD86046
:103F5C00704700BF00ED00E0C3785BB903785A09E5
:103F6C0003F01F03012101FA03F32032124941F837
:103F7C002230704710B4114BDA68D243C2F30222DC
:103F8C00C2F104040F2121FA02F24378A340817894
:103F9C000A4013431B010278DBB207490A4482F83A
:103FAC0000330378580903F01F03012202FA03F3CC
:103FBC0041F8203010BC704700E100E000ED00E05B
:103FCC0030B587B004460D46038A9BB2CA8823F4E9
:103FDC0040531343038283899BB2898828896A8959
:103FEC0001430A4323F4B05323F00C031343A3817E
:103FFC00A38A9BB2AA8923F440731343A38201A81A
:10400C0000F03EF91E4B9C4224D0039BA28912F473
:10401C00004F21D103EB830303EB83032968890051
:10402C00B3FBF1F1174BA3FB0123580905016423E2
:10403C0000FB1313A28912F4004F16D11B0132336B
:10404C00104AA2FB0323C3F343132B439BB22381DC
:10405C0007B030BD049BD9E703EB830303EB830369
:10406C0029684900B3FBF1F1DCE7D9003231054A8C
:10407C00A2FB0131C1F3421245EA0203E6E700BF9D
:10408C00003801401F85EB5131B983899BB223F471
:10409C0000539BB28381704783899BB243F40053D6
:1040AC008381704710B4C1F3421401F01F01012346
:1040BC0003FA01F19C4209D0022C09D014304AB900
:1040CC00036823EA0101016010BC70470C30F6E76D
:1040DC001030F4E7036819430160F5E7C1F30801F8
:1040EC00818070478088C0F30800704703881942AC
:1040FC0001D1002070470120704710B4C1F3421267
:10410C0001F01F040123A340012A0FD0022A11D071
:10411C00828A92B21340090A012202FA01F1028842
:10412C0092B2114053B161B9002008E0828992B279
:10413C001340F0E7028A92B21340ECE7002010BC67
:10414C0070470120FBE7F0B4CB7803F00F02154663
:10415C0013F0100F01D08D7815430B78E3B106687E
:10416C00002301E042610133072B14D801229A404D
:10417C000C8832EA0404F6D19C000F27A74026EAEB
:10418C00070605FA04F42643CC78282CEAD0482CF0
:10419C00E9D10261E7E706600B88FF2B20D946685E
:1041AC00002302E0426115E00133072B17D803F11D
:1041BC0008040122A2400C8832EA0404F4D19C00C9
:1041CC000F27A74026EA070605FA04F42643CC7805
:1041DC00282CE7D0CC78482CE6D10261E4E7466085
:1041EC00F0BC704730B400281DDB1A4B5B68C0F381
:1041FC00034582B200F44014B4F5401F16D010F4FD
:10420C00801F1BD00324AC4023EA040343F07063EB
:10421C0019B1410D09018A401343002817DB0D4ADF
:10422C00536030BC70470B4BDB69E0E723F07063E5
:10423C00084D6C6824F070646C60E9E7440D24014F
:10424C0002FA04F423EA040343F07063E0E7014A42
:10425C00D361E6E700000140014B1860704700BFD6
:10426C0080044242024A136A18431062704700BF2E
:10427C0000100240014B1860704700BF3C044242E2
:10428C0010B4294B5B6803F00C03042B2BD0082BC8
:10429C002CD013B1254B036001E0244B0360224961
:1042AC004B68C3F30313224CE35CDAB20368D340CC
:1042BC0043604A68C2F30222A25CD2B223FA02F231
:1042CC0082604A68C2F3C222A25CD2B2D340C360FD
:1042DC004A68C2F3813217498A5CD2B2B3FBF2F35B
:1042EC00036110BC7047114B0360D8E70E4A53684A
:1042FC005268C3F38343023312F4803F09D00A4A55
:10430C00526812F4003F09D00B4A02FB03F303601E
:10431C00C5E7094A02FB03F30360C0E7034A02FB4B
:10432C0003F30360BBE700BF0010024000127A00E9
:10433C00DC000020D800002000093D0029B9054A06
:10434C00936923EA000090617047024A936918430D
:10435C00906170470010024029B9054AD36923EADD
:10436C000000D0617047024AD3691843D06170478E
:10437C00001002404309012B0CD0022B0DD0094B2D
:10438C005B6A00F01F0023FA00F010F0010F07D158
:10439C0000207047034B1B68F3E7024B1B6AF0E7E6
:1043AC00012070470010024031B9064B1A88C043F7
:1043BC0080B2104018807047024A13889BB2184391
:1043CC001080704700280040034A93889BB243F04A
:1043DC0010039380704700BF00280040034A938865
:1043EC009BB223F010039BB29380704700280040CF
:1043FC0010B50446FFF7E8FFC4F30342034B1A81E0
:10440C00A4B29C81FFF7EAFF10BD00BF002800405A
:10441C00024B9B8813F0200FFAD070470028004005
:10442C00064A93889BB223F008039BB29380034BFC
:10443C009B8813F0080FFAD0704700BF002800408B
:10444C00064A9188C3B20B401288104202D01BB9A5
:10445C000020704700207047012070470028004062
:10446C00034B9A88C04380B210409880704700BFBD
:10447C0000280040014B1860704700BF20000E421E
:10448C00034A136803F0380318431060704700BFE9
:10449C0000200240002103E00A4B5B5843500431DA
:1044AC0009480A4B42189A42F6D3094A02E0002303
:1044BC0042F8043B074B9A42F9D300F00FF8FCF793
:1044CC003FFD70479C560008000000205001002062
:1044DC0050010020A4080020FEE7000070B5002564
:1044EC000C4E0D4CA41BA410A54209D100F054FC99
:1044FC0000250A4E0A4CA41BA410A54205D170BD80
:10450C0056F8253098470135EEE756F82530984790
:10451C000135F2E7945600089456000894560008AA
:10452C00985600080EB44FF4027100B59CB0ADF86B
:10453C0014106FF00041049107914FF6FF711DAB01
:10454C0002900690084853F8042BADF8161000683A
:10455C0002A9019300F066F80022029B1A701CB0AD
:10456C005DF804EB03B07047EC0000202DE9F04738
:10457C008E6882469E420C469146984635D88A896A
:10458C0012F4906F31D00223256809696F1A65699E
:10459C0005EB450595FBF3F508F101033B449D4202
:1045AC0038BF1D46530531D5294600F047FB06465A
:1045BC0050B90C23CAF80030A3894FF0FF3043F0F8
:1045CC004003A381BDE8F0873A46216900F0C4FAA4
:1045DC00A38923F4906343F08003A38126613E44B6
:1045EC00266046466561ED1BA560464528BF4646DC
:1045FC0049463246206800F0BAFAA36800209B1B9B
:10460C00A36023681E442660BDE8F0872A4600F0AC
:10461C0073FB06460028E1D12169504600F0C2FA2E
:10462C00C7E700002DE9F04F9DB003938B898046BE
:10463C001C060D4616460FD50B696BB9402100F0D0
:10464C00FDFA2860286128B90C23C8F800304FF017
:10465C00FF30C4E040236B610023099320238DF8C5
:10466C00293030234FF0010B8DF82A3037463C4669
:10467C0014F8013B002B3CD1B7EB060A0BD0534688
:10468C00324629464046FFF771FF013000F0A28008
:10469C00099B534409933B78002B00F09B8000232B
:1046AC004FF0FF3204930793059206938DF8533025
:1046BC001A9305222178504800F040FA671C049B9D
:1046CC00D8B9D90644BF20228DF853201A0744BF0D
:1046DC002B228DF8532022782A2A16D000210A206A
:1046EC00079A27463B780134303B092B50D9C9B186
:1046FC0011E0252BC0D02746B9E73F4A3C46801A2B
:10470C000BFA00F018430490D3E7039A111D1268BA
:10471C000391002A01DB079204E0524243F00203AA
:10472C00079204933B782E2B0DD17B78791C2A2B86
:10473C0032D1039B02371A1D1B680392002BB8BFA2
:10474C004FF0FF3305932D4C03223978204600F0AF
:10475C00F5F938B14023001B03FA00F0049B013734
:10476C00034304933978062225487E1C8DF82810C3
:10477C0000F0E4F9002835D0224BFBB9039B07333A
:10478C0023F0070308330393099B4B4409936DE70C
:10479C0000FB02320121A4E700230A2418460593EA
:1047AC000F463A780131303A092A03D9002BCAD086
:1047BC000590C8E704FB00200123F1E703AB00934D
:1047CC002A46114B04A94046AFF30080B0F1FF3FDD
:1047DC008146D9D1AB895B063FF539AF09981DB03D
:1047EC00BDE8F08F03AB00932A46074B04A9404663
:1047FC0000F084F8EAE700BF60560008665600082F
:10480C006A56000800000000794500082DE9F047C1
:10481C0091461F468A680B6906469342B8BF1346F9
:10482C00C9F8003091F843200C46DDF8208012B115
:10483C000133C9F800302368990642BFD9F800301B
:10484C000233C9F80030256815F0060507D104F1CC
:10485C00190AE368D9F800209B1A9D422ADB94F8C8
:10486C0043302268003318BF012392062FD404F181
:10487C00430239463046C047013022D02368E568F0
:10488C0003F00603042B18BF0025D9F800204FF0C5
:10489C00000908BFAD1AA368226908BF25EAE575AF
:1048AC009342C4BF9B1AED181A344D451BD10020FE
:1048BC00BDE8F0870123524639463046C0470130E7
:1048CC0003D14FF0FF30BDE8F0870135C1E7302050
:1048DC00E11881F843005A1C94F845102244023325
:1048EC0082F84310C3E70123224639463046C047BD
:1048FC000130E6D009F10109D7E700002DE9F043BA
:10490C0017460A7E85B06E2A984606460C460C9BC6
:10491C0001F1430E00F0BC801AD8632A2ED00AD8BD
:10492C00002A00F0C880582A00F08A8004F1420561
:10493C0084F842202AE0642A01D0692AF6D1216841
:10494C001A6811F0800F23D0111D1960136827E02D
:10495C00732A00F0B48008D86F2A2AD0702AE5D1C7
:10496C000A6842F020020A6003E0752A21D0782AF6
:10497C00DCD178226F4984F8452064E01A6801F193
:10498C004205111D1960136884F842300123A3E01D
:10499C0011F0400F02F104011960D7D0B2F90030C8
:1049AC00002B03DA2D225B4284F8432062490A2251
:1049BC0017E02068196810F0800F03D0081D1860EC
:1049CC000B6806E010F0400F01F104001860F7D0FE
:1049DC000B886F2A14BF0A2208225749002084F83A
:1049EC0043006568002DA560C0F29C80206820F013
:1049FC0004002060002B3FD1002D40F095807546BF
:104A0C00082A0BD12368DA0708D5236962689A4211
:104A1C00DEBF302305F8013C05F1FF35AEEB050395
:104A2C002361CDF800803B4603AA21463046FFF7B0
:104A3C00EDFE013055D14FF0FF3005B0BDE8F083ED
:104A4C0081F845203C492268186812F0800F00F16B
:104A5C0004051D6001D0036802E05506FBD50388F0
:104A6C00D00744BF42F0200222601BB9226822F01A
:104A7C00200222601022B1E77546B3FBF2F002FB74
:104A8C001033CB5C05F8013D03460028F5D1B7E7A0
:104A9C0008681A6810F0800F496904D0101D18605E
:104AAC001368196007E010F0400F02F10400186061
:104ABC001368F6D01980002375462361B1E71A6894
:104ACC00111D1960156800216268284600F036F83F
:104ADC0008B1401B606063682361002384F8433095
:104AEC009FE723692A4639463046C0470130A2D099
:104AFC0023689B0707D5002504F11909E368039A7D
:104B0C009B1A9D4205DBE068039B9842B8BF184690
:104B1C0093E701234A4639463046C04701308AD0D4
:104B2C000135EBE7002BA7D10B7804F1420584F893
:104B3C00423065E7825600087156000810B5C9B2BC
:104B4C0002449042034601D1002010BD1C78013074
:104B5C008C42F6D1184610BD10B5431E0A44914242
:104B6C0000D110BD11F8014B03F8014FF7E7884253
:104B7C0010B501EB020303D8421E99420CD110BDB3
:104B8C009842F9D28118D21AD34200D110BD13F831
:104B9C00014D01F8014DF7E711F8014B02F8014FF7
:104BAC00EBE7000038B50546002943D051F8043C2A
:104BBC000C1F002BB8BFE41800F0D4F81E4A136881
:104BCC00104633B9636014602846BDE8384000F0E5
:104BDC00CAB8A3420BD921686218934201BF1A6864
:104BEC005B685218226063600460EDE713465A68F4
:104BFC000AB1A242FAD919685818A0420BD1206800
:104C0C000144581882421960DED110685268014480
:104C1C0019605A60D8E702D90C232B60D4E72068BE
:104C2C0021188A4201BF116852680918216062601C
:104C3C005C60C9E738BD00BFA401002070B5CD1C75
:104C4C0025F0030508350C2D38BF0C25002D064624
:104C5C0001DBA94203D90C233360002070BD00F0A6
:104C6C0081F8234A1468214691B9224C23681BB958
:104C7C00304600F067F820602946304600F062F8B4
:104C8C00431C26D10C233046336000F06CF8E4E76B
:104C9C000B685B1B1AD40B2B0FD90B60CC18CD50A7
:104CAC00304600F060F804F10B00231D20F00700E3
:104CBC00C31A1BD05A42E25070BD8C420BBF6368C2
:104CCC004B681360636018BF0C46E9E70C464968F3
:104CDC00CAE7C41C24F00304A04205D0211A3046B4
:104CEC0000F030F80130CDD02560D9E770BD00BFA1
:104CFC00A4010020A8010020F8B5074614460E4672
:104D0C0021B91146BDE8F840FFF798BF22B9FFF76B
:104D1C0049FF25462846F8BD00F026F884420FD9F5
:104D2C0021463846FFF78AFF05460028F2D0314667
:104D3C002246FFF711FF31463846FFF733FFE9E70C
:104D4C003546E7E738B50023054C05460846236091
:104D5C0000F014F8431C02D1236803B12B6038BD5A
:104D6C00A00800207047704751F8040C0028A0F1EF
:104D7C000400BCBF0B58C01870470000044A05491A
:104D8C001368002B08BF0B46184410601846704778
:104D9C00AC010020A8080020F8B500BFF8BC08BC86
:104DAC009E467047F8B500BFF8BC08BC9E467047DD
:104DBC000100000003000000070000000F000000CD
:104DCC001F0000003F0000007F000000FF000000FB
:104DDC00FF010000FF030000CDE5F0E0E1EEF7E895
:104DEC00E520EBE0ECEFFB00253032640000000026
:104DFC00253032642000000052533438353A2045B7
:104E0C0058502E2564205546542E25640000000071
:104E1C00616464722E25237800000000E44D0008C4
:104E2C00000100009D150008485300080001000017
:104E3C00591200085C530008000100001112000810
:104E4C0000000000000000000000000020530008DB
:104E5C00000300005D2500082C530008000300002F
:104E6C003D1200084053000800030000B92500085B
:104E7C001C5300080908000000000000000000009E
:104E8C000000000000000000F452000800080000C0
:104E9C00F525000808530008000800004526000806
:104EAC001C5300080A08000000000000000000006D
:104EBC000000000000000000C452000800080000C0
:104ECC0081260008D452000800080000F5260008CE
:104EDC00E8520008000800006127000800000000EC
:104EEC000000000000000000CAEEEDF4E8E3F3F06F
:104EFC00E0F6E8FF20F1E8F1F2E5ECFB0000000041
:104F0C00C2F1E5E3EE20EBE0ECEF3A202564000083
:104F1C00CFEBE0F220F0E0F1F8E8F0E5EDE8FF3A55
:104F2C0020256400CFEBE0F2E020D3D420E820D29F
:104F3C00E5ECEF3A202B0000CFEBE0F2E020D3D4ED
:104F4C0020E820D2E5ECEF3A202D00008C5300082D
:104F5C00000100003D130008A053000800010000F0
:104F6C0005250008AC53000800010000C51B000813
:104F7C00BC53000800010000192A000800000000C2
:104F8C000000000000000000CBE0ECEF203A2564AC
:104F9C0000000000C0E2E0F0E8FF3A00CBC0CCCF4C
:104FAC00DB000000202020202000000020D2E5ECB7
:104FBC00EF000000743D256400000000743D256482
:104FCC0020000000D3D43D256425252020000000BE
:104FDC00D3D43D256425252000000000D3D420C265
:104FEC00CACB0000D3D420C2DBCA0000D3C7C32075
:104FFC00C2CACB00D3C7C320C2DBCA007E000000EC
:10500C006C53000800010000191400087C530008C0
:10501C0000010000C51B000800000000000000009B
:10502C0000000000C2EAEBFEF7E5EDE8E93A2025C6
:10503C0030336400D1E1F0EEF1EEE220EFEEEBED77
:10504C00FBF53A2530336400D1E1F0EEF1EEE220CD
:10505C00EEE4E8ED2E3A202530336400D1E1F0EE99
:10506C00F1EEE220EBEEE3E03A2020253033640051
:10507C00C2E2E5E4E8F2E520EAEEE43A00000000E2
:10508C002020253034640000185400080001000072
:10509C0099160008245400080601000000000000C6
:1050AC00000000000000000000000000CDE0F0E077
:1050BC00E1EEF2EAE020CFEBE0F2E000CBE0ECEF47
:1050CC00E02000002020253032640000CBE0ECEF23
:1050DC00E02025303264202020253035642020004B
:1050EC0020202020202020202020202020202020B4
:1050FC002020202000000000CC53000800060000F7
:10510C0000000000E053000806060000000000004C
:10511C00E853000800060000A11900080000000078
:10512C000000000000000000F05300080002000026
:10513C0000000000FC530008070200000000000003
:10514C000854000800020000E119000800000000EB
:10515C000000000000000000C2E2E5E4E8F2E520F7
:10516C00EDEEECE5F0000000CBE0ECEFE0204E20A3
:10517C0000000000CDE0E6E0F2E8E52020207E20F3
:10518C00D1E1F0EEF1000000D3E4E5F0E6E0EDE86B
:10519C00E5207E20CEF2ECE5EDE000003454000872
:1051AC0005000000000000003C5400080200000054
:1051BC00000000004854000803000000000000003C
:1051CC00585400080400000000000000000000001B
:1051DC000000000000000000CDE0E6E0F2E8E52071
:1051EC0020207E20D1EEF5F0E0ED2E00C0E4F0E5BD
:1051FC00F120E220F1E5F2E83A000000D1EAEEF00D
:10520C00EEF1F2FC2028E1EEE4FB293A000000006C
:10521C00CAEEEBE8F7E5F1F2E2EE20EBE0ECEF3A68
:10522C0000000000CCEEE4E5EBFC3A00CAEEEDF237
:10523C00F0EEEBFC20F7E5F2ED2E3A00CFEBE0F2CE
:10524C00E020E4E0F2F7E8EAEEE23A00CAEEEB2DF9
:10525C00E2EE20F1F2EEEF20E1E8F23A000000007D
:10526C00C4E0F2F7E8EA20F2E5ECEFE5F0E0F2F367
:10527C00F0FB3A00CCE0EAF120F2E5ECEFE5F0E0EF
:10528C00F2F3F0E03A00000054E5ECEFE5F0E0F268
:10529C00F3F0E020E2EEF1F1F2E0ED3A0000000074
:1052AC00C4E0F2F7E8EA20D3D43A0000D2F0E5E209
:1052BC00EEE3E020D3D43A00CFEBE0F2E020E4E0E0
:1052CC00F2F7E8EAEEE20000C4E0F2F7E8EA20F2D6
:1052DC00E5ECEFE5F0E0F2F3F0FB0000C4E0F2F7F0
:1052EC00E8EA20D3D4000000CCE0EAF120F2E5ECAF
:1052FC00EFE5F0E0F2F3F0E000000000D2E5ECEFB7
:10530C00E5F0E0F2F3F0E020E2EEF1F1F200000063
:10531C00C5F9E500CAEEEB2DE2EE20EBE0ECEF0078
:10532C00D1E1F0EEF120ECE0EAF1E8ECF3ECE02076
:10533C00D3D40000CCEEE4E5EBFC0000CEF8E8E1C1
:10534C00EAE820EBE8EDE8E8205253343835000069
:10535C00D1E1F0EEF1E8F2FC20E0E2E0F0E8E80068
:10536C00CFF0EEF1ECEEF2F0E5F2FC20EBEEE30028
:10537C00D1E1F0EEF1E8F2FC20EBEEE300000000EE
:10538C00CFF0EEF1ECEEF2F020EAEEEDF42E2DE89B
:10539C00E8000000CDE0F1F2F0EEE9EAE8000000F0
:1053AC00CDE0F1F2F0EEE9EAE820EAEEEDF42E00C1
:1053BC00CDE0F1F2F0EEE9EAE820F1E5F2E80000E8
:1053CC00D1E1F0EEF1E8F2FC20E2F1E520EBE0ECCB
:1053DC00EFFB000020CDE5F20000000020C4E0202F
:1053EC0000000000D1E1F0EEF1E8F2FC000000005A
:1053FC0020C2F1E520EBE0ECEFFB000020CBE0EC71
:10540C00EFF32020EDEEECE5F0200000CFF0EEF114
:10541C00ECEEF2F000000000D1E1F0EEF120EDE056
:10542C00F0E0E1EEF2EAE800C0E2E0F0E8E80000CB
:10543C00CDE0F0E0E1EEF2EAE0000000CAEEEDF4BF
:10544C00E8E3F3F0E0F6E8FF00000000CBEEE32029
:10545C00F0E0E1EEF2FB0000EDE5F7E5F2EDEEF148
:10546C00F2FC0000F7E5F2EDEEF1F2FC202000007A
:10547C0039363030202000003134343030200000F8
:10548C0031393230302000003238383030200000D2
:10549C0033383430302000003537363030200000BF
:1054AC0037363830302000003131353230300000A2
:1054BC00EEF2F1F3F2F1F2E2F3E5F220000000007B
:1054CC00EFF0E8F1F3F2F1F2E2F3E5F200000000A4
:1054DC00D3CEC22DCFC22D3120202000D3CEC22D51
:1054EC00CFC22D3520202000D3CEC22DCFC22D31DE
:1054FC0030202000D3CEC22DCFC22D31352020003C
:10550C00D3CEC22DCFC22D3330202000D3CEC22D0E
:10551C00CFC22D3530202000D3CEC22DCFC22D319D
:10552C0030302000D3CEC22DCFC22D3135302000EB
:10553C00D3CEC22DCFC22D3230302000D3CEC22DCF
:10554C00CFC22D3330302000D3CEC22DCFC22D355B
:10555C0030302000D3CEC22DCFC22D3730302000BA
:10556C00D3CEC22DCFC22D3130303000D3CEC22D90
:10557C00CFC22D3135303000D3CEC22DD1C22D3516
:10558C0020202000D3CEC22DD1C22D3130202000BE
:10559C00D3CEC22DD1C22D3135202000D3CEC22D79
:1055AC00D1C22D3330202000D3CEC22DD1C22D3507
:1055BC0030202000D3CEC22DD1C22D31303020006E
:1055CC00D3CEC22DD1C22D3135302000D3CEC22D39
:1055DC00D1C22D3230302000D3CEC22DD1C22D33CA
:1055EC0030302000D3CEC22DD1C22D35303020002A
:1055FC00D3CEC22DD1C22D3730302000D3CEC22D08
:10560C00D1C22D3130303000D3CEC22DD1C22D318C
:10561C003530300041A042A1E045A3A4A5A64BA77C
:10562C004D484FA8504354A9AA58E1ABACE2ADAEDB
:10563C00ADAFB0B161B2B3B4E365B6B7B8B9BABB8C
:10564C00BCBD6FBE7063BF79E478E5C0C1E6C2C370
:10565C00C4C5C6C7232D302B2000686C4C00656672
:10566C0067454647003031323334353637383941A7
:10567C0042434445460030313233343536373839BD
:08568C006162636465660000C1
:0456940031010008D8
:045698000D010008F8
:10569C007C540008845400088C540008945400086E
:1056AC009C540008A4540008AC540008B4540008DE
:1056BC00BC540008CC54000800000000A85100089D
:1056CC0094500008584F00080C500008284E000851
:1056DC003451000804510008584E0008944E00083C
:1056EC00C44E0008DC540008E8540008F4540008C8
:1056FC00005500080C5500081855000824550008E2
:10570C00305500083C550008485500085455000811
:10571C00605500086C550008785500088455000841
:10572C00905500089C550008A8550008B455000871
:10573C00C0550008CC550008D8550008E4550008A1
:10574C00F0550008FC5500080856000814560008CF
:10575C0064540008705400085800024000000240D5
:10576C00001002400038014002040608000000004E
:10577C00010203040102030406070809F0000020DB
:10578C00000000000000000000000000000000000D
:10579C0000000000000000000000000000000000FD
:1057AC0000000000000000000000000000000000ED
:1057BC0000000000000000000000000000000000DD
:1057CC0000000000000000000000000000000000CD
:1057DC0000000000000000000000000000000000BD
:04000005080044A10A
:00000001FF
